{
  "address": "0x97ac7FEb9821563C3acB4C67e97fD4536FeFF506",
  "abi": [
    {
      "inputs": [
        {
          "internalType": "address",
          "name": "tokenAddr",
          "type": "address"
        }
      ],
      "stateMutability": "nonpayable",
      "type": "constructor"
    },
    {
      "anonymous": false,
      "inputs": [
        {
          "indexed": false,
          "internalType": "address",
          "name": "liquidityProvider",
          "type": "address"
        },
        {
          "indexed": false,
          "internalType": "uint256",
          "name": "liquidityMinted",
          "type": "uint256"
        },
        {
          "indexed": false,
          "internalType": "uint256",
          "name": "ethInput",
          "type": "uint256"
        },
        {
          "indexed": false,
          "internalType": "uint256",
          "name": "tokensInput",
          "type": "uint256"
        }
      ],
      "name": "LiquidityProvided",
      "type": "event"
    },
    {
      "anonymous": false,
      "inputs": [
        {
          "indexed": false,
          "internalType": "address",
          "name": "liquidityRemover",
          "type": "address"
        },
        {
          "indexed": false,
          "internalType": "uint256",
          "name": "liquidityWithdrawn",
          "type": "uint256"
        },
        {
          "indexed": false,
          "internalType": "uint256",
          "name": "tokensOutput",
          "type": "uint256"
        },
        {
          "indexed": false,
          "internalType": "uint256",
          "name": "ethOutput",
          "type": "uint256"
        }
      ],
      "name": "LiquidityRemoved",
      "type": "event"
    },
    {
      "anonymous": false,
      "inputs": [
        {
          "indexed": false,
          "internalType": "uint256",
          "name": "price",
          "type": "uint256"
        }
      ],
      "name": "PriceUpdated",
      "type": "event"
    },
    {
      "anonymous": false,
      "inputs": [
        {
          "indexed": false,
          "internalType": "address",
          "name": "swapper",
          "type": "address"
        },
        {
          "indexed": false,
          "internalType": "address",
          "name": "inputToken",
          "type": "address"
        },
        {
          "indexed": false,
          "internalType": "uint256",
          "name": "inputAmount",
          "type": "uint256"
        },
        {
          "indexed": false,
          "internalType": "address",
          "name": "outputToken",
          "type": "address"
        },
        {
          "indexed": false,
          "internalType": "uint256",
          "name": "outputAmount",
          "type": "uint256"
        }
      ],
      "name": "Swap",
      "type": "event"
    },
    {
      "inputs": [
        {
          "internalType": "uint256",
          "name": "yOutput",
          "type": "uint256"
        },
        {
          "internalType": "uint256",
          "name": "xReserves",
          "type": "uint256"
        },
        {
          "internalType": "uint256",
          "name": "yReserves",
          "type": "uint256"
        }
      ],
      "name": "calculateXInput",
      "outputs": [
        {
          "internalType": "uint256",
          "name": "xInput",
          "type": "uint256"
        }
      ],
      "stateMutability": "pure",
      "type": "function"
    },
    {
      "inputs": [],
      "name": "currentPrice",
      "outputs": [
        {
          "internalType": "uint256",
          "name": "_currentPrice",
          "type": "uint256"
        }
      ],
      "stateMutability": "view",
      "type": "function"
    },
    {
      "inputs": [],
      "name": "deposit",
      "outputs": [
        {
          "internalType": "uint256",
          "name": "tokensDeposited",
          "type": "uint256"
        }
      ],
      "stateMutability": "payable",
      "type": "function"
    },
    {
      "inputs": [
        {
          "internalType": "uint256",
          "name": "tokens",
          "type": "uint256"
        }
      ],
      "name": "init",
      "outputs": [
        {
          "internalType": "uint256",
          "name": "",
          "type": "uint256"
        }
      ],
      "stateMutability": "payable",
      "type": "function"
    },
    {
      "inputs": [
        {
          "internalType": "address",
          "name": "",
          "type": "address"
        }
      ],
      "name": "liquidity",
      "outputs": [
        {
          "internalType": "uint256",
          "name": "",
          "type": "uint256"
        }
      ],
      "stateMutability": "view",
      "type": "function"
    },
    {
      "inputs": [
        {
          "internalType": "uint256",
          "name": "xInput",
          "type": "uint256"
        },
        {
          "internalType": "uint256",
          "name": "xReserves",
          "type": "uint256"
        },
        {
          "internalType": "uint256",
          "name": "yReserves",
          "type": "uint256"
        }
      ],
      "name": "price",
      "outputs": [
        {
          "internalType": "uint256",
          "name": "yOutput",
          "type": "uint256"
        }
      ],
      "stateMutability": "pure",
      "type": "function"
    },
    {
      "inputs": [
        {
          "internalType": "uint256",
          "name": "inputAmount",
          "type": "uint256"
        }
      ],
      "name": "swap",
      "outputs": [
        {
          "internalType": "uint256",
          "name": "outputAmount",
          "type": "uint256"
        }
      ],
      "stateMutability": "payable",
      "type": "function"
    },
    {
      "inputs": [],
      "name": "totalLiquidity",
      "outputs": [
        {
          "internalType": "uint256",
          "name": "",
          "type": "uint256"
        }
      ],
      "stateMutability": "view",
      "type": "function"
    },
    {
      "inputs": [
        {
          "internalType": "uint256",
          "name": "amount",
          "type": "uint256"
        }
      ],
      "name": "withdraw",
      "outputs": [
        {
          "internalType": "uint256",
          "name": "ethAmount",
          "type": "uint256"
        },
        {
          "internalType": "uint256",
          "name": "tokenAmount",
          "type": "uint256"
        }
      ],
      "stateMutability": "nonpayable",
      "type": "function"
    }
  ],
  "transactionHash": "0x51fafe8042f373cbfb0433e8493e5dff92314d701aa5fea10fcad74f0b442c0b",
  "args": [
    "0xC38d03246eA312d429846281f0101A53A8190447"
  ],
  "numDeployments": 1,
  "solcInputHash": "a6c72d8fa31fd799de900fa8d6fea40e",
  "bytecode": "0x608060405234801561001057600080fd5b506040516112fb3803806112fb83398101604081905261002f91610054565b600080546001600160a01b0319166001600160a01b0392909216919091179055610084565b60006020828403121561006657600080fd5b81516001600160a01b038116811461007d57600080fd5b9392505050565b611268806100936000396000f3fe6080604052600436106100865760003560e01c806394b918de1161005957806394b918de146101295780639d1b464a1461013c578063b7b0422d14610151578063b8c876b114610164578063d0e30db01461019157600080fd5b806315770f921461008b5780632071a9f4146100b45780632e1a7d4d146100d45780636e97f13914610109575b600080fd5b34801561009757600080fd5b506100a160015481565b6040519081526020015b60405180910390f35b3480156100c057600080fd5b506100a16100cf366004611107565b610199565b3480156100e057600080fd5b506100f46100ef366004611133565b6101ca565b604080519283526020830191909152016100ab565b34801561011557600080fd5b506100a1610124366004611107565b6104be565b6100a1610137366004611133565b6104f0565b34801561014857600080fd5b506100a161055f565b6100a161015f366004611133565b6105df565b34801561017057600080fd5b506100a161017f36600461114c565b60026020526000908152604090205481565b6100a161076d565b6000806101a68386611192565b905060006101b486866111af565b90506101c081836111c2565b9695505050505050565b3360009081526002602052604081205481908311156102565760405162461bcd60e51b815260206004820152603c60248201527f77697468647261773a2073656e64657220646f6573206e6f742068617665206560448201527f6e6f756768206c697175696469747920746f2077697468647261772e0000000060648201526084015b60405180910390fd5b600080546040516370a0823160e01b81523060048201524792916001600160a01b0316906370a0823190602401602060405180830381865afa1580156102a0573d6000803e3d6000fd5b505050506040513d601f19601f820116820180604052508101906102c491906111e4565b9050600060015483876102d79190611192565b6102e191906111c2565b6001549091506102f18388611192565b6102fb91906111c2565b3360009081526002602052604081208054929650889290919061031f9084906111fd565b92505081905550856001600082825461033891906111fd565b9091555050604051600090339083908381818185875af1925050503d806000811461037f576040519150601f19603f3d011682016040523d82523d6000602084013e610384565b606091505b50509050806103ec5760405162461bcd60e51b815260206004820152602e60248201527f776974686472617728293a2072657665727420696e207472616e73666572726960448201526d6e672065746820746f20796f752160901b606482015260840161024d565b60005460405163a9059cbb60e01b8152336004820152602481018790526001600160a01b039091169063a9059cbb906044016020604051808303816000875af115801561043d573d6000803e3d6000fd5b505050506040513d601f19601f820116820180604052508101906104619190611210565b61046a57600080fd5b6040805133815260208101899052908101869052606081018390527f1dc8bb69df2b8e91fbdcbfcf93d951b3f0000f085a95fe3f7946d6161439245d9060800160405180910390a181955050505050915091565b6000806104cb8486611192565b905060006104d986856111fd565b90506104e581836111c2565b6101c09060016111af565b6000803411801561050057503482145b156105145761050d610b07565b9050610520565b61051d82610cf8565b90505b7f66cbca4f3c64fecf1dcb9ce094abcf7f68c3450a1d4e3a8e917dd621edb4ebe061054961055f565b60405190815260200160405180910390a1919050565b600080546040516370a0823160e01b81523060048201526105da91670de0b6b3a76400009147916001600160a01b0316906370a0823190602401602060405180830381865afa1580156105b6573d6000803e3d6000fd5b505050506040513d601f19601f820116820180604052508101906100cf91906111e4565b905090565b600060015460001461063d5760405162461bcd60e51b815260206004820152602160248201527f4445583a20696e6974202d20616c726561647920686173206c697175696469746044820152607960f81b606482015260840161024d565b47600181905533600081815260026020526040808220939093555491516323b872dd60e01b81526004810191909152306024820152604481018490526001600160a01b03909116906323b872dd906064016020604051808303816000875af11580156106ad573d6000803e3d6000fd5b505050506040513d601f19601f820116820180604052508101906106d19190611210565b61072b5760405162461bcd60e51b815260206004820152602560248201527f4445583a20696e6974202d207472616e7366657220646964206e6f74207472616044820152641b9cd858dd60da1b606482015260840161024d565b7f66cbca4f3c64fecf1dcb9ce094abcf7f68c3450a1d4e3a8e917dd621edb4ebe061075461055f565b60405190815260200160405180910390a1505060015490565b60008034116107be5760405162461bcd60e51b815260206004820152601f60248201527f4d7573742073656e642076616c7565207768656e206465706f736974696e6700604482015260640161024d565b60006107ca34476111fd565b600080546040516370a0823160e01b815230600482015292935090916001600160a01b03909116906370a0823190602401602060405180830381865afa158015610818573d6000803e3d6000fd5b505050506040513d601f19601f8201168201806040525081019061083c91906111e4565b905060008261084b8334611192565b61085591906111c2565b6108609060016111af565b6000546040516370a0823160e01b815233600482015291925082916001600160a01b03909116906370a0823190602401602060405180830381865afa1580156108ad573d6000803e3d6000fd5b505050506040513d601f19601f820116820180604052508101906108d191906111e4565b101561091f5760405162461bcd60e51b815260206004820152601a60248201527f696e73756666696369656e7420746f6b656e2062616c616e6365000000000000604482015260640161024d565b600054604051636eb1769f60e11b815233600482015230602482015282916001600160a01b03169063dd62ed3e90604401602060405180830381865afa15801561096d573d6000803e3d6000fd5b505050506040513d601f19601f8201168201806040525081019061099191906111e4565b10156109d85760405162461bcd60e51b8152602060048201526016602482015275696e73756666696369656e7420616c6c6f77616e636560501b604482015260640161024d565b600083600154346109e99190611192565b6109f391906111c2565b33600090815260026020526040812080549293508392909190610a179084906111af565b925050819055508060016000828254610a3091906111af565b90915550506000546040516323b872dd60e01b8152336004820152306024820152604481018490526001600160a01b03909116906323b872dd906064016020604051808303816000875af1158015610a8c573d6000803e3d6000fd5b505050506040513d601f19601f82011682018060405250810190610ab09190611210565b610ab957600080fd5b604080513381526020810183905234818301526060810184905290517f3bca7014f4c0ccc8016338c79f4c00e82068dbadaf4f01ca5449040fdd39f5009181900360800190a1509392505050565b6000803411610b4c5760405162461bcd60e51b81526020600482015260116024820152700c6c2dcdcdee840e6eec2e04060408aa89607b1b604482015260640161024d565b6000610b5834476111fd565b600080546040516370a0823160e01b815230600482015292935090916001600160a01b03909116906370a0823190602401602060405180830381865afa158015610ba6573d6000803e3d6000fd5b505050506040513d601f19601f82011682018060405250810190610bca91906111e4565b9050610bd7348383610199565b60005460405163a9059cbb60e01b8152336004820152602481018390529194506001600160a01b03169063a9059cbb906044016020604051808303816000875af1158015610c29573d6000803e3d6000fd5b505050506040513d601f19601f82011682018060405250810190610c4d9190611210565b610c995760405162461bcd60e51b815260206004820152601c60248201527f657468546f546f6b656e28293a20726576657274656420737761702e00000000604482015260640161024d565b6000805460408051338152602081019390935234908301526001600160a01b03166060820152608081018490527f5380cf97d8f645d3c4896da60c053458dca03a3a31cec642ac80e1ddf0d8d02a9060a00160405180910390a1505090565b6000808211610d405760405162461bcd60e51b815260206004820152601460248201527363616e6e6f742073776170203020746f6b656e7360601b604482015260640161024d565b6000546040516370a0823160e01b815233600482015283916001600160a01b0316906370a0823190602401602060405180830381865afa158015610d88573d6000803e3d6000fd5b505050506040513d601f19601f82011682018060405250810190610dac91906111e4565b1015610dfa5760405162461bcd60e51b815260206004820152601a60248201527f696e73756666696369656e7420746f6b656e2062616c616e6365000000000000604482015260640161024d565b600054604051636eb1769f60e11b815233600482015230602482015283916001600160a01b03169063dd62ed3e90604401602060405180830381865afa158015610e48573d6000803e3d6000fd5b505050506040513d601f19601f82011682018060405250810190610e6c91906111e4565b1015610eb35760405162461bcd60e51b8152602060048201526016602482015275696e73756666696369656e7420616c6c6f77616e636560501b604482015260640161024d565b600080546040516370a0823160e01b81523060048201526001600160a01b03909116906370a0823190602401602060405180830381865afa158015610efc573d6000803e3d6000fd5b505050506040513d601f19601f82011682018060405250810190610f2091906111e4565b9050610f2d838247610199565b6000546040516323b872dd60e01b8152336004820152306024820152604481018690529193506001600160a01b0316906323b872dd906064016020604051808303816000875af1158015610f85573d6000803e3d6000fd5b505050506040513d601f19601f82011682018060405250810190610fa99190611210565b610ff55760405162461bcd60e51b815260206004820152601c60248201527f746f6b656e546f45746828293a20726576657274656420737761702e00000000604482015260640161024d565b604051600090339084908381818185875af1925050503d8060008114611037576040519150601f19603f3d011682016040523d82523d6000602084013e61103c565b606091505b50509050806110a45760405162461bcd60e51b815260206004820152602e60248201527f746f6b656e546f4574683a2072657665727420696e207472616e73666572726960448201526d6e672065746820746f20796f752160901b606482015260840161024d565b60008054604080513381526001600160a01b03909216602083015281018690526060810191909152608081018490527f5380cf97d8f645d3c4896da60c053458dca03a3a31cec642ac80e1ddf0d8d02a9060a00160405180910390a15050919050565b60008060006060848603121561111c57600080fd5b505081359360208301359350604090920135919050565b60006020828403121561114557600080fd5b5035919050565b60006020828403121561115e57600080fd5b81356001600160a01b038116811461117557600080fd5b9392505050565b634e487b7160e01b600052601160045260246000fd5b80820281158282048414176111a9576111a961117c565b92915050565b808201808211156111a9576111a961117c565b6000826111df57634e487b7160e01b600052601260045260246000fd5b500490565b6000602082840312156111f657600080fd5b5051919050565b818103818111156111a9576111a961117c565b60006020828403121561122257600080fd5b8151801515811461117557600080fdfea26469706673582212200b60663011a32abbef37c13efc570c261d6b9546009be1ec9e9df59966eba68f64736f6c63430008140033",
  "devdoc": {
    "kind": "dev",
    "methods": {
      "init(uint256)": {
        "params": {
          "tokens": "amount to be transferred to DEX"
        },
        "returns": {
          "_0": "totalLiquidity is the number of LPTs minting as a result of deposits made to DEX contract NOTE: since ratio is 1:1, this is fine to initialize the totalLiquidity as equal to eth balance of contract."
        }
      }
    },
    "version": 1
  },
  "userdoc": {
    "events": {
      "LiquidityProvided(address,uint256,uint256,uint256)": {
        "notice": "Emitted when liquidity provided to DEX and mints LPTs."
      },
      "LiquidityRemoved(address,uint256,uint256,uint256)": {
        "notice": "Emitted when liquidity removed from DEX and decreases LPT count within DEX."
      }
    },
    "kind": "user",
    "methods": {
      "calculateXInput(uint256,uint256,uint256)": {
        "notice": "returns the amount you need to put in (xInput) when given the amount of yOutput you want along with the reserves of both assets in the pool"
      },
      "currentPrice()": {
        "notice": "returns the current price of ETH in $MyUSD"
      },
      "deposit()": {
        "notice": "allows deposits of $MyUSD and $ETH to liquidity pool NOTE: parameter is the msg.value sent with this function call. That amount is used to determine the amount of $MyUSD needed as well and taken from the depositor. NOTE: user has to make sure to give DEX approval to spend their tokens on their behalf by calling approve function prior to this function call. NOTE: Equal parts of both assets will be removed from the user's wallet with respect to the price outlined by the AMM."
      },
      "init(uint256)": {
        "notice": "initializes amount of tokens that will be transferred to the DEX itself from the erc20 contract. Loads contract up with both ETH and MyUSD."
      },
      "price(uint256,uint256,uint256)": {
        "notice": "returns the amount you should receive (yOutput) when given the reserves of both assets in the pool"
      },
      "swap(uint256)": {
        "notice": "allows users to swap ETH for $MyUSD or $MyUSD for ETH with a single method"
      },
      "withdraw(uint256)": {
        "notice": "allows withdrawal of $MyUSD and $ETH from liquidity pool NOTE: with this current code, the msg caller could end up getting very little back if the liquidity is super low in the pool. I guess they could see that with the UI."
      }
    },
    "notice": "Simple DEX contract that allows users to swap ETH for MyUSD and MyUSD for ETH",
    "version": 1
  },
  "storageLayout": {
    "storage": [
      {
        "astId": 1055,
        "contract": "contracts/DEX.sol:DEX",
        "label": "token",
        "offset": 0,
        "slot": "0",
        "type": "t_contract(IERC20)877"
      },
      {
        "astId": 1057,
        "contract": "contracts/DEX.sol:DEX",
        "label": "totalLiquidity",
        "offset": 0,
        "slot": "1",
        "type": "t_uint256"
      },
      {
        "astId": 1061,
        "contract": "contracts/DEX.sol:DEX",
        "label": "liquidity",
        "offset": 0,
        "slot": "2",
        "type": "t_mapping(t_address,t_uint256)"
      }
    ],
    "types": {
      "t_address": {
        "encoding": "inplace",
        "label": "address",
        "numberOfBytes": "20"
      },
      "t_contract(IERC20)877": {
        "encoding": "inplace",
        "label": "contract IERC20",
        "numberOfBytes": "20"
      },
      "t_mapping(t_address,t_uint256)": {
        "encoding": "mapping",
        "key": "t_address",
        "label": "mapping(address => uint256)",
        "numberOfBytes": "32",
        "value": "t_uint256"
      },
      "t_uint256": {
        "encoding": "inplace",
        "label": "uint256",
        "numberOfBytes": "32"
      }
    }
  }
}