{
  "address": "0xB8F7021D241EEdE32C35B78d7E31C3C1974a5a4c",
  "abi": [
    {
      "inputs": [
        {
          "internalType": "address",
          "name": "_oracle",
          "type": "address"
        },
        {
          "internalType": "address",
          "name": "_myUSDAddress",
          "type": "address"
        },
        {
          "internalType": "address",
          "name": "_stakingAddress",
          "type": "address"
        },
        {
          "internalType": "address",
          "name": "_rateController",
          "type": "address"
        }
      ],
      "stateMutability": "nonpayable",
      "type": "constructor"
    },
    {
      "inputs": [],
      "name": "Engine__InsufficientCollateral",
      "type": "error"
    },
    {
      "inputs": [],
      "name": "Engine__InvalidAmount",
      "type": "error"
    },
    {
      "inputs": [],
      "name": "Engine__InvalidBorrowRate",
      "type": "error"
    },
    {
      "inputs": [],
      "name": "Engine__NotLiquidatable",
      "type": "error"
    },
    {
      "inputs": [],
      "name": "Engine__NotRateController",
      "type": "error"
    },
    {
      "inputs": [],
      "name": "Engine__TransferFailed",
      "type": "error"
    },
    {
      "inputs": [],
      "name": "Engine__UnsafePositionRatio",
      "type": "error"
    },
    {
      "inputs": [],
      "name": "MyUSD__InsufficientAllowance",
      "type": "error"
    },
    {
      "inputs": [],
      "name": "MyUSD__InsufficientBalance",
      "type": "error"
    },
    {
      "inputs": [
        {
          "internalType": "address",
          "name": "owner",
          "type": "address"
        }
      ],
      "name": "OwnableInvalidOwner",
      "type": "error"
    },
    {
      "inputs": [
        {
          "internalType": "address",
          "name": "account",
          "type": "address"
        }
      ],
      "name": "OwnableUnauthorizedAccount",
      "type": "error"
    },
    {
      "anonymous": false,
      "inputs": [
        {
          "indexed": false,
          "internalType": "uint256",
          "name": "newRate",
          "type": "uint256"
        }
      ],
      "name": "BorrowRateUpdated",
      "type": "event"
    },
    {
      "anonymous": false,
      "inputs": [
        {
          "indexed": true,
          "internalType": "address",
          "name": "user",
          "type": "address"
        },
        {
          "indexed": true,
          "internalType": "uint256",
          "name": "amount",
          "type": "uint256"
        },
        {
          "indexed": false,
          "internalType": "uint256",
          "name": "price",
          "type": "uint256"
        }
      ],
      "name": "CollateralAdded",
      "type": "event"
    },
    {
      "anonymous": false,
      "inputs": [
        {
          "indexed": true,
          "internalType": "address",
          "name": "withdrawer",
          "type": "address"
        },
        {
          "indexed": true,
          "internalType": "uint256",
          "name": "amount",
          "type": "uint256"
        },
        {
          "indexed": false,
          "internalType": "uint256",
          "name": "price",
          "type": "uint256"
        }
      ],
      "name": "CollateralWithdrawn",
      "type": "event"
    },
    {
      "anonymous": false,
      "inputs": [
        {
          "indexed": true,
          "internalType": "address",
          "name": "user",
          "type": "address"
        },
        {
          "indexed": false,
          "internalType": "uint256",
          "name": "amount",
          "type": "uint256"
        },
        {
          "indexed": false,
          "internalType": "uint256",
          "name": "shares",
          "type": "uint256"
        }
      ],
      "name": "DebtSharesBurned",
      "type": "event"
    },
    {
      "anonymous": false,
      "inputs": [
        {
          "indexed": true,
          "internalType": "address",
          "name": "user",
          "type": "address"
        },
        {
          "indexed": false,
          "internalType": "uint256",
          "name": "amount",
          "type": "uint256"
        },
        {
          "indexed": false,
          "internalType": "uint256",
          "name": "shares",
          "type": "uint256"
        }
      ],
      "name": "DebtSharesMinted",
      "type": "event"
    },
    {
      "anonymous": false,
      "inputs": [
        {
          "indexed": true,
          "internalType": "address",
          "name": "user",
          "type": "address"
        },
        {
          "indexed": true,
          "internalType": "address",
          "name": "liquidator",
          "type": "address"
        },
        {
          "indexed": false,
          "internalType": "uint256",
          "name": "amountForLiquidator",
          "type": "uint256"
        },
        {
          "indexed": false,
          "internalType": "uint256",
          "name": "liquidatedUserDebt",
          "type": "uint256"
        },
        {
          "indexed": false,
          "internalType": "uint256",
          "name": "price",
          "type": "uint256"
        }
      ],
      "name": "Liquidation",
      "type": "event"
    },
    {
      "anonymous": false,
      "inputs": [
        {
          "indexed": true,
          "internalType": "address",
          "name": "previousOwner",
          "type": "address"
        },
        {
          "indexed": true,
          "internalType": "address",
          "name": "newOwner",
          "type": "address"
        }
      ],
      "name": "OwnershipTransferred",
      "type": "event"
    },
    {
      "inputs": [],
      "name": "addCollateral",
      "outputs": [],
      "stateMutability": "payable",
      "type": "function"
    },
    {
      "inputs": [],
      "name": "borrowRate",
      "outputs": [
        {
          "internalType": "uint256",
          "name": "",
          "type": "uint256"
        }
      ],
      "stateMutability": "view",
      "type": "function"
    },
    {
      "inputs": [
        {
          "internalType": "address",
          "name": "user",
          "type": "address"
        }
      ],
      "name": "calculateCollateralValue",
      "outputs": [
        {
          "internalType": "uint256",
          "name": "",
          "type": "uint256"
        }
      ],
      "stateMutability": "view",
      "type": "function"
    },
    {
      "inputs": [
        {
          "internalType": "address",
          "name": "user",
          "type": "address"
        }
      ],
      "name": "calculatePositionRatio",
      "outputs": [
        {
          "internalType": "uint256",
          "name": "",
          "type": "uint256"
        }
      ],
      "stateMutability": "view",
      "type": "function"
    },
    {
      "inputs": [],
      "name": "debtExchangeRate",
      "outputs": [
        {
          "internalType": "uint256",
          "name": "",
          "type": "uint256"
        }
      ],
      "stateMutability": "view",
      "type": "function"
    },
    {
      "inputs": [
        {
          "internalType": "address",
          "name": "user",
          "type": "address"
        }
      ],
      "name": "getCurrentDebtValue",
      "outputs": [
        {
          "internalType": "uint256",
          "name": "",
          "type": "uint256"
        }
      ],
      "stateMutability": "view",
      "type": "function"
    },
    {
      "inputs": [
        {
          "internalType": "address",
          "name": "user",
          "type": "address"
        }
      ],
      "name": "isLiquidatable",
      "outputs": [
        {
          "internalType": "bool",
          "name": "",
          "type": "bool"
        }
      ],
      "stateMutability": "view",
      "type": "function"
    },
    {
      "inputs": [],
      "name": "lastUpdateTime",
      "outputs": [
        {
          "internalType": "uint256",
          "name": "",
          "type": "uint256"
        }
      ],
      "stateMutability": "view",
      "type": "function"
    },
    {
      "inputs": [
        {
          "internalType": "address",
          "name": "user",
          "type": "address"
        }
      ],
      "name": "liquidate",
      "outputs": [],
      "stateMutability": "nonpayable",
      "type": "function"
    },
    {
      "inputs": [
        {
          "internalType": "uint256",
          "name": "mintAmount",
          "type": "uint256"
        }
      ],
      "name": "mintMyUSD",
      "outputs": [],
      "stateMutability": "nonpayable",
      "type": "function"
    },
    {
      "inputs": [],
      "name": "owner",
      "outputs": [
        {
          "internalType": "address",
          "name": "",
          "type": "address"
        }
      ],
      "stateMutability": "view",
      "type": "function"
    },
    {
      "inputs": [],
      "name": "renounceOwnership",
      "outputs": [],
      "stateMutability": "nonpayable",
      "type": "function"
    },
    {
      "inputs": [
        {
          "internalType": "uint256",
          "name": "amount",
          "type": "uint256"
        }
      ],
      "name": "repayUpTo",
      "outputs": [],
      "stateMutability": "nonpayable",
      "type": "function"
    },
    {
      "inputs": [
        {
          "internalType": "address",
          "name": "",
          "type": "address"
        }
      ],
      "name": "s_userCollateral",
      "outputs": [
        {
          "internalType": "uint256",
          "name": "",
          "type": "uint256"
        }
      ],
      "stateMutability": "view",
      "type": "function"
    },
    {
      "inputs": [
        {
          "internalType": "address",
          "name": "",
          "type": "address"
        }
      ],
      "name": "s_userDebtShares",
      "outputs": [
        {
          "internalType": "uint256",
          "name": "",
          "type": "uint256"
        }
      ],
      "stateMutability": "view",
      "type": "function"
    },
    {
      "inputs": [
        {
          "internalType": "uint256",
          "name": "newRate",
          "type": "uint256"
        }
      ],
      "name": "setBorrowRate",
      "outputs": [],
      "stateMutability": "nonpayable",
      "type": "function"
    },
    {
      "inputs": [],
      "name": "totalDebtShares",
      "outputs": [
        {
          "internalType": "uint256",
          "name": "",
          "type": "uint256"
        }
      ],
      "stateMutability": "view",
      "type": "function"
    },
    {
      "inputs": [
        {
          "internalType": "address",
          "name": "newOwner",
          "type": "address"
        }
      ],
      "name": "transferOwnership",
      "outputs": [],
      "stateMutability": "nonpayable",
      "type": "function"
    },
    {
      "inputs": [
        {
          "internalType": "uint256",
          "name": "amount",
          "type": "uint256"
        }
      ],
      "name": "withdrawCollateral",
      "outputs": [],
      "stateMutability": "nonpayable",
      "type": "function"
    }
  ],
  "transactionHash": "0xbbc71f981b268e3f4b2b9061acbbc40834c4477a4d131470a79cabea9e540bb0",
  "args": [
    "0x2db0a7136e3a11CdF79151934eDb7bae04f6e00B",
    "0xC38d03246eA312d429846281f0101A53A8190447",
    "0xb0424bda185f1F88ccFc6BAD966d74304AE788cD",
    "0xD7e927F1f82F507c0cC78e7C0B98DF8E61c5F29A"
  ],
  "numDeployments": 1,
  "solcInputHash": "a18583e629a479745e6737d086cbda69",
  "bytecode": "0x60806040523480156200001157600080fd5b50604051620014ce380380620014ce833981016040819052620000349162000138565b33806200005b57604051631e4fbdf760e01b81526000600482015260240160405180910390fd5b6200006681620000cb565b50600280546001600160a01b039586166001600160a01b031991821617909155600180549486169482169490941790935560038054928516928416929092179091556004805491909316911617905542600855670de0b6b3a764000060075562000195565b600080546001600160a01b038381166001600160a01b0319831681178455604051919092169283917f8be0079c531659141344cd1fd0a4f28419497f9722a3daafe3b4186f6b6457e09190a35050565b80516001600160a01b03811681146200013357600080fd5b919050565b600080600080608085870312156200014f57600080fd5b6200015a856200011b565b93506200016a602086016200011b565b92506200017a604086016200011b565b91506200018a606086016200011b565b905092959194509250565b61132980620001a56000396000f3fe6080604052600436106101145760003560e01c80638da5cb5b116100a0578063c914b43711610064578063c914b437146102d2578063d55b7cde146102e8578063d93f942a14610308578063dd3eaf0414610335578063f2fde38b1461035557600080fd5b80638da5cb5b146102495780639e81699914610271578063b5ed350d14610279578063bd00c24d1461028f578063c8f33c91146102bc57600080fd5b80632f865568116100e75780632f865568146101b25780636112fe2e146101d4578063715018a6146101f457806384d26f8a146102095780638d250a6f1461022957600080fd5b8063042e02cf146101195780630835e1451461014e5780631b859e411461017c5780632ed77d0814610192575b600080fd5b34801561012557600080fd5b506101396101343660046111fb565b610375565b60405190151581526020015b60405180910390f35b34801561015a57600080fd5b5061016e6101693660046111fb565b6103a9565b604051908152602001610145565b34801561018857600080fd5b5061016e60065481565b34801561019e57600080fd5b5061016e6101ad3660046111fb565b61044f565b3480156101be57600080fd5b506101d26101cd3660046111fb565b6104a1565b005b3480156101e057600080fd5b506101d26101ef366004611224565b610874565b34801561020057600080fd5b506101d26109f4565b34801561021557600080fd5b506101d2610224366004611224565b610a08565b34801561023557600080fd5b506101d2610244366004611224565b610c50565b34801561025557600080fd5b506000546040516001600160a01b039091168152602001610145565b6101d2610d76565b34801561028557600080fd5b5061016e60075481565b34801561029b57600080fd5b5061016e6102aa3660046111fb565b60096020526000908152604090205481565b3480156102c857600080fd5b5061016e60085481565b3480156102de57600080fd5b5061016e60055481565b3480156102f457600080fd5b5061016e6103033660046111fb565b610e73565b34801561031457600080fd5b5061016e6103233660046111fb565b600a6020526000908152604090205481565b34801561034157600080fd5b506101d2610350366004611224565b610ed5565b34801561036157600080fd5b506101d26103703660046111fb565b610fda565b6000806103818361044f565b9050610396670de0b6b3a76400006096611253565b6103a1826064611253565b109392505050565b6001600160a01b03808216600090815260096020908152604080832054600254825163aa13d0b560e01b8152925194959194670de0b6b3a764000094919092169263aa13d0b592600480830193928290030181865afa158015610410573d6000803e3d6000fd5b505050506040513d601f19601f820116820180604052508101906104349190611270565b61043e9083611253565b6104489190611289565b9392505050565b60008061045b83610e73565b90508060000361046f575060001992915050565b600061047a846103a9565b90508161048f670de0b6b3a764000083611253565b6104999190611289565b949350505050565b6104aa81610375565b6104c7576040516330b6c2c160e11b815260040160405180910390fd5b60006104d282610e73565b6001600160a01b0383166000908152600960205260408120549192506104f7846103a9565b6001546040516370a0823160e01b815233600482015291925084916001600160a01b03909116906370a0823190602401602060405180830381865afa158015610544573d6000803e3d6000fd5b505050506040513d601f19601f820116820180604052508101906105689190611270565b1015610587576040516325154c9560e21b815260040160405180910390fd5b600154604051636eb1769f60e11b815233600482015230602482015284916001600160a01b03169063dd62ed3e90604401602060405180830381865afa1580156105d5573d6000803e3d6000fd5b505050506040513d601f19601f820116820180604052508101906105f99190611270565b1015610617576040516221fc5760e71b815260040160405180910390fd5b60015460405163079cc67960e41b8152336004820152602481018590526001600160a01b03909116906379cc679090604401600060405180830381600087803b15801561066357600080fd5b505af1158015610677573d6000803e3d6000fd5b5050506001600160a01b0385166000908152600a60205260408120546006805491935091906106a79084906112ab565b90915550506001600160a01b0384166000908152600a60205260408120819055816106d28486611253565b6106dc9190611289565b9050600060646106ed600a84611253565b6106f79190611289565b9050600061070582846112be565b9050848111156107125750835b61071c81866112ab565b6001600160a01b038816600090815260096020526040808220929092559051339083908381818185875af1925050503d8060008114610777576040519150601f19603f3d011682016040523d82523d6000602084013e61077c565b606091505b505090508061079e576040516347a867b760e01b815260040160405180910390fd5b336001600160a01b0316886001600160a01b03167f5a821a618ddb1a1fd304234a69c9d7f20c129d122fcf35593d13a07192664307848a600260009054906101000a90046001600160a01b03166001600160a01b031663aa13d0b56040518163ffffffff1660e01b8152600401602060405180830381865afa158015610828573d6000803e3d6000fd5b505050506040513d601f19601f8201168201806040525081019061084c9190611270565b6040805193845260208401929092529082015260600160405180910390a35050505050505050565b80600003610895576040516375ec6b4760e01b815260040160405180910390fd5b336000908152600960205260409020548111156108c55760405163edee196d60e01b815260040160405180910390fd5b336000908152600960205260408120546108e09083906112ab565b336000908152600960209081526040808320849055600a9091529020549091501561090e5761090e3361101d565b604051339083156108fc029084906000818181858888f1935050505015801561093b573d6000803e3d6000fd5b5081336001600160a01b03167fdaed309a628faec6cab72194019e2a1a34e890ca9bf9be99788992dd54692819600260009054906101000a90046001600160a01b03166001600160a01b031663aa13d0b56040518163ffffffff1660e01b8152600401602060405180830381865afa1580156109bb573d6000803e3d6000fd5b505050506040513d601f19601f820116820180604052508101906109df9190611270565b60405190815260200160405180910390a35050565b6109fc61106b565b610a066000611098565b565b6000610a13826110e8565b336000908152600a6020526040902054909150811115610a4b5750336000818152600a602052604090205490610a4890610e73565b91505b811580610ac157506001546040516370a0823160e01b815233600482015283916001600160a01b0316906370a0823190602401602060405180830381865afa158015610a9b573d6000803e3d6000fd5b505050506040513d601f19601f82011682018060405250810190610abf9190611270565b105b15610adf576040516325154c9560e21b815260040160405180910390fd5b600154604051636eb1769f60e11b815233600482015230602482015283916001600160a01b03169063dd62ed3e90604401602060405180830381865afa158015610b2d573d6000803e3d6000fd5b505050506040513d601f19601f82011682018060405250810190610b519190611270565b1015610b6f576040516221fc5760e71b815260040160405180910390fd5b336000908152600a602052604081208054839290610b8e9084906112ab565b925050819055508060066000828254610ba791906112ab565b909155505060015460405163079cc67960e41b8152336004820152602481018490526001600160a01b03909116906379cc679090604401600060405180830381600087803b158015610bf857600080fd5b505af1158015610c0c573d6000803e3d6000fd5b505060408051858152602081018590523393507fb4f416a7e6af544346b169a93907ab63ba82db8c2ad267251b5c19c55580075c9250015b60405180910390a25050565b80600003610c71576040516375ec6b4760e01b815260040160405180910390fd5b6000610c7c826110e8565b336000908152600a6020526040812080549293508392909190610ca09084906112be565b925050819055508060066000828254610cb991906112be565b90915550610cc890503361101d565b6001546040516308934a5f60e31b8152336004820152602481018490526001600160a01b039091169063449a52f8906044016020604051808303816000875af1158015610d19573d6000803e3d6000fd5b505050506040513d601f19601f82011682018060405250810190610d3d91906112d1565b50604080518381526020810183905233917f53adc116a5b97aaef74196f7a7b2e5b7c4863414770ccac0b40d42fda70e32ae9101610c44565b34600003610d97576040516375ec6b4760e01b815260040160405180910390fd5b3360009081526009602052604081208054349290610db69084906112be565b9250508190555034336001600160a01b03167f11f8990ac38271f23dea447d5728e9914fca7cea2edda43af6c43c415f8bc30b600260009054906101000a90046001600160a01b03166001600160a01b031663aa13d0b56040518163ffffffff1660e01b8152600401602060405180830381865afa158015610e3c573d6000803e3d6000fd5b505050506040513d601f19601f82011682018060405250810190610e609190611270565b60405190815260200160405180910390a3565b6001600160a01b0381166000908152600a60205260408120548103610e9a57506000919050565b6000610ea4611108565b6001600160a01b0384166000908152600a6020526040902054909150670de0b6b3a76400009061043e908390611253565b6004546001600160a01b03163314610f0057604051632e63a58160e21b815260040160405180910390fd5b600360009054906101000a90046001600160a01b03166001600160a01b0316636ecd067f6040518163ffffffff1660e01b8152600401602060405180830381865afa158015610f53573d6000803e3d6000fd5b505050506040513d601f19601f82011682018060405250810190610f779190611270565b811015610f9757604051630acdfa5760e01b815260040160405180910390fd5b610f9f6111da565b60058190556040518181527f578adda73f5b431118629e4fc78f890d645ad2613a5260bddc23fa48065b940a9060200160405180910390a150565b610fe261106b565b6001600160a01b03811661101157604051631e4fbdf760e01b8152600060048201526024015b60405180910390fd5b61101a81611098565b50565b60006110288261044f565b905061103d670de0b6b3a76400006096611253565b611048826064611253565b10156110675760405163251d13b760e21b815260040160405180910390fd5b5050565b6000546001600160a01b03163314610a065760405163118cdaa760e01b8152336004820152602401611008565b600080546001600160a01b038381166001600160a01b0319831681178455604051919092169283917f8be0079c531659141344cd1fd0a4f28419497f9722a3daafe3b4186f6b6457e09190a35050565b6000806110f3611108565b90508061043e670de0b6b3a764000085611253565b600060065460000361111b575060075490565b60006008544261112b91906112ab565b905080158061113a5750600554155b1561114757505060075490565b6000670de0b6b3a76400006007546006546111629190611253565b61116c9190611289565b905060006111806301e13380612710611253565b836005548461118f9190611253565b6111999190611253565b6111a39190611289565b6006549091506111bb670de0b6b3a764000083611253565b6111c59190611289565b6007546111d291906112be565b935050505090565b6006546000036111ea5742600855565b6111f2611108565b60075542600855565b60006020828403121561120d57600080fd5b81356001600160a01b038116811461044857600080fd5b60006020828403121561123657600080fd5b5035919050565b634e487b7160e01b600052601160045260246000fd5b808202811582820484141761126a5761126a61123d565b92915050565b60006020828403121561128257600080fd5b5051919050565b6000826112a657634e487b7160e01b600052601260045260246000fd5b500490565b8181038181111561126a5761126a61123d565b8082018082111561126a5761126a61123d565b6000602082840312156112e357600080fd5b8151801515811461044857600080fdfea26469706673582212202d6d7e956ec4584c61743d6675e259913d0d034ff1878232a441a095720e373a64736f6c63430008140033",
  "devdoc": {
    "errors": {
      "OwnableInvalidOwner(address)": [
        {
          "details": "The owner is not a valid owner account. (eg. `address(0)`)"
        }
      ],
      "OwnableUnauthorizedAccount(address)": [
        {
          "details": "The caller account is not authorized to perform an operation."
        }
      ]
    },
    "kind": "dev",
    "methods": {
      "owner()": {
        "details": "Returns the address of the current owner."
      },
      "renounceOwnership()": {
        "details": "Leaves the contract without owner. It will not be possible to call `onlyOwner` functions. Can only be called by the current owner. NOTE: Renouncing ownership will leave the contract without an owner, thereby disabling any functionality that is only available to the owner."
      },
      "transferOwnership(address)": {
        "details": "Transfers ownership of the contract to a new account (`newOwner`). Can only be called by the current owner."
      }
    },
    "version": 1
  },
  "userdoc": {
    "kind": "user",
    "methods": {},
    "version": 1
  },
  "storageLayout": {
    "storage": [
      {
        "astId": 8,
        "contract": "contracts/MyUSDEngine.sol:MyUSDEngine",
        "label": "_owner",
        "offset": 0,
        "slot": "0",
        "type": "t_address"
      },
      {
        "astId": 1969,
        "contract": "contracts/MyUSDEngine.sol:MyUSDEngine",
        "label": "i_myUSD",
        "offset": 0,
        "slot": "1",
        "type": "t_contract(MyUSD)1932"
      },
      {
        "astId": 1972,
        "contract": "contracts/MyUSDEngine.sol:MyUSDEngine",
        "label": "i_oracle",
        "offset": 0,
        "slot": "2",
        "type": "t_contract(Oracle)3314"
      },
      {
        "astId": 1975,
        "contract": "contracts/MyUSDEngine.sol:MyUSDEngine",
        "label": "i_staking",
        "offset": 0,
        "slot": "3",
        "type": "t_contract(MyUSDStaking)3256"
      },
      {
        "astId": 1977,
        "contract": "contracts/MyUSDEngine.sol:MyUSDEngine",
        "label": "i_rateController",
        "offset": 0,
        "slot": "4",
        "type": "t_address"
      },
      {
        "astId": 1979,
        "contract": "contracts/MyUSDEngine.sol:MyUSDEngine",
        "label": "borrowRate",
        "offset": 0,
        "slot": "5",
        "type": "t_uint256"
      },
      {
        "astId": 1981,
        "contract": "contracts/MyUSDEngine.sol:MyUSDEngine",
        "label": "totalDebtShares",
        "offset": 0,
        "slot": "6",
        "type": "t_uint256"
      },
      {
        "astId": 1983,
        "contract": "contracts/MyUSDEngine.sol:MyUSDEngine",
        "label": "debtExchangeRate",
        "offset": 0,
        "slot": "7",
        "type": "t_uint256"
      },
      {
        "astId": 1985,
        "contract": "contracts/MyUSDEngine.sol:MyUSDEngine",
        "label": "lastUpdateTime",
        "offset": 0,
        "slot": "8",
        "type": "t_uint256"
      },
      {
        "astId": 1989,
        "contract": "contracts/MyUSDEngine.sol:MyUSDEngine",
        "label": "s_userCollateral",
        "offset": 0,
        "slot": "9",
        "type": "t_mapping(t_address,t_uint256)"
      },
      {
        "astId": 1993,
        "contract": "contracts/MyUSDEngine.sol:MyUSDEngine",
        "label": "s_userDebtShares",
        "offset": 0,
        "slot": "10",
        "type": "t_mapping(t_address,t_uint256)"
      }
    ],
    "types": {
      "t_address": {
        "encoding": "inplace",
        "label": "address",
        "numberOfBytes": "20"
      },
      "t_contract(MyUSD)1932": {
        "encoding": "inplace",
        "label": "contract MyUSD",
        "numberOfBytes": "20"
      },
      "t_contract(MyUSDStaking)3256": {
        "encoding": "inplace",
        "label": "contract MyUSDStaking",
        "numberOfBytes": "20"
      },
      "t_contract(Oracle)3314": {
        "encoding": "inplace",
        "label": "contract Oracle",
        "numberOfBytes": "20"
      },
      "t_mapping(t_address,t_uint256)": {
        "encoding": "mapping",
        "key": "t_address",
        "label": "mapping(address => uint256)",
        "numberOfBytes": "32",
        "value": "t_uint256"
      },
      "t_uint256": {
        "encoding": "inplace",
        "label": "uint256",
        "numberOfBytes": "32"
      }
    }
  }
}