{
  "address": "0xb0424bda185f1F88ccFc6BAD966d74304AE788cD",
  "abi": [
    {
      "inputs": [
        {
          "internalType": "address",
          "name": "_myUSD",
          "type": "address"
        },
        {
          "internalType": "address",
          "name": "_engine",
          "type": "address"
        },
        {
          "internalType": "address",
          "name": "_rateController",
          "type": "address"
        }
      ],
      "stateMutability": "nonpayable",
      "type": "constructor"
    },
    {
      "inputs": [],
      "name": "MyUSD__InsufficientAllowance",
      "type": "error"
    },
    {
      "inputs": [],
      "name": "MyUSD__InsufficientBalance",
      "type": "error"
    },
    {
      "inputs": [
        {
          "internalType": "address",
          "name": "owner",
          "type": "address"
        }
      ],
      "name": "OwnableInvalidOwner",
      "type": "error"
    },
    {
      "inputs": [
        {
          "internalType": "address",
          "name": "account",
          "type": "address"
        }
      ],
      "name": "OwnableUnauthorizedAccount",
      "type": "error"
    },
    {
      "inputs": [],
      "name": "ReentrancyGuardReentrantCall",
      "type": "error"
    },
    {
      "inputs": [],
      "name": "Staking__EngineNotSet",
      "type": "error"
    },
    {
      "inputs": [],
      "name": "Staking__InsufficientBalance",
      "type": "error"
    },
    {
      "inputs": [],
      "name": "Staking__InvalidAmount",
      "type": "error"
    },
    {
      "inputs": [],
      "name": "Staking__InvalidSavingsRate",
      "type": "error"
    },
    {
      "inputs": [],
      "name": "Staking__NotRateController",
      "type": "error"
    },
    {
      "inputs": [],
      "name": "Staking__TransferFailed",
      "type": "error"
    },
    {
      "anonymous": false,
      "inputs": [
        {
          "indexed": true,
          "internalType": "address",
          "name": "previousOwner",
          "type": "address"
        },
        {
          "indexed": true,
          "internalType": "address",
          "name": "newOwner",
          "type": "address"
        }
      ],
      "name": "OwnershipTransferred",
      "type": "event"
    },
    {
      "anonymous": false,
      "inputs": [
        {
          "indexed": false,
          "internalType": "uint256",
          "name": "newRate",
          "type": "uint256"
        }
      ],
      "name": "SavingsRateUpdated",
      "type": "event"
    },
    {
      "anonymous": false,
      "inputs": [
        {
          "indexed": true,
          "internalType": "address",
          "name": "user",
          "type": "address"
        },
        {
          "indexed": false,
          "internalType": "uint256",
          "name": "amount",
          "type": "uint256"
        },
        {
          "indexed": false,
          "internalType": "uint256",
          "name": "shares",
          "type": "uint256"
        }
      ],
      "name": "Staked",
      "type": "event"
    },
    {
      "anonymous": false,
      "inputs": [
        {
          "indexed": true,
          "internalType": "address",
          "name": "user",
          "type": "address"
        },
        {
          "indexed": false,
          "internalType": "uint256",
          "name": "amount",
          "type": "uint256"
        },
        {
          "indexed": false,
          "internalType": "uint256",
          "name": "shares",
          "type": "uint256"
        }
      ],
      "name": "Withdrawn",
      "type": "event"
    },
    {
      "inputs": [],
      "name": "engine",
      "outputs": [
        {
          "internalType": "contract IMyUSDEngine",
          "name": "",
          "type": "address"
        }
      ],
      "stateMutability": "view",
      "type": "function"
    },
    {
      "inputs": [],
      "name": "exchangeRate",
      "outputs": [
        {
          "internalType": "uint256",
          "name": "",
          "type": "uint256"
        }
      ],
      "stateMutability": "view",
      "type": "function"
    },
    {
      "inputs": [
        {
          "internalType": "address",
          "name": "user",
          "type": "address"
        }
      ],
      "name": "getBalance",
      "outputs": [
        {
          "internalType": "uint256",
          "name": "",
          "type": "uint256"
        }
      ],
      "stateMutability": "view",
      "type": "function"
    },
    {
      "inputs": [
        {
          "internalType": "uint256",
          "name": "shares",
          "type": "uint256"
        }
      ],
      "name": "getSharesValue",
      "outputs": [
        {
          "internalType": "uint256",
          "name": "",
          "type": "uint256"
        }
      ],
      "stateMutability": "view",
      "type": "function"
    },
    {
      "inputs": [],
      "name": "lastUpdateTime",
      "outputs": [
        {
          "internalType": "uint256",
          "name": "",
          "type": "uint256"
        }
      ],
      "stateMutability": "view",
      "type": "function"
    },
    {
      "inputs": [],
      "name": "myUSD",
      "outputs": [
        {
          "internalType": "contract MyUSD",
          "name": "",
          "type": "address"
        }
      ],
      "stateMutability": "view",
      "type": "function"
    },
    {
      "inputs": [],
      "name": "owner",
      "outputs": [
        {
          "internalType": "address",
          "name": "",
          "type": "address"
        }
      ],
      "stateMutability": "view",
      "type": "function"
    },
    {
      "inputs": [],
      "name": "renounceOwnership",
      "outputs": [],
      "stateMutability": "nonpayable",
      "type": "function"
    },
    {
      "inputs": [],
      "name": "savingsRate",
      "outputs": [
        {
          "internalType": "uint256",
          "name": "",
          "type": "uint256"
        }
      ],
      "stateMutability": "view",
      "type": "function"
    },
    {
      "inputs": [
        {
          "internalType": "uint256",
          "name": "newRate",
          "type": "uint256"
        }
      ],
      "name": "setSavingsRate",
      "outputs": [],
      "stateMutability": "nonpayable",
      "type": "function"
    },
    {
      "inputs": [
        {
          "internalType": "uint256",
          "name": "amount",
          "type": "uint256"
        }
      ],
      "name": "stake",
      "outputs": [],
      "stateMutability": "nonpayable",
      "type": "function"
    },
    {
      "inputs": [],
      "name": "totalShares",
      "outputs": [
        {
          "internalType": "uint256",
          "name": "",
          "type": "uint256"
        }
      ],
      "stateMutability": "view",
      "type": "function"
    },
    {
      "inputs": [
        {
          "internalType": "address",
          "name": "newOwner",
          "type": "address"
        }
      ],
      "name": "transferOwnership",
      "outputs": [],
      "stateMutability": "nonpayable",
      "type": "function"
    },
    {
      "inputs": [
        {
          "internalType": "address",
          "name": "",
          "type": "address"
        }
      ],
      "name": "userShares",
      "outputs": [
        {
          "internalType": "uint256",
          "name": "",
          "type": "uint256"
        }
      ],
      "stateMutability": "view",
      "type": "function"
    },
    {
      "inputs": [],
      "name": "withdraw",
      "outputs": [],
      "stateMutability": "nonpayable",
      "type": "function"
    }
  ],
  "transactionHash": "0xceeb9dab4e3a8b636175f129015685f1b1dc9a3a7241c07aba365b1edf7a637b",
  "args": [
    "0xC38d03246eA312d429846281f0101A53A8190447",
    "0xB8F7021D241EEdE32C35B78d7E31C3C1974a5a4c",
    "0xD7e927F1f82F507c0cC78e7C0B98DF8E61c5F29A"
  ],
  "numDeployments": 1,
  "solcInputHash": "a6c72d8fa31fd799de900fa8d6fea40e",
  "bytecode": "0x60a060405234801561001057600080fd5b50604051610d68380380610d6883398101604081905261002f91610115565b338061005557604051631e4fbdf760e01b81526000600482015260240160405180910390fd5b61005e816100a9565b50600180556001600160a01b03928316608052600280549284166001600160a01b031993841617905560038054919093169116179055670de0b6b3a764000060055542600655610158565b600080546001600160a01b038381166001600160a01b0319831681178455604051919092169283917f8be0079c531659141344cd1fd0a4f28419497f9722a3daafe3b4186f6b6457e09190a35050565b80516001600160a01b038116811461011057600080fd5b919050565b60008060006060848603121561012a57600080fd5b610133846100f9565b9250610141602085016100f9565b915061014f604085016100f9565b90509250925092565b608051610bd961018f60003960008181610141015281816103d1015281816105780152818161062701526106dd0152610bd96000f3fe608060405234801561001057600080fd5b50600436106100f55760003560e01c80638da5cb5b11610097578063de69b3aa11610066578063de69b3aa146101cc578063dea0e746146101ec578063f2fde38b146101ff578063f8b2cb4f1461021257600080fd5b80638da5cb5b1461018c578063a694fc3a1461019d578063c8f33c91146101b0578063c9d4623f146101b957600080fd5b80633ccfd60b116100d35780633ccfd60b146101345780634bad79db1461013c5780636ecd067f1461017b578063715018a61461018457600080fd5b80633a98ef39146100fa5780633ba0b9a9146101165780633be221491461011f575b600080fd5b61010360045481565b6040519081526020015b60405180910390f35b61010360055481565b61013261012d366004610aaa565b610225565b005b61013261032a565b6101637f000000000000000000000000000000000000000000000000000000000000000081565b6040516001600160a01b03909116815260200161010d565b61010360075481565b6101326104be565b6000546001600160a01b0316610163565b6101326101ab366004610aaa565b6104d0565b61010360065481565b600254610163906001600160a01b031681565b6101036101da366004610ac3565b60086020526000908152604090205481565b6101036101fa366004610aaa565b6107bb565b61013261020d366004610ac3565b6107e8565b610103610220366004610ac3565b610828565b6003546001600160a01b0316331461025057604051632b44bc2760e11b815260040160405180910390fd5b600260009054906101000a90046001600160a01b03166001600160a01b031663c914b4376040518163ffffffff1660e01b8152600401602060405180830381865afa1580156102a3573d6000803e3d6000fd5b505050506040513d601f19601f820116820180604052508101906102c79190610af3565b8111156102e75760405163b524638760e01b815260040160405180910390fd5b6102ef610871565b60078190556040518181527ff222b6a64bddc90734fc07c74ce3da9eab8f251d9a05651db6b196406f7d19e49060200160405180910390a150565b610332610929565b6002546001600160a01b031661035b57604051630811799b60e31b815260040160405180910390fd5b336000908152600860205260408120549081900361038c57604051630f36979d60e01b815260040160405180910390fd5b6000610397826107bb565b336000818152600860205260408082208290555163a9059cbb60e01b81526004810192909252602482018390529192506001600160a01b037f0000000000000000000000000000000000000000000000000000000000000000169063a9059cbb906044016020604051808303816000875af115801561041a573d6000803e3d6000fd5b505050506040513d601f19601f8201168201806040525081019061043e9190610b0c565b90508061045e5760405163eb4c684760e01b815260040160405180910390fd5b82600460008282546104709190610b44565b9091555050604080518381526020810185905233917f92ccf450a286a957af52509bc1c9939d1a6a481783e142e41e2499f0bb66ebc6910160405180910390a25050506104bc60018055565b565b6104c6610953565b6104bc6000610980565b6104d8610929565b806000036104f957604051636fe0fba360e11b815260040160405180910390fd5b60006105036109d0565b610515670de0b6b3a764000084610b57565b61051f9190610b6e565b33600090815260086020526040812080549293508392909190610543908490610b90565b92505081905550806004600082825461055c9190610b90565b90915550506040516370a0823160e01b815233600482015282907f00000000000000000000000000000000000000000000000000000000000000006001600160a01b0316906370a0823190602401602060405180830381865afa1580156105c7573d6000803e3d6000fd5b505050506040513d601f19601f820116820180604052508101906105eb9190610af3565b101561060a576040516325154c9560e21b815260040160405180910390fd5b604051636eb1769f60e11b815233600482015230602482015282907f00000000000000000000000000000000000000000000000000000000000000006001600160a01b03169063dd62ed3e90604401602060405180830381865afa158015610676573d6000803e3d6000fd5b505050506040513d601f19601f8201168201806040525081019061069a9190610af3565b10156106b8576040516221fc5760e71b815260040160405180910390fd5b6040516323b872dd60e01b8152336004820152306024820152604481018390526000907f00000000000000000000000000000000000000000000000000000000000000006001600160a01b0316906323b872dd906064016020604051808303816000875af115801561072e573d6000803e3d6000fd5b505050506040513d601f19601f820116820180604052508101906107529190610b0c565b9050806107725760405163eb4c684760e01b815260040160405180910390fd5b604080518481526020810184905233917f1449c6dd7851abc30abf37f57715f492010519147cc2652fbc38202c18a6ee90910160405180910390a250506107b860018055565b50565b6000670de0b6b3a76400006107ce6109d0565b6107d89084610b57565b6107e29190610b6e565b92915050565b6107f0610953565b6001600160a01b03811661081f57604051631e4fbdf760e01b8152600060048201526024015b60405180910390fd5b6107b881610980565b6001600160a01b038116600090815260086020526040812054810361084f57506000919050565b6001600160a01b0382166000908152600860205260409020546107e2906107bb565b6004546000036108815742600655565b6000600654426108919190610b44565b90508060000361089e5750565b60006108ab6004546107bb565b905060006108bf6301e13380612710610b57565b83600754846108ce9190610b57565b6108d89190610b57565b6108e29190610b6e565b90508015610920576004546108ff670de0b6b3a764000083610b57565b6109099190610b6e565b6005600082825461091a9190610b90565b90915550505b50504260065550565b60026001540361094c57604051633ee5aeb560e01b815260040160405180910390fd5b6002600155565b6000546001600160a01b031633146104bc5760405163118cdaa760e01b8152336004820152602401610816565b600080546001600160a01b038381166001600160a01b0319831681178455604051919092169283917f8be0079c531659141344cd1fd0a4f28419497f9722a3daafe3b4186f6b6457e09190a35050565b60006004546000036109e3575060055490565b6000600654426109f39190610b44565b905080600003610a0557505060055490565b6000670de0b6b3a7640000600554600454610a209190610b57565b610a2a9190610b6e565b90506000610a3e6301e13380612710610b57565b8360075484610a4d9190610b57565b610a579190610b57565b610a619190610b6e565b905080600003610a7657600554935050505090565b600454610a8b670de0b6b3a764000083610b57565b610a959190610b6e565b600554610aa29190610b90565b935050505090565b600060208284031215610abc57600080fd5b5035919050565b600060208284031215610ad557600080fd5b81356001600160a01b0381168114610aec57600080fd5b9392505050565b600060208284031215610b0557600080fd5b5051919050565b600060208284031215610b1e57600080fd5b81518015158114610aec57600080fd5b634e487b7160e01b600052601160045260246000fd5b818103818111156107e2576107e2610b2e565b80820281158282048414176107e2576107e2610b2e565b600082610b8b57634e487b7160e01b600052601260045260246000fd5b500490565b808201808211156107e2576107e2610b2e56fea2646970667358221220a9f953d214528b053f639f57fb01e73eef6e1e5189ec17298f8b199cc2cb304264736f6c63430008140033",
  "devdoc": {
    "errors": {
      "OwnableInvalidOwner(address)": [
        {
          "details": "The owner is not a valid owner account. (eg. `address(0)`)"
        }
      ],
      "OwnableUnauthorizedAccount(address)": [
        {
          "details": "The caller account is not authorized to perform an operation."
        }
      ],
      "ReentrancyGuardReentrantCall()": [
        {
          "details": "Unauthorized reentrant call."
        }
      ]
    },
    "kind": "dev",
    "methods": {
      "owner()": {
        "details": "Returns the address of the current owner."
      },
      "renounceOwnership()": {
        "details": "Leaves the contract without owner. It will not be possible to call `onlyOwner` functions. Can only be called by the current owner. NOTE: Renouncing ownership will leave the contract without an owner, thereby disabling any functionality that is only available to the owner."
      },
      "setSavingsRate(uint256)": {
        "params": {
          "newRate": "The new savings rate to set"
        }
      },
      "transferOwnership(address)": {
        "details": "Transfers ownership of the contract to a new account (`newOwner`). Can only be called by the current owner."
      }
    },
    "version": 1
  },
  "userdoc": {
    "kind": "user",
    "methods": {
      "setSavingsRate(uint256)": {
        "notice": "Set the savings rate for the staking contract"
      }
    },
    "version": 1
  },
  "storageLayout": {
    "storage": [
      {
        "astId": 8,
        "contract": "contracts/MyUSDStaking.sol:MyUSDStaking",
        "label": "_owner",
        "offset": 0,
        "slot": "0",
        "type": "t_address"
      },
      {
        "astId": 990,
        "contract": "contracts/MyUSDStaking.sol:MyUSDStaking",
        "label": "_status",
        "offset": 0,
        "slot": "1",
        "type": "t_uint256"
      },
      {
        "astId": 2231,
        "contract": "contracts/MyUSDStaking.sol:MyUSDStaking",
        "label": "engine",
        "offset": 0,
        "slot": "2",
        "type": "t_contract(IMyUSDEngine)2209"
      },
      {
        "astId": 2233,
        "contract": "contracts/MyUSDStaking.sol:MyUSDStaking",
        "label": "i_rateController",
        "offset": 0,
        "slot": "3",
        "type": "t_address"
      },
      {
        "astId": 2235,
        "contract": "contracts/MyUSDStaking.sol:MyUSDStaking",
        "label": "totalShares",
        "offset": 0,
        "slot": "4",
        "type": "t_uint256"
      },
      {
        "astId": 2237,
        "contract": "contracts/MyUSDStaking.sol:MyUSDStaking",
        "label": "exchangeRate",
        "offset": 0,
        "slot": "5",
        "type": "t_uint256"
      },
      {
        "astId": 2239,
        "contract": "contracts/MyUSDStaking.sol:MyUSDStaking",
        "label": "lastUpdateTime",
        "offset": 0,
        "slot": "6",
        "type": "t_uint256"
      },
      {
        "astId": 2241,
        "contract": "contracts/MyUSDStaking.sol:MyUSDStaking",
        "label": "savingsRate",
        "offset": 0,
        "slot": "7",
        "type": "t_uint256"
      },
      {
        "astId": 2245,
        "contract": "contracts/MyUSDStaking.sol:MyUSDStaking",
        "label": "userShares",
        "offset": 0,
        "slot": "8",
        "type": "t_mapping(t_address,t_uint256)"
      }
    ],
    "types": {
      "t_address": {
        "encoding": "inplace",
        "label": "address",
        "numberOfBytes": "20"
      },
      "t_contract(IMyUSDEngine)2209": {
        "encoding": "inplace",
        "label": "contract IMyUSDEngine",
        "numberOfBytes": "20"
      },
      "t_mapping(t_address,t_uint256)": {
        "encoding": "mapping",
        "key": "t_address",
        "label": "mapping(address => uint256)",
        "numberOfBytes": "32",
        "value": "t_uint256"
      },
      "t_uint256": {
        "encoding": "inplace",
        "label": "uint256",
        "numberOfBytes": "32"
      }
    }
  }
}