{
  "address": "0xC38d03246eA312d429846281f0101A53A8190447",
  "abi": [
    {
      "inputs": [
        {
          "internalType": "address",
          "name": "_engineContract",
          "type": "address"
        },
        {
          "internalType": "address",
          "name": "_stakingContract",
          "type": "address"
        }
      ],
      "stateMutability": "nonpayable",
      "type": "constructor"
    },
    {
      "inputs": [
        {
          "internalType": "address",
          "name": "spender",
          "type": "address"
        },
        {
          "internalType": "uint256",
          "name": "allowance",
          "type": "uint256"
        },
        {
          "internalType": "uint256",
          "name": "needed",
          "type": "uint256"
        }
      ],
      "name": "ERC20InsufficientAllowance",
      "type": "error"
    },
    {
      "inputs": [
        {
          "internalType": "address",
          "name": "sender",
          "type": "address"
        },
        {
          "internalType": "uint256",
          "name": "balance",
          "type": "uint256"
        },
        {
          "internalType": "uint256",
          "name": "needed",
          "type": "uint256"
        }
      ],
      "name": "ERC20InsufficientBalance",
      "type": "error"
    },
    {
      "inputs": [
        {
          "internalType": "address",
          "name": "approver",
          "type": "address"
        }
      ],
      "name": "ERC20InvalidApprover",
      "type": "error"
    },
    {
      "inputs": [
        {
          "internalType": "address",
          "name": "receiver",
          "type": "address"
        }
      ],
      "name": "ERC20InvalidReceiver",
      "type": "error"
    },
    {
      "inputs": [
        {
          "internalType": "address",
          "name": "sender",
          "type": "address"
        }
      ],
      "name": "ERC20InvalidSender",
      "type": "error"
    },
    {
      "inputs": [
        {
          "internalType": "address",
          "name": "spender",
          "type": "address"
        }
      ],
      "name": "ERC20InvalidSpender",
      "type": "error"
    },
    {
      "inputs": [],
      "name": "MyUSD__InvalidAddress",
      "type": "error"
    },
    {
      "inputs": [],
      "name": "MyUSD__InvalidAmount",
      "type": "error"
    },
    {
      "inputs": [],
      "name": "MyUSD__NotAuthorized",
      "type": "error"
    },
    {
      "inputs": [
        {
          "internalType": "address",
          "name": "owner",
          "type": "address"
        }
      ],
      "name": "OwnableInvalidOwner",
      "type": "error"
    },
    {
      "inputs": [
        {
          "internalType": "address",
          "name": "account",
          "type": "address"
        }
      ],
      "name": "OwnableUnauthorizedAccount",
      "type": "error"
    },
    {
      "anonymous": false,
      "inputs": [
        {
          "indexed": true,
          "internalType": "address",
          "name": "owner",
          "type": "address"
        },
        {
          "indexed": true,
          "internalType": "address",
          "name": "spender",
          "type": "address"
        },
        {
          "indexed": false,
          "internalType": "uint256",
          "name": "value",
          "type": "uint256"
        }
      ],
      "name": "Approval",
      "type": "event"
    },
    {
      "anonymous": false,
      "inputs": [
        {
          "indexed": true,
          "internalType": "address",
          "name": "previousOwner",
          "type": "address"
        },
        {
          "indexed": true,
          "internalType": "address",
          "name": "newOwner",
          "type": "address"
        }
      ],
      "name": "OwnershipTransferred",
      "type": "event"
    },
    {
      "anonymous": false,
      "inputs": [
        {
          "indexed": true,
          "internalType": "address",
          "name": "from",
          "type": "address"
        },
        {
          "indexed": true,
          "internalType": "address",
          "name": "to",
          "type": "address"
        },
        {
          "indexed": false,
          "internalType": "uint256",
          "name": "value",
          "type": "uint256"
        }
      ],
      "name": "Transfer",
      "type": "event"
    },
    {
      "inputs": [
        {
          "internalType": "address",
          "name": "owner",
          "type": "address"
        },
        {
          "internalType": "address",
          "name": "spender",
          "type": "address"
        }
      ],
      "name": "allowance",
      "outputs": [
        {
          "internalType": "uint256",
          "name": "",
          "type": "uint256"
        }
      ],
      "stateMutability": "view",
      "type": "function"
    },
    {
      "inputs": [
        {
          "internalType": "address",
          "name": "spender",
          "type": "address"
        },
        {
          "internalType": "uint256",
          "name": "value",
          "type": "uint256"
        }
      ],
      "name": "approve",
      "outputs": [
        {
          "internalType": "bool",
          "name": "",
          "type": "bool"
        }
      ],
      "stateMutability": "nonpayable",
      "type": "function"
    },
    {
      "inputs": [
        {
          "internalType": "address",
          "name": "account",
          "type": "address"
        }
      ],
      "name": "balanceOf",
      "outputs": [
        {
          "internalType": "uint256",
          "name": "",
          "type": "uint256"
        }
      ],
      "stateMutability": "view",
      "type": "function"
    },
    {
      "inputs": [
        {
          "internalType": "uint256",
          "name": "value",
          "type": "uint256"
        }
      ],
      "name": "burn",
      "outputs": [],
      "stateMutability": "nonpayable",
      "type": "function"
    },
    {
      "inputs": [
        {
          "internalType": "address",
          "name": "account",
          "type": "address"
        },
        {
          "internalType": "uint256",
          "name": "amount",
          "type": "uint256"
        }
      ],
      "name": "burnFrom",
      "outputs": [],
      "stateMutability": "nonpayable",
      "type": "function"
    },
    {
      "inputs": [],
      "name": "decimals",
      "outputs": [
        {
          "internalType": "uint8",
          "name": "",
          "type": "uint8"
        }
      ],
      "stateMutability": "view",
      "type": "function"
    },
    {
      "inputs": [],
      "name": "engineContract",
      "outputs": [
        {
          "internalType": "address",
          "name": "",
          "type": "address"
        }
      ],
      "stateMutability": "view",
      "type": "function"
    },
    {
      "inputs": [
        {
          "internalType": "address",
          "name": "to",
          "type": "address"
        },
        {
          "internalType": "uint256",
          "name": "amount",
          "type": "uint256"
        }
      ],
      "name": "mintTo",
      "outputs": [
        {
          "internalType": "bool",
          "name": "",
          "type": "bool"
        }
      ],
      "stateMutability": "nonpayable",
      "type": "function"
    },
    {
      "inputs": [],
      "name": "name",
      "outputs": [
        {
          "internalType": "string",
          "name": "",
          "type": "string"
        }
      ],
      "stateMutability": "view",
      "type": "function"
    },
    {
      "inputs": [],
      "name": "owner",
      "outputs": [
        {
          "internalType": "address",
          "name": "",
          "type": "address"
        }
      ],
      "stateMutability": "view",
      "type": "function"
    },
    {
      "inputs": [],
      "name": "renounceOwnership",
      "outputs": [],
      "stateMutability": "nonpayable",
      "type": "function"
    },
    {
      "inputs": [],
      "name": "stakingContract",
      "outputs": [
        {
          "internalType": "address",
          "name": "",
          "type": "address"
        }
      ],
      "stateMutability": "view",
      "type": "function"
    },
    {
      "inputs": [],
      "name": "symbol",
      "outputs": [
        {
          "internalType": "string",
          "name": "",
          "type": "string"
        }
      ],
      "stateMutability": "view",
      "type": "function"
    },
    {
      "inputs": [],
      "name": "totalSupply",
      "outputs": [
        {
          "internalType": "uint256",
          "name": "",
          "type": "uint256"
        }
      ],
      "stateMutability": "view",
      "type": "function"
    },
    {
      "inputs": [
        {
          "internalType": "address",
          "name": "to",
          "type": "address"
        },
        {
          "internalType": "uint256",
          "name": "value",
          "type": "uint256"
        }
      ],
      "name": "transfer",
      "outputs": [
        {
          "internalType": "bool",
          "name": "",
          "type": "bool"
        }
      ],
      "stateMutability": "nonpayable",
      "type": "function"
    },
    {
      "inputs": [
        {
          "internalType": "address",
          "name": "from",
          "type": "address"
        },
        {
          "internalType": "address",
          "name": "to",
          "type": "address"
        },
        {
          "internalType": "uint256",
          "name": "value",
          "type": "uint256"
        }
      ],
      "name": "transferFrom",
      "outputs": [
        {
          "internalType": "bool",
          "name": "",
          "type": "bool"
        }
      ],
      "stateMutability": "nonpayable",
      "type": "function"
    },
    {
      "inputs": [
        {
          "internalType": "address",
          "name": "newOwner",
          "type": "address"
        }
      ],
      "name": "transferOwnership",
      "outputs": [],
      "stateMutability": "nonpayable",
      "type": "function"
    }
  ],
  "transactionHash": "0x4f487b2877d587e19c9577b65ed052daef4b91e4ac160a4c65e81f6ade7d49d9",
  "args": [
    "0xB8F7021D241EEdE32C35B78d7E31C3C1974a5a4c",
    "0xb0424bda185f1F88ccFc6BAD966d74304AE788cD"
  ],
  "numDeployments": 1,
  "solcInputHash": "a6c72d8fa31fd799de900fa8d6fea40e",
  "bytecode": "0x60806040523480156200001157600080fd5b5060405162000fd838038062000fd8833981016040819052620000349162000160565b604080518082018252600580825264135e5554d160da1b6020808401829052845180860190955291845290830152339160036200007283826200023d565b5060046200008182826200023d565b5050506001600160a01b038116620000b357604051631e4fbdf760e01b81526000600482015260240160405180910390fd5b620000be81620000f1565b50600780546001600160a01b039384166001600160a01b0319918216179091556006805492909316911617905562000309565b600580546001600160a01b038381166001600160a01b0319831681179093556040519116919082907f8be0079c531659141344cd1fd0a4f28419497f9722a3daafe3b4186f6b6457e090600090a35050565b80516001600160a01b03811681146200015b57600080fd5b919050565b600080604083850312156200017457600080fd5b6200017f8362000143565b91506200018f6020840162000143565b90509250929050565b634e487b7160e01b600052604160045260246000fd5b600181811c90821680620001c357607f821691505b602082108103620001e457634e487b7160e01b600052602260045260246000fd5b50919050565b601f8211156200023857600081815260208120601f850160051c81016020861015620002135750805b601f850160051c820191505b8181101562000234578281556001016200021f565b5050505b505050565b81516001600160401b0381111562000259576200025962000198565b62000271816200026a8454620001ae565b84620001ea565b602080601f831160018114620002a95760008415620002905750858301515b600019600386901b1c1916600185901b17855562000234565b600085815260208120601f198616915b82811015620002da57888601518255948401946001909101908401620002b9565b5085821015620002f95787850151600019600388901b60f8161c191681555b5050505050600190811b01905550565b610cbf80620003196000396000f3fe608060405234801561001057600080fd5b506004361061010b5760003560e01c8063715018a6116100a257806395d89b411161007157806395d89b4114610217578063a9059cbb1461021f578063dd62ed3e14610232578063ee99205c1461026b578063f2fde38b1461027e57600080fd5b8063715018a6146101c457806379cc6790146101cc5780638da5cb5b146101df57806393f3b0af1461020457600080fd5b8063313ce567116100de578063313ce5671461017a57806342966c6814610189578063449a52f81461019e57806370a08231146101b157600080fd5b806306fdde0314610110578063095ea7b31461012e57806318160ddd1461015157806323b872dd14610167575b600080fd5b610118610291565b6040516101259190610ade565b60405180910390f35b61014161013c366004610b48565b610323565b6040519015158152602001610125565b61015961033d565b604051908152602001610125565b610141610175366004610b72565b610433565b60405160128152602001610125565b61019c610197366004610bae565b610457565b005b6101416101ac366004610b48565b610464565b6101596101bf366004610bc7565b6104ed565b61019c610600565b61019c6101da366004610b48565b610614565b6005546001600160a01b03165b6040516001600160a01b039091168152602001610125565b6007546101ec906001600160a01b031681565b61011861064d565b61014161022d366004610b48565b61065c565b610159610240366004610be2565b6001600160a01b03918216600090815260016020908152604080832093909416825291909152205490565b6006546101ec906001600160a01b031681565b61019c61028c366004610bc7565b61066a565b6060600380546102a090610c15565b80601f01602080910402602001604051908101604052809291908181526020018280546102cc90610c15565b80156103195780601f106102ee57610100808354040283529160200191610319565b820191906000526020600020905b8154815290600101906020018083116102fc57829003601f168201915b5050505050905090565b6000336103318185856106aa565b60019150505b92915050565b60065460408051633a98ef3960e01b815290516000926001600160a01b0316918391839163dea0e746918391633a98ef399160048083019260209291908290030181865afa158015610393573d6000803e3d6000fd5b505050506040513d601f19601f820116820180604052508101906103b79190610c4f565b6040518263ffffffff1660e01b81526004016103d591815260200190565b602060405180830381865afa1580156103f2573d6000803e3d6000fd5b505050506040513d601f19601f820116820180604052508101906104169190610c4f565b90508061042260025490565b61042c9190610c68565b9250505090565b6000336104418582856106bc565b61044c85858561073a565b506001949350505050565b6104613382610799565b50565b6007546000906001600160a01b03163314610492576040516304f447e760e31b815260040160405180910390fd5b6001600160a01b0383166104b957604051636bd8ad8b60e11b815260040160405180910390fd5b816000036104da5760405163866baad160e01b815260040160405180910390fd5b6104e483836107cf565b50600192915050565b6006546000906001600160a01b03838116911614610523576001600160a01b038216600090815260208190526040902054610337565b60065460408051633a98ef3960e01b815290516001600160a01b0390921691829163dea0e746918391633a98ef399160048083019260209291908290030181865afa158015610576573d6000803e3d6000fd5b505050506040513d601f19601f8201168201806040525081019061059a9190610c4f565b6040518263ffffffff1660e01b81526004016105b891815260200190565b602060405180830381865afa1580156105d5573d6000803e3d6000fd5b505050506040513d601f19601f820116820180604052508101906105f99190610c4f565b9392505050565b610608610805565b6106126000610832565b565b6007546001600160a01b0316331461063f576040516304f447e760e31b815260040160405180910390fd5b6106498282610884565b5050565b6060600480546102a090610c15565b60003361033181858561073a565b610672610805565b6001600160a01b0381166106a157604051631e4fbdf760e01b8152600060048201526024015b60405180910390fd5b61046181610832565b6106b78383836001610899565b505050565b6001600160a01b038381166000908152600160209081526040808320938616835292905220546000198114610734578181101561072557604051637dc7a0d960e11b81526001600160a01b03841660048201526024810182905260448101839052606401610698565b61073484848484036000610899565b50505050565b6001600160a01b03831661076457604051634b637e8f60e11b815260006004820152602401610698565b6001600160a01b03821661078e5760405163ec442f0560e01b815260006004820152602401610698565b6106b783838361096e565b6001600160a01b0382166107c357604051634b637e8f60e11b815260006004820152602401610698565b6106498260008361096e565b6001600160a01b0382166107f95760405163ec442f0560e01b815260006004820152602401610698565b6106496000838361096e565b6005546001600160a01b031633146106125760405163118cdaa760e01b8152336004820152602401610698565b600580546001600160a01b038381166001600160a01b0319831681179093556040519116919082907f8be0079c531659141344cd1fd0a4f28419497f9722a3daafe3b4186f6b6457e090600090a35050565b61088f8233836106bc565b6106498282610799565b6001600160a01b0384166108c35760405163e602df0560e01b815260006004820152602401610698565b6001600160a01b0383166108ed57604051634a1406b160e11b815260006004820152602401610698565b6001600160a01b038085166000908152600160209081526040808320938716835292905220829055801561073457826001600160a01b0316846001600160a01b03167f8c5be1e5ebec7d5bd14f71427d1e84f3dd0314c0f7b2291e5b200ac8c7c3b9258460405161096091815260200190565b60405180910390a350505050565b6006546001600160a01b039081169084160361098e576106b782826107cf565b6006546001600160a01b03908116908316036109ae576106b78382610799565b6106b78383836001600160a01b0383166109df5780600260008282546109d49190610c68565b90915550610a519050565b6001600160a01b03831660009081526020819052604090205481811015610a325760405163391434e360e21b81526001600160a01b03851660048201526024810182905260448101839052606401610698565b6001600160a01b03841660009081526020819052604090209082900390555b6001600160a01b038216610a6d57600280548290039055610a8c565b6001600160a01b03821660009081526020819052604090208054820190555b816001600160a01b0316836001600160a01b03167fddf252ad1be2c89b69c2b068fc378daa952ba7f163c4a11628f55a4df523b3ef83604051610ad191815260200190565b60405180910390a3505050565b600060208083528351808285015260005b81811015610b0b57858101830151858201604001528201610aef565b506000604082860101526040601f19601f8301168501019250505092915050565b80356001600160a01b0381168114610b4357600080fd5b919050565b60008060408385031215610b5b57600080fd5b610b6483610b2c565b946020939093013593505050565b600080600060608486031215610b8757600080fd5b610b9084610b2c565b9250610b9e60208501610b2c565b9150604084013590509250925092565b600060208284031215610bc057600080fd5b5035919050565b600060208284031215610bd957600080fd5b6105f982610b2c565b60008060408385031215610bf557600080fd5b610bfe83610b2c565b9150610c0c60208401610b2c565b90509250929050565b600181811c90821680610c2957607f821691505b602082108103610c4957634e487b7160e01b600052602260045260246000fd5b50919050565b600060208284031215610c6157600080fd5b5051919050565b8082018082111561033757634e487b7160e01b600052601160045260246000fdfea26469706673582212206153307cbe22590b90ee889effe7dca33fb16a364cd3fa678201ebd1121b04a764736f6c63430008140033",
  "devdoc": {
    "errors": {
      "ERC20InsufficientAllowance(address,uint256,uint256)": [
        {
          "details": "Indicates a failure with the `spender`s `allowance`. Used in transfers.",
          "params": {
            "allowance": "Amount of tokens a `spender` is allowed to operate with.",
            "needed": "Minimum amount required to perform a transfer.",
            "spender": "Address that may be allowed to operate on tokens without being their owner."
          }
        }
      ],
      "ERC20InsufficientBalance(address,uint256,uint256)": [
        {
          "details": "Indicates an error related to the current `balance` of a `sender`. Used in transfers.",
          "params": {
            "balance": "Current balance for the interacting account.",
            "needed": "Minimum amount required to perform a transfer.",
            "sender": "Address whose tokens are being transferred."
          }
        }
      ],
      "ERC20InvalidApprover(address)": [
        {
          "details": "Indicates a failure with the `approver` of a token to be approved. Used in approvals.",
          "params": {
            "approver": "Address initiating an approval operation."
          }
        }
      ],
      "ERC20InvalidReceiver(address)": [
        {
          "details": "Indicates a failure with the token `receiver`. Used in transfers.",
          "params": {
            "receiver": "Address to which tokens are being transferred."
          }
        }
      ],
      "ERC20InvalidSender(address)": [
        {
          "details": "Indicates a failure with the token `sender`. Used in transfers.",
          "params": {
            "sender": "Address whose tokens are being transferred."
          }
        }
      ],
      "ERC20InvalidSpender(address)": [
        {
          "details": "Indicates a failure with the `spender` to be approved. Used in approvals.",
          "params": {
            "spender": "Address that may be allowed to operate on tokens without being their owner."
          }
        }
      ],
      "OwnableInvalidOwner(address)": [
        {
          "details": "The owner is not a valid owner account. (eg. `address(0)`)"
        }
      ],
      "OwnableUnauthorizedAccount(address)": [
        {
          "details": "The caller account is not authorized to perform an operation."
        }
      ]
    },
    "events": {
      "Approval(address,address,uint256)": {
        "details": "Emitted when the allowance of a `spender` for an `owner` is set by a call to {approve}. `value` is the new allowance."
      },
      "Transfer(address,address,uint256)": {
        "details": "Emitted when `value` tokens are moved from one account (`from`) to another (`to`). Note that `value` may be zero."
      }
    },
    "kind": "dev",
    "methods": {
      "allowance(address,address)": {
        "details": "See {IERC20-allowance}."
      },
      "approve(address,uint256)": {
        "details": "See {IERC20-approve}. NOTE: If `value` is the maximum `uint256`, the allowance is not updated on `transferFrom`. This is semantically equivalent to an infinite approval. Requirements: - `spender` cannot be the zero address."
      },
      "balanceOf(address)": {
        "details": "Overrides the standard balanceOf function to handle virtual balances for staking"
      },
      "burn(uint256)": {
        "details": "Destroys a `value` amount of tokens from the caller. See {ERC20-_burn}."
      },
      "decimals()": {
        "details": "Returns the number of decimals used to get its user representation. For example, if `decimals` equals `2`, a balance of `505` tokens should be displayed to a user as `5.05` (`505 / 10 ** 2`). Tokens usually opt for a value of 18, imitating the relationship between Ether and Wei. This is the default value returned by this function, unless it's overridden. NOTE: This information is only used for _display_ purposes: it in no way affects any of the arithmetic of the contract, including {IERC20-balanceOf} and {IERC20-transfer}."
      },
      "name()": {
        "details": "Returns the name of the token."
      },
      "owner()": {
        "details": "Returns the address of the current owner."
      },
      "renounceOwnership()": {
        "details": "Leaves the contract without owner. It will not be possible to call `onlyOwner` functions. Can only be called by the current owner. NOTE: Renouncing ownership will leave the contract without an owner, thereby disabling any functionality that is only available to the owner."
      },
      "symbol()": {
        "details": "Returns the symbol of the token, usually a shorter version of the name."
      },
      "totalSupply()": {
        "details": "Overrides the standard totalSupply function to handle virtual balances for staking"
      },
      "transfer(address,uint256)": {
        "details": "See {IERC20-transfer}. Requirements: - `to` cannot be the zero address. - the caller must have a balance of at least `value`."
      },
      "transferFrom(address,address,uint256)": {
        "details": "See {IERC20-transferFrom}. Emits an {Approval} event indicating the updated allowance. This is not required by the EIP. See the note at the beginning of {ERC20}. NOTE: Does not update the allowance if the current allowance is the maximum `uint256`. Requirements: - `from` and `to` cannot be the zero address. - `from` must have a balance of at least `value`. - the caller must have allowance for ``from``'s tokens of at least `value`."
      },
      "transferOwnership(address)": {
        "details": "Transfers ownership of the contract to a new account (`newOwner`). Can only be called by the current owner."
      }
    },
    "version": 1
  },
  "userdoc": {
    "kind": "user",
    "methods": {},
    "version": 1
  },
  "storageLayout": {
    "storage": [
      {
        "astId": 307,
        "contract": "contracts/MyUSD.sol:MyUSD",
        "label": "_balances",
        "offset": 0,
        "slot": "0",
        "type": "t_mapping(t_address,t_uint256)"
      },
      {
        "astId": 313,
        "contract": "contracts/MyUSD.sol:MyUSD",
        "label": "_allowances",
        "offset": 0,
        "slot": "1",
        "type": "t_mapping(t_address,t_mapping(t_address,t_uint256))"
      },
      {
        "astId": 315,
        "contract": "contracts/MyUSD.sol:MyUSD",
        "label": "_totalSupply",
        "offset": 0,
        "slot": "2",
        "type": "t_uint256"
      },
      {
        "astId": 317,
        "contract": "contracts/MyUSD.sol:MyUSD",
        "label": "_name",
        "offset": 0,
        "slot": "3",
        "type": "t_string_storage"
      },
      {
        "astId": 319,
        "contract": "contracts/MyUSD.sol:MyUSD",
        "label": "_symbol",
        "offset": 0,
        "slot": "4",
        "type": "t_string_storage"
      },
      {
        "astId": 8,
        "contract": "contracts/MyUSD.sol:MyUSD",
        "label": "_owner",
        "offset": 0,
        "slot": "5",
        "type": "t_address"
      },
      {
        "astId": 1729,
        "contract": "contracts/MyUSD.sol:MyUSD",
        "label": "stakingContract",
        "offset": 0,
        "slot": "6",
        "type": "t_address"
      },
      {
        "astId": 1731,
        "contract": "contracts/MyUSD.sol:MyUSD",
        "label": "engineContract",
        "offset": 0,
        "slot": "7",
        "type": "t_address"
      }
    ],
    "types": {
      "t_address": {
        "encoding": "inplace",
        "label": "address",
        "numberOfBytes": "20"
      },
      "t_mapping(t_address,t_mapping(t_address,t_uint256))": {
        "encoding": "mapping",
        "key": "t_address",
        "label": "mapping(address => mapping(address => uint256))",
        "numberOfBytes": "32",
        "value": "t_mapping(t_address,t_uint256)"
      },
      "t_mapping(t_address,t_uint256)": {
        "encoding": "mapping",
        "key": "t_address",
        "label": "mapping(address => uint256)",
        "numberOfBytes": "32",
        "value": "t_uint256"
      },
      "t_string_storage": {
        "encoding": "bytes",
        "label": "string",
        "numberOfBytes": "32"
      },
      "t_uint256": {
        "encoding": "inplace",
        "label": "uint256",
        "numberOfBytes": "32"
      }
    }
  }
}