{
  "address": "0x2db0a7136e3a11CdF79151934eDb7bae04f6e00B",
  "abi": [
    {
      "inputs": [
        {
          "internalType": "address",
          "name": "_dexAddress",
          "type": "address"
        },
        {
          "internalType": "uint256",
          "name": "_defaultPrice",
          "type": "uint256"
        }
      ],
      "stateMutability": "nonpayable",
      "type": "constructor"
    },
    {
      "inputs": [],
      "name": "defaultPrice",
      "outputs": [
        {
          "internalType": "uint256",
          "name": "",
          "type": "uint256"
        }
      ],
      "stateMutability": "view",
      "type": "function"
    },
    {
      "inputs": [],
      "name": "dexAddress",
      "outputs": [
        {
          "internalType": "contract DEX",
          "name": "",
          "type": "address"
        }
      ],
      "stateMutability": "view",
      "type": "function"
    },
    {
      "inputs": [],
      "name": "getETHMyUSDPrice",
      "outputs": [
        {
          "internalType": "uint256",
          "name": "",
          "type": "uint256"
        }
      ],
      "stateMutability": "view",
      "type": "function"
    },
    {
      "inputs": [],
      "name": "getETHUSDPrice",
      "outputs": [
        {
          "internalType": "uint256",
          "name": "",
          "type": "uint256"
        }
      ],
      "stateMutability": "view",
      "type": "function"
    }
  ],
  "transactionHash": "0xc4afe1171f76bae9bdd767c6ad501c76518a1371302e6c0de651bd006f66d656",
  "args": [
    "0x97ac7FEb9821563C3acB4C67e97fD4536FeFF506",
    "3112427982761778216960"
  ],
  "numDeployments": 1,
  "solcInputHash": "a6c72d8fa31fd799de900fa8d6fea40e",
  "bytecode": "0x608060405234801561001057600080fd5b5060405161021a38038061021a83398101604081905261002f91610058565b600080546001600160a01b0319166001600160a01b039390931692909217909155600155610092565b6000806040838503121561006b57600080fd5b82516001600160a01b038116811461008257600080fd5b6020939093015192949293505050565b610179806100a16000396000f3fe608060405234801561001057600080fd5b506004361061004c5760003560e01c8063745fba8414610051578063aa13d0b514610081578063bf4b199014610097578063e69e04b31461009f575b600080fd5b600054610064906001600160a01b031681565b6040516001600160a01b0390911681526020015b60405180910390f35b6100896100a8565b604051908152602001610078565b600154610089565b61008960015481565b6000805460408051634e8da32560e11b8152905183926001600160a01b031691639d1b464a9160048083019260209291908290030181865afa1580156100f2573d6000803e3d6000fd5b505050506040513d601f19601f82011682018060405250810190610116919061012a565b90508060000361012557506001545b919050565b60006020828403121561013c57600080fd5b505191905056fea26469706673582212203c0045aff1821d5443b1588704ec603d166a825e06664677375054b8cb4ef55864736f6c63430008140033",
  "devdoc": {
    "kind": "dev",
    "methods": {},
    "version": 1
  },
  "userdoc": {
    "kind": "user",
    "methods": {},
    "version": 1
  },
  "storageLayout": {
    "storage": [
      {
        "astId": 2688,
        "contract": "contracts/Oracle.sol:Oracle",
        "label": "dexAddress",
        "offset": 0,
        "slot": "0",
        "type": "t_contract(DEX)1705"
      },
      {
        "astId": 2690,
        "contract": "contracts/Oracle.sol:Oracle",
        "label": "defaultPrice",
        "offset": 0,
        "slot": "1",
        "type": "t_uint256"
      }
    ],
    "types": {
      "t_contract(DEX)1705": {
        "encoding": "inplace",
        "label": "contract DEX",
        "numberOfBytes": "20"
      },
      "t_uint256": {
        "encoding": "inplace",
        "label": "uint256",
        "numberOfBytes": "32"
      }
    }
  }
}