{
  "address": "0xD7e927F1f82F507c0cC78e7C0B98DF8E61c5F29A",
  "abi": [
    {
      "inputs": [
        {
          "internalType": "address",
          "name": "_myUSD",
          "type": "address"
        },
        {
          "internalType": "address",
          "name": "_staking",
          "type": "address"
        }
      ],
      "stateMutability": "nonpayable",
      "type": "constructor"
    },
    {
      "inputs": [],
      "name": "Engine__InvalidBorrowRate",
      "type": "error"
    },
    {
      "inputs": [],
      "name": "Staking__InvalidSavingsRate",
      "type": "error"
    },
    {
      "inputs": [
        {
          "internalType": "uint256",
          "name": "newRate",
          "type": "uint256"
        }
      ],
      "name": "setBorrowRate",
      "outputs": [],
      "stateMutability": "nonpayable",
      "type": "function"
    },
    {
      "inputs": [
        {
          "internalType": "uint256",
          "name": "newRate",
          "type": "uint256"
        }
      ],
      "name": "setSavingsRate",
      "outputs": [],
      "stateMutability": "nonpayable",
      "type": "function"
    }
  ],
  "transactionHash": "0xb48b7ec4d703ea3f7895f83fdb611ab7613da66986dbccfa41b763f6944ba2f1",
  "args": [
    "0xB8F7021D241EEdE32C35B78d7E31C3C1974a5a4c",
    "0xb0424bda185f1F88ccFc6BAD966d74304AE788cD"
  ],
  "numDeployments": 1,
  "solcInputHash": "a6c72d8fa31fd799de900fa8d6fea40e",
  "bytecode": "0x608060405234801561001057600080fd5b5060405161025b38038061025b83398101604081905261002f9161007c565b600080546001600160a01b039384166001600160a01b031991821617909155600180549290931691161790556100af565b80516001600160a01b038116811461007757600080fd5b919050565b6000806040838503121561008f57600080fd5b61009883610060565b91506100a660208401610060565b90509250929050565b61019d806100be6000396000f3fe608060405234801561001057600080fd5b50600436106100365760003560e01c80633be221491461003b578063dd3eaf0414610050575b600080fd5b61004e61004936600461014e565b610063565b005b61004e61005e36600461014e565b6100da565b600154604051633be2214960e01b8152600481018390526001600160a01b0390911690633be2214990602401600060405180830381600087803b1580156100a957600080fd5b505af19250505080156100ba575060015b6100d75760405163b524638760e01b815260040160405180910390fd5b50565b60005460405163374fabc160e21b8152600481018390526001600160a01b039091169063dd3eaf0490602401600060405180830381600087803b15801561012057600080fd5b505af1925050508015610131575060015b6100d757604051630acdfa5760e01b815260040160405180910390fd5b60006020828403121561016057600080fd5b503591905056fea2646970667358221220aec94b1df4c19f8119e9f88046e15aa2f9785dfe1edee6a6d650a88ad97ef9a364736f6c63430008140033",
  "devdoc": {
    "kind": "dev",
    "methods": {
      "setBorrowRate(uint256)": {
        "params": {
          "newRate": "The new borrow rate to set"
        }
      },
      "setSavingsRate(uint256)": {
        "params": {
          "newRate": "The new savings rate to set"
        }
      }
    },
    "version": 1
  },
  "userdoc": {
    "kind": "user",
    "methods": {
      "setBorrowRate(uint256)": {
        "notice": "Set the borrow rate for the MyUSD engine"
      },
      "setSavingsRate(uint256)": {
        "notice": "Set the savings rate for the MyUSD staking contract"
      }
    },
    "version": 1
  },
  "storageLayout": {
    "storage": [
      {
        "astId": 2748,
        "contract": "contracts/RateController.sol:RateController",
        "label": "i_myUSD",
        "offset": 0,
        "slot": "0",
        "type": "t_contract(IMyUSDEngine)2209"
      },
      {
        "astId": 2751,
        "contract": "contracts/RateController.sol:RateController",
        "label": "i_staking",
        "offset": 0,
        "slot": "1",
        "type": "t_contract(MyUSDStaking)2682"
      }
    ],
    "types": {
      "t_contract(IMyUSDEngine)2209": {
        "encoding": "inplace",
        "label": "contract IMyUSDEngine",
        "numberOfBytes": "20"
      },
      "t_contract(MyUSDStaking)2682": {
        "encoding": "inplace",
        "label": "contract MyUSDStaking",
        "numberOfBytes": "20"
      }
    }
  }
}