{
  "address": "0xB8b81301F026712C12C0e30F4296c369d9F2a079",
  "abi": [
    {
      "inputs": [
        {
          "internalType": "address",
          "name": "_cornDEX",
          "type": "address"
        },
        {
          "internalType": "address",
          "name": "_corn",
          "type": "address"
        }
      ],
      "stateMutability": "nonpayable",
      "type": "constructor"
    },
    {
      "inputs": [],
      "name": "Lending__BorrowingFailed",
      "type": "error"
    },
    {
      "inputs": [],
      "name": "Lending__InsufficientLiquidatorCorn",
      "type": "error"
    },
    {
      "inputs": [],
      "name": "Lending__InvalidAmount",
      "type": "error"
    },
    {
      "inputs": [],
      "name": "Lending__NotLiquidatable",
      "type": "error"
    },
    {
      "inputs": [],
      "name": "Lending__RepayingFailed",
      "type": "error"
    },
    {
      "inputs": [],
      "name": "Lending__TransferFailed",
      "type": "error"
    },
    {
      "inputs": [],
      "name": "Lending__UnsafePositionRatio",
      "type": "error"
    },
    {
      "inputs": [
        {
          "internalType": "address",
          "name": "owner",
          "type": "address"
        }
      ],
      "name": "OwnableInvalidOwner",
      "type": "error"
    },
    {
      "inputs": [
        {
          "internalType": "address",
          "name": "account",
          "type": "address"
        }
      ],
      "name": "OwnableUnauthorizedAccount",
      "type": "error"
    },
    {
      "anonymous": false,
      "inputs": [
        {
          "indexed": true,
          "internalType": "address",
          "name": "user",
          "type": "address"
        },
        {
          "indexed": true,
          "internalType": "uint256",
          "name": "amount",
          "type": "uint256"
        },
        {
          "indexed": false,
          "internalType": "uint256",
          "name": "price",
          "type": "uint256"
        }
      ],
      "name": "AssetBorrowed",
      "type": "event"
    },
    {
      "anonymous": false,
      "inputs": [
        {
          "indexed": true,
          "internalType": "address",
          "name": "user",
          "type": "address"
        },
        {
          "indexed": true,
          "internalType": "uint256",
          "name": "amount",
          "type": "uint256"
        },
        {
          "indexed": false,
          "internalType": "uint256",
          "name": "price",
          "type": "uint256"
        }
      ],
      "name": "AssetRepaid",
      "type": "event"
    },
    {
      "anonymous": false,
      "inputs": [
        {
          "indexed": true,
          "internalType": "address",
          "name": "user",
          "type": "address"
        },
        {
          "indexed": true,
          "internalType": "uint256",
          "name": "amount",
          "type": "uint256"
        },
        {
          "indexed": false,
          "internalType": "uint256",
          "name": "price",
          "type": "uint256"
        }
      ],
      "name": "CollateralAdded",
      "type": "event"
    },
    {
      "anonymous": false,
      "inputs": [
        {
          "indexed": true,
          "internalType": "address",
          "name": "user",
          "type": "address"
        },
        {
          "indexed": true,
          "internalType": "uint256",
          "name": "amount",
          "type": "uint256"
        },
        {
          "indexed": false,
          "internalType": "uint256",
          "name": "price",
          "type": "uint256"
        }
      ],
      "name": "CollateralWithdrawn",
      "type": "event"
    },
    {
      "anonymous": false,
      "inputs": [
        {
          "indexed": true,
          "internalType": "address",
          "name": "user",
          "type": "address"
        },
        {
          "indexed": true,
          "internalType": "address",
          "name": "liquidator",
          "type": "address"
        },
        {
          "indexed": false,
          "internalType": "uint256",
          "name": "amountForLiquidator",
          "type": "uint256"
        },
        {
          "indexed": false,
          "internalType": "uint256",
          "name": "liquidatedUserDebt",
          "type": "uint256"
        },
        {
          "indexed": false,
          "internalType": "uint256",
          "name": "price",
          "type": "uint256"
        }
      ],
      "name": "Liquidation",
      "type": "event"
    },
    {
      "anonymous": false,
      "inputs": [
        {
          "indexed": true,
          "internalType": "address",
          "name": "previousOwner",
          "type": "address"
        },
        {
          "indexed": true,
          "internalType": "address",
          "name": "newOwner",
          "type": "address"
        }
      ],
      "name": "OwnershipTransferred",
      "type": "event"
    },
    {
      "inputs": [],
      "name": "addCollateral",
      "outputs": [],
      "stateMutability": "payable",
      "type": "function"
    },
    {
      "inputs": [
        {
          "internalType": "uint256",
          "name": "borrowAmount",
          "type": "uint256"
        }
      ],
      "name": "borrowCorn",
      "outputs": [],
      "stateMutability": "nonpayable",
      "type": "function"
    },
    {
      "inputs": [
        {
          "internalType": "address",
          "name": "user",
          "type": "address"
        }
      ],
      "name": "calculateCollateralValue",
      "outputs": [
        {
          "internalType": "uint256",
          "name": "",
          "type": "uint256"
        }
      ],
      "stateMutability": "view",
      "type": "function"
    },
    {
      "inputs": [
        {
          "internalType": "address",
          "name": "user",
          "type": "address"
        }
      ],
      "name": "isLiquidatable",
      "outputs": [
        {
          "internalType": "bool",
          "name": "",
          "type": "bool"
        }
      ],
      "stateMutability": "view",
      "type": "function"
    },
    {
      "inputs": [
        {
          "internalType": "address",
          "name": "user",
          "type": "address"
        }
      ],
      "name": "liquidate",
      "outputs": [],
      "stateMutability": "nonpayable",
      "type": "function"
    },
    {
      "inputs": [],
      "name": "owner",
      "outputs": [
        {
          "internalType": "address",
          "name": "",
          "type": "address"
        }
      ],
      "stateMutability": "view",
      "type": "function"
    },
    {
      "inputs": [],
      "name": "renounceOwnership",
      "outputs": [],
      "stateMutability": "nonpayable",
      "type": "function"
    },
    {
      "inputs": [
        {
          "internalType": "uint256",
          "name": "repayAmount",
          "type": "uint256"
        }
      ],
      "name": "repayCorn",
      "outputs": [],
      "stateMutability": "nonpayable",
      "type": "function"
    },
    {
      "inputs": [
        {
          "internalType": "address",
          "name": "",
          "type": "address"
        }
      ],
      "name": "s_userBorrowed",
      "outputs": [
        {
          "internalType": "uint256",
          "name": "",
          "type": "uint256"
        }
      ],
      "stateMutability": "view",
      "type": "function"
    },
    {
      "inputs": [
        {
          "internalType": "address",
          "name": "",
          "type": "address"
        }
      ],
      "name": "s_userCollateral",
      "outputs": [
        {
          "internalType": "uint256",
          "name": "",
          "type": "uint256"
        }
      ],
      "stateMutability": "view",
      "type": "function"
    },
    {
      "inputs": [
        {
          "internalType": "address",
          "name": "newOwner",
          "type": "address"
        }
      ],
      "name": "transferOwnership",
      "outputs": [],
      "stateMutability": "nonpayable",
      "type": "function"
    },
    {
      "inputs": [
        {
          "internalType": "uint256",
          "name": "amount",
          "type": "uint256"
        }
      ],
      "name": "withdrawCollateral",
      "outputs": [],
      "stateMutability": "nonpayable",
      "type": "function"
    }
  ],
  "transactionHash": "0x213826c6b1ed5a8dfa2bb495e262e6d53b05814869072222f8439bd38e9fdae4",
  "args": [
    "0x06297c5CBa16220a712CCE9CD2a2383E4F2728E9",
    "0x18fC33a14C7368D892FB54758f3d9b23984c6720"
  ],
  "numDeployments": 1,
  "solcInputHash": "308d43db91cfaa9ac4181dbd4ddf14f4",
  "bytecode": "0x60806040523480156200001157600080fd5b506040516200108538038062001085833981016040819052620000349162000175565b33806200005b57604051631e4fbdf760e01b81526000600482015260240160405180910390fd5b620000668162000108565b50600280546001600160a01b038481166001600160a01b03199283161790925560018054928416929091168217905560405163095ea7b360e01b8152306004820152600019602482015263095ea7b3906044016020604051808303816000875af1158015620000d9573d6000803e3d6000fd5b505050506040513d601f19601f82011682018060405250810190620000ff9190620001ad565b505050620001d8565b600080546001600160a01b038381166001600160a01b0319831681178455604051919092169283917f8be0079c531659141344cd1fd0a4f28419497f9722a3daafe3b4186f6b6457e09190a35050565b80516001600160a01b03811681146200017057600080fd5b919050565b600080604083850312156200018957600080fd5b620001948362000158565b9150620001a46020840162000158565b90509250929050565b600060208284031215620001c057600080fd5b81518015158114620001d157600080fd5b9392505050565b610e9d80620001e86000396000f3fe6080604052600436106100a75760003560e01c80638da5cb5b116100645780638da5cb5b146101935780639e816999146101bb578063bd00c24d146101c3578063d5de45a6146101f0578063d678598a14610210578063f2fde38b1461023057600080fd5b8063042e02cf146100ac5780630835e145146100e15780632a5f2c231461010f5780632f8655681461013c5780636112fe2e1461015e578063715018a61461017e575b600080fd5b3480156100b857600080fd5b506100cc6100c7366004610d6f565b610250565b60405190151581526020015b60405180910390f35b3480156100ed57600080fd5b506101016100fc366004610d6f565b610284565b6040519081526020016100d8565b34801561011b57600080fd5b5061010161012a366004610d6f565b60046020526000908152604090205481565b34801561014857600080fd5b5061015c610157366004610d6f565b61032a565b005b34801561016a57600080fd5b5061015c610179366004610d98565b610661565b34801561018a57600080fd5b5061015c610805565b34801561019f57600080fd5b506000546040516001600160a01b0390911681526020016100d8565b61015c610819565b3480156101cf57600080fd5b506101016101de366004610d6f565b60036020526000908152604090205481565b3480156101fc57600080fd5b5061015c61020b366004610d98565b610916565b34801561021c57600080fd5b5061015c61022b366004610d98565b610ab3565b34801561023c57600080fd5b5061015c61024b366004610d6f565b610c2b565b60008061025c83610c6e565b90506102716078670de0b6b3a7640000610dc7565b61027c826064610dc7565b109392505050565b6001600160a01b038082166000908152600360209081526040808320546002548251634e8da32560e11b8152925194959194670de0b6b3a7640000949190921692639d1b464a92600480830193928290030181865afa1580156102eb573d6000803e3d6000fd5b505050506040513d601f19601f8201168201806040525081019061030f9190610de4565b6103199083610dc7565b6103239190610dfd565b9392505050565b61033381610250565b6103505760405163175ae04960e11b815260040160405180910390fd5b6001600160a01b038181166000908152600460208190526040918290205460015492516370a0823160e01b8152339281019290925292839216906370a0823190602401602060405180830381865afa1580156103b0573d6000803e3d6000fd5b505050506040513d601f19601f820116820180604052508101906103d49190610de4565b10156103f3576040516327f93fb360e11b815260040160405180910390fd5b6001600160a01b0382166000908152600360205260408120549061041684610284565b6001546040516323b872dd60e01b8152336004820152306024820152604481018690529192506001600160a01b0316906323b872dd906064016020604051808303816000875af115801561046e573d6000803e3d6000fd5b505050506040513d601f19601f820116820180604052508101906104929190610e1f565b506001600160a01b0384166000908152600460205260408120819055816104b98486610dc7565b6104c39190610dfd565b9050600060646104d4600a84610dc7565b6104de9190610dfd565b905060006104ec8284610e41565b90508481116104fb57806104fd565b845b90506105098186610e54565b6001600160a01b038816600090815260036020526040808220929092559051339083908381818185875af1925050503d8060008114610564576040519150601f19603f3d011682016040523d82523d6000602084013e610569565b606091505b505090508061058b5760405163a419137f60e01b815260040160405180910390fd5b336001600160a01b0316886001600160a01b03167f5a821a618ddb1a1fd304234a69c9d7f20c129d122fcf35593d13a07192664307848a600260009054906101000a90046001600160a01b03166001600160a01b0316639d1b464a6040518163ffffffff1660e01b8152600401602060405180830381865afa158015610615573d6000803e3d6000fd5b505050506040513d601f19601f820116820180604052508101906106399190610de4565b6040805193845260208401929092529082015260600160405180910390a35050505050505050565b80158061067c57503360009081526003602052604090205481115b1561069a5760405163269cf19b60e11b815260040160405180910390fd5b336000908152600360205260408120546106b5908390610e54565b3360009081526003602090815260408083208490556004909152902054909150156106e3576106e333610ccb565b604051600090339084908381818185875af1925050503d8060008114610725576040519150601f19603f3d011682016040523d82523d6000602084013e61072a565b606091505b505090508061074c5760405163a419137f60e01b815260040160405180910390fd5b82336001600160a01b03167fdaed309a628faec6cab72194019e2a1a34e890ca9bf9be99788992dd54692819600260009054906101000a90046001600160a01b03166001600160a01b0316639d1b464a6040518163ffffffff1660e01b8152600401602060405180830381865afa1580156107cb573d6000803e3d6000fd5b505050506040513d601f19601f820116820180604052508101906107ef9190610de4565b60405190815260200160405180910390a3505050565b61080d610cf2565b6108176000610d1f565b565b3460000361083a5760405163269cf19b60e11b815260040160405180910390fd5b3360009081526003602052604081208054349290610859908490610e41565b9250508190555034336001600160a01b03167f11f8990ac38271f23dea447d5728e9914fca7cea2edda43af6c43c415f8bc30b600260009054906101000a90046001600160a01b03166001600160a01b0316639d1b464a6040518163ffffffff1660e01b8152600401602060405180830381865afa1580156108df573d6000803e3d6000fd5b505050506040513d601f19601f820116820180604052508101906109039190610de4565b60405190815260200160405180910390a3565b806000036109375760405163269cf19b60e11b815260040160405180910390fd5b3360009081526004602052604081208054839290610956908490610e41565b90915550610965905033610ccb565b60015460405163a9059cbb60e01b8152336004820152602481018390526000916001600160a01b03169063a9059cbb906044016020604051808303816000875af11580156109b7573d6000803e3d6000fd5b505050506040513d601f19601f820116820180604052508101906109db9190610e1f565b9050806109fb576040516325b1478b60e21b815260040160405180910390fd5b81336001600160a01b03167f6c8250ea4d625c09ee567802242f70b37c9dcfdb10a904563781c1ed7663c7cc600260009054906101000a90046001600160a01b03166001600160a01b0316639d1b464a6040518163ffffffff1660e01b8152600401602060405180830381865afa158015610a7a573d6000803e3d6000fd5b505050506040513d601f19601f82011682018060405250810190610a9e9190610de4565b60405190815260200160405180910390a35050565b801580610ace57503360009081526004602052604090205481115b15610aec5760405163269cf19b60e11b815260040160405180910390fd5b3360009081526004602052604081208054839290610b0b908490610e54565b90915550506001546040516323b872dd60e01b8152336004820152306024820152604481018390526000916001600160a01b0316906323b872dd906064016020604051808303816000875af1158015610b68573d6000803e3d6000fd5b505050506040513d601f19601f82011682018060405250810190610b8c9190610e1f565b905080610bac5760405163c1cf149f60e01b815260040160405180910390fd5b81336001600160a01b03167fc1afad9537411d7ba4a74e9ee309d18f26f72ee1bfc63647b61e9bca0eec322c600260009054906101000a90046001600160a01b03166001600160a01b0316639d1b464a6040518163ffffffff1660e01b8152600401602060405180830381865afa158015610a7a573d6000803e3d6000fd5b610c33610cf2565b6001600160a01b038116610c6257604051631e4fbdf760e01b8152600060048201526024015b60405180910390fd5b610c6b81610d1f565b50565b6001600160a01b03811660009081526004602052604081205481610c9184610284565b905081600003610ca657506000199392505050565b81610cb982670de0b6b3a7640000610dc7565b610cc39190610dfd565b949350505050565b610cd481610250565b15610c6b57604051632606396760e21b815260040160405180910390fd5b6000546001600160a01b031633146108175760405163118cdaa760e01b8152336004820152602401610c59565b600080546001600160a01b038381166001600160a01b0319831681178455604051919092169283917f8be0079c531659141344cd1fd0a4f28419497f9722a3daafe3b4186f6b6457e09190a35050565b600060208284031215610d8157600080fd5b81356001600160a01b038116811461032357600080fd5b600060208284031215610daa57600080fd5b5035919050565b634e487b7160e01b600052601160045260246000fd5b8082028115828204841417610dde57610dde610db1565b92915050565b600060208284031215610df657600080fd5b5051919050565b600082610e1a57634e487b7160e01b600052601260045260246000fd5b500490565b600060208284031215610e3157600080fd5b8151801515811461032357600080fd5b80820180821115610dde57610dde610db1565b81810381811115610dde57610dde610db156fea2646970667358221220b916e8e3c8802a3afa113d2cf0843a37e1b11157492baf4db0eeb364cdad811d64736f6c63430008140033",
  "devdoc": {
    "errors": {
      "OwnableInvalidOwner(address)": [
        {
          "details": "The owner is not a valid owner account. (eg. `address(0)`)"
        }
      ],
      "OwnableUnauthorizedAccount(address)": [
        {
          "details": "The caller account is not authorized to perform an operation."
        }
      ]
    },
    "kind": "dev",
    "methods": {
      "borrowCorn(uint256)": {
        "params": {
          "borrowAmount": "The amount of corn to borrow"
        }
      },
      "calculateCollateralValue(address)": {
        "params": {
          "user": "The address of the user to calculate the collateral value for"
        },
        "returns": {
          "_0": "uint256 The collateral value"
        }
      },
      "isLiquidatable(address)": {
        "params": {
          "user": "The address of the user to check"
        },
        "returns": {
          "_0": "bool True if the position is liquidatable, false otherwise"
        }
      },
      "liquidate(address)": {
        "details": "The caller must have enough CORN to pay back user's debtThe caller must have approved this contract to transfer the debt",
        "params": {
          "user": "The address of the user to liquidate"
        }
      },
      "owner()": {
        "details": "Returns the address of the current owner."
      },
      "renounceOwnership()": {
        "details": "Leaves the contract without owner. It will not be possible to call `onlyOwner` functions. Can only be called by the current owner. NOTE: Renouncing ownership will leave the contract without an owner, thereby disabling any functionality that is only available to the owner."
      },
      "repayCorn(uint256)": {
        "params": {
          "repayAmount": "The amount of corn to repay"
        }
      },
      "transferOwnership(address)": {
        "details": "Transfers ownership of the contract to a new account (`newOwner`). Can only be called by the current owner."
      },
      "withdrawCollateral(uint256)": {
        "params": {
          "amount": "The amount of collateral to withdraw"
        }
      }
    },
    "version": 1
  },
  "userdoc": {
    "kind": "user",
    "methods": {
      "addCollateral()": {
        "notice": "Allows users to add collateral to their account"
      },
      "borrowCorn(uint256)": {
        "notice": "Allows users to borrow corn based on their collateral"
      },
      "calculateCollateralValue(address)": {
        "notice": "Calculates the total collateral value for a user based on their collateral balance"
      },
      "isLiquidatable(address)": {
        "notice": "Checks if a user's position can be liquidated"
      },
      "liquidate(address)": {
        "notice": "Allows liquidators to liquidate unsafe positions"
      },
      "repayCorn(uint256)": {
        "notice": "Allows users to repay corn and reduce their debt"
      },
      "withdrawCollateral(uint256)": {
        "notice": "Allows users to withdraw collateral as long as it doesn't make them liquidatable"
      }
    },
    "version": 1
  },
  "storageLayout": {
    "storage": [
      {
        "astId": 8,
        "contract": "contracts/Lending.sol:Lending",
        "label": "_owner",
        "offset": 0,
        "slot": "0",
        "type": "t_address"
      },
      {
        "astId": 1684,
        "contract": "contracts/Lending.sol:Lending",
        "label": "i_corn",
        "offset": 0,
        "slot": "1",
        "type": "t_contract(Corn)1000"
      },
      {
        "astId": 1687,
        "contract": "contracts/Lending.sol:Lending",
        "label": "i_cornDEX",
        "offset": 0,
        "slot": "2",
        "type": "t_contract(CornDEX)1652"
      },
      {
        "astId": 1691,
        "contract": "contracts/Lending.sol:Lending",
        "label": "s_userCollateral",
        "offset": 0,
        "slot": "3",
        "type": "t_mapping(t_address,t_uint256)"
      },
      {
        "astId": 1695,
        "contract": "contracts/Lending.sol:Lending",
        "label": "s_userBorrowed",
        "offset": 0,
        "slot": "4",
        "type": "t_mapping(t_address,t_uint256)"
      }
    ],
    "types": {
      "t_address": {
        "encoding": "inplace",
        "label": "address",
        "numberOfBytes": "20"
      },
      "t_contract(Corn)1000": {
        "encoding": "inplace",
        "label": "contract Corn",
        "numberOfBytes": "20"
      },
      "t_contract(CornDEX)1652": {
        "encoding": "inplace",
        "label": "contract CornDEX",
        "numberOfBytes": "20"
      },
      "t_mapping(t_address,t_uint256)": {
        "encoding": "mapping",
        "key": "t_address",
        "label": "mapping(address => uint256)",
        "numberOfBytes": "32",
        "value": "t_uint256"
      },
      "t_uint256": {
        "encoding": "inplace",
        "label": "uint256",
        "numberOfBytes": "32"
      }
    }
  }
}