{
  "address": "0x737F41D458297C9E7273cbf6f8A2310664eDc81d",
  "abi": [
    {
      "inputs": [
        {
          "internalType": "address",
          "name": "_cornDex",
          "type": "address"
        },
        {
          "internalType": "address",
          "name": "_cornToken",
          "type": "address"
        }
      ],
      "stateMutability": "nonpayable",
      "type": "constructor"
    },
    {
      "stateMutability": "payable",
      "type": "fallback"
    },
    {
      "inputs": [
        {
          "internalType": "int256",
          "name": "size",
          "type": "int256"
        }
      ],
      "name": "movePrice",
      "outputs": [],
      "stateMutability": "nonpayable",
      "type": "function"
    },
    {
      "stateMutability": "payable",
      "type": "receive"
    }
  ],
  "transactionHash": "0xe09163f92dfc11c9a9bcb26da023cfed0389d2730edd15f3a10f6565eb84f739",
  "args": [
    "0x06297c5CBa16220a712CCE9CD2a2383E4F2728E9",
    "0x18fC33a14C7368D892FB54758f3d9b23984c6720"
  ],
  "numDeployments": 1,
  "solcInputHash": "b0a093b66839159c7f332a783dcbea3a",
  "bytecode": "0x608060405234801561001057600080fd5b5060405161031838038061031883398101604081905261002f916100df565b600080546001600160a01b0319166001600160a01b0384811691821790925560405163095ea7b360e01b8152600481019190915260001960248201529082169063095ea7b3906044016020604051808303816000875af1158015610097573d6000803e3d6000fd5b505050506040513d601f19601f820116820180604052508101906100bb9190610112565b50505061013b565b80516001600160a01b03811681146100da57600080fd5b919050565b600080604083850312156100f257600080fd5b6100fb836100c3565b9150610109602084016100c3565b90509250929050565b60006020828403121561012457600080fd5b8151801515811461013457600080fd5b9392505050565b6101ce8061014a6000396000f3fe60806040526004361061001f5760003560e01c8063d226b4ed1461002857005b3661002657005b005b34801561003457600080fd5b5061002661004336600461013c565b60008113156100c157600054604051634a5c8c6f60e11b8152600481018390526001600160a01b03909116906394b918de90839060240160206040518083038185885af1158015610098573d6000803e3d6000fd5b50505050506040513d601f19601f820116820180604052508101906100bd9190610155565b5050565b6000546001600160a01b03166394b918de6100db8361016e565b6040518263ffffffff1660e01b81526004016100f991815260200190565b6020604051808303816000875af1158015610118573d6000803e3d6000fd5b505050506040513d601f19601f820116820180604052508101906100bd9190610155565b60006020828403121561014e57600080fd5b5035919050565b60006020828403121561016757600080fd5b5051919050565b6000600160ff1b820161019157634e487b7160e01b600052601160045260246000fd5b506000039056fea2646970667358221220a419d4aa3940770739d25ba60e8197849ce057aa906c9b0f04faad89b11a3bb964736f6c63430008140033",
  "devdoc": {
    "kind": "dev",
    "methods": {},
    "version": 1
  },
  "userdoc": {
    "kind": "user",
    "methods": {},
    "notice": "This contract acts as a whale account that moves the price of CORN up and down whenever anyone calls it",
    "version": 1
  },
  "storageLayout": {
    "storage": [
      {
        "astId": 1853,
        "contract": "contracts/MovePrice.sol:MovePrice",
        "label": "cornDex",
        "offset": 0,
        "slot": "0",
        "type": "t_contract(CornDEX)1652"
      }
    ],
    "types": {
      "t_contract(CornDEX)1652": {
        "encoding": "inplace",
        "label": "contract CornDEX",
        "numberOfBytes": "20"
      }
    }
  }
}