{
  "_format": "hh-sol-artifact-1",
  "contractName": "Fallback",
  "sourceName": "contracts/Fallback.sol",
  "abi": [
    {
      "inputs": [],
      "stateMutability": "nonpayable",
      "type": "constructor"
    },
    {
      "inputs": [],
      "name": "contribute",
      "outputs": [],
      "stateMutability": "payable",
      "type": "function"
    },
    {
      "inputs": [
        {
          "internalType": "address",
          "name": "",
          "type": "address"
        }
      ],
      "name": "contributions",
      "outputs": [
        {
          "internalType": "uint256",
          "name": "",
          "type": "uint256"
        }
      ],
      "stateMutability": "view",
      "type": "function"
    },
    {
      "inputs": [],
      "name": "getContribution",
      "outputs": [
        {
          "internalType": "uint256",
          "name": "",
          "type": "uint256"
        }
      ],
      "stateMutability": "view",
      "type": "function"
    },
    {
      "inputs": [],
      "name": "owner",
      "outputs": [
        {
          "internalType": "address",
          "name": "",
          "type": "address"
        }
      ],
      "stateMutability": "view",
      "type": "function"
    },
    {
      "inputs": [],
      "name": "withdraw",
      "outputs": [],
      "stateMutability": "nonpayable",
      "type": "function"
    },
    {
      "stateMutability": "payable",
      "type": "receive"
    }
  ],
  "bytecode": "0x6080604052348015600f57600080fd5b5033600160006101000a81548173ffffffffffffffffffffffffffffffffffffffff021916908373ffffffffffffffffffffffffffffffffffffffff160217905550683635c9adc5dea000006000803373ffffffffffffffffffffffffffffffffffffffff1673ffffffffffffffffffffffffffffffffffffffff1681526020019081526020016000208190555061067a806100ac6000396000f3fe60806040526004361061004e5760003560e01c80633ccfd60b146100f157806342e94c90146101085780638da5cb5b14610145578063d7bb99ba14610170578063f10fdf5c1461017a576100ec565b366100ec576000341180156100a1575060008060003373ffffffffffffffffffffffffffffffffffffffff1673ffffffffffffffffffffffffffffffffffffffff16815260200190815260200160002054115b6100aa57600080fd5b33600160006101000a81548173ffffffffffffffffffffffffffffffffffffffff021916908373ffffffffffffffffffffffffffffffffffffffff1602179055005b600080fd5b3480156100fd57600080fd5b506101066101a5565b005b34801561011457600080fd5b5061012f600480360381019061012a91906104d9565b6102a0565b60405161013c919061051f565b60405180910390f35b34801561015157600080fd5b5061015a6102b8565b6040516101679190610549565b60405180910390f35b6101786102de565b005b34801561018657600080fd5b5061018f610430565b60405161019c919061051f565b60405180910390f35b600160009054906101000a900473ffffffffffffffffffffffffffffffffffffffff1673ffffffffffffffffffffffffffffffffffffffff163373ffffffffffffffffffffffffffffffffffffffff1614610235576040517f08c379a000000000000000000000000000000000000000000000000000000000815260040161022c906105c1565b60405180910390fd5b600160009054906101000a900473ffffffffffffffffffffffffffffffffffffffff1673ffffffffffffffffffffffffffffffffffffffff166108fc479081150290604051600060405180830381858888f1935050505015801561029d573d6000803e3d6000fd5b50565b60006020528060005260406000206000915090505481565b600160009054906101000a900473ffffffffffffffffffffffffffffffffffffffff1681565b66038d7ea4c6800034106102f157600080fd5b346000803373ffffffffffffffffffffffffffffffffffffffff1673ffffffffffffffffffffffffffffffffffffffff168152602001908152602001600020600082825461033f9190610610565b92505081905550600080600160009054906101000a900473ffffffffffffffffffffffffffffffffffffffff1673ffffffffffffffffffffffffffffffffffffffff1673ffffffffffffffffffffffffffffffffffffffff168152602001908152602001600020546000803373ffffffffffffffffffffffffffffffffffffffff1673ffffffffffffffffffffffffffffffffffffffff16815260200190815260200160002054111561042e5733600160006101000a81548173ffffffffffffffffffffffffffffffffffffffff021916908373ffffffffffffffffffffffffffffffffffffffff1602179055505b565b60008060003373ffffffffffffffffffffffffffffffffffffffff1673ffffffffffffffffffffffffffffffffffffffff16815260200190815260200160002054905090565b600080fd5b600073ffffffffffffffffffffffffffffffffffffffff82169050919050565b60006104a68261047b565b9050919050565b6104b68161049b565b81146104c157600080fd5b50565b6000813590506104d3816104ad565b92915050565b6000602082840312156104ef576104ee610476565b5b60006104fd848285016104c4565b91505092915050565b6000819050919050565b61051981610506565b82525050565b60006020820190506105346000830184610510565b92915050565b6105438161049b565b82525050565b600060208201905061055e600083018461053a565b92915050565b600082825260208201905092915050565b7f63616c6c6572206973206e6f7420746865206f776e6572000000000000000000600082015250565b60006105ab601783610564565b91506105b682610575565b602082019050919050565b600060208201905081810360008301526105da8161059e565b9050919050565b7f4e487b7100000000000000000000000000000000000000000000000000000000600052601160045260246000fd5b600061061b82610506565b915061062683610506565b925082820190508082111561063e5761063d6105e1565b5b9291505056fea2646970667358221220866a0e19723a889d2cd0fb8dcfb363036ecdab95511e26004385568eb3af496e64736f6c634300081c0033",
  "linkReferences": {},
  "deployedLinkReferences": {}
}