{
  "address": "0xF2AAAf372B1c91Ba025d6BDA464431Dfe1B4B504",
  "abi": [
    {
      "inputs": [],
      "stateMutability": "nonpayable",
      "type": "constructor"
    },
    {
      "inputs": [],
      "name": "getBTCDecimals",
      "outputs": [
        {
          "internalType": "uint8",
          "name": "",
          "type": "uint8"
        }
      ],
      "stateMutability": "view",
      "type": "function"
    },
    {
      "inputs": [],
      "name": "getBTCPrice",
      "outputs": [
        {
          "internalType": "int256",
          "name": "",
          "type": "int256"
        }
      ],
      "stateMutability": "view",
      "type": "function"
    },
    {
      "inputs": [],
      "name": "getETHDecimals",
      "outputs": [
        {
          "internalType": "uint8",
          "name": "",
          "type": "uint8"
        }
      ],
      "stateMutability": "view",
      "type": "function"
    },
    {
      "inputs": [],
      "name": "getETHPrice",
      "outputs": [
        {
          "internalType": "int256",
          "name": "",
          "type": "int256"
        }
      ],
      "stateMutability": "view",
      "type": "function"
    }
  ],
  "transactionHash": "0x62f3e99d69badc481c6f3ecdb0309040fe9d574ef0fe2ecd7e97af72d0ee5dae",
  "args": [],
  "numDeployments": 1,
  "solcInputHash": "1d5c78f5d43c1eaef92fd97599bf52e1",
  "bytecode": "0x608060405234801561001057600080fd5b50600080546001600160a01b0319908116733015aa11f5c2d4bd0f891e708c8927961b38ce7d17909155600180549091167361ec26aa57019c486b10502285c5a3d4a4750ad71790556102fb806100686000396000f3fe608060405234801561001057600080fd5b506004361061004c5760003560e01c806315e94f9314610051578063a607a8d914610070578063d53f222314610086578063dd22db801461008e575b600080fd5b610059610096565b60405160ff90911681526020015b60405180910390f35b610078610113565b604051908152602001610067565b610059610198565b6100786101e2565b60008060009054906101000a90046001600160a01b03166001600160a01b031663313ce5676040518163ffffffff1660e01b8152600401602060405180830381865afa1580156100ea573d6000803e3d6000fd5b505050506040513d601f19601f8201168201806040525081019061010e919061022c565b905090565b600080600160009054906101000a90046001600160a01b03166001600160a01b031663feaf968c6040518163ffffffff1660e01b815260040160a060405180830381865afa158015610169573d6000803e3d6000fd5b505050506040513d601f19601f8201168201806040525081019061018d9190610275565b509195945050505050565b6001546040805163313ce56760e01b815290516000926001600160a01b03169163313ce5679160048083019260209291908290030181865afa1580156100ea573d6000803e3d6000fd5b6000805460408051633fabe5a360e21b8152905183926001600160a01b03169163feaf968c9160048083019260a09291908290030181865afa158015610169573d6000803e3d6000fd5b60006020828403121561023e57600080fd5b815160ff8116811461024f57600080fd5b9392505050565b805169ffffffffffffffffffff8116811461027057600080fd5b919050565b600080600080600060a0868803121561028d57600080fd5b61029686610256565b94506020860151935060408601519250606086015191506102b960808701610256565b9050929550929590935056fea264697066735822122047862a359c6ea580466c933f8c60388d227e1d37b950f09c8a15b9191543212f64736f6c63430008140033",
  "devdoc": {
    "kind": "dev",
    "methods": {},
    "version": 1
  },
  "userdoc": {
    "kind": "user",
    "methods": {
      "constructor": {
        "notice": "預設建構子設置不同網絡的 Chainlink 預言機地址 使用 OP Sepolia 測試網的地址 BTC/USD: 0x3015aa11f5c2D4Bd0f891E708C8927961b38cE7D ETH/USD: 0x61Ec26aA57019C486B10502285c5A3D4A4750AD7"
      },
      "getBTCDecimals()": {
        "notice": "返回 BTC/USD 價格小數位數"
      },
      "getBTCPrice()": {
        "notice": "返回最新的 BTC/USD 價格"
      },
      "getETHDecimals()": {
        "notice": "返回 ETH/USD 價格小數位數"
      },
      "getETHPrice()": {
        "notice": "返回最新的 ETH/USD 價格"
      }
    },
    "version": 1
  },
  "storageLayout": {
    "storage": [
      {
        "astId": 49,
        "contract": "contracts/PriceFeed.sol:PriceFeed",
        "label": "btcPriceFeed",
        "offset": 0,
        "slot": "0",
        "type": "t_contract(AggregatorV3Interface)46"
      },
      {
        "astId": 52,
        "contract": "contracts/PriceFeed.sol:PriceFeed",
        "label": "ethPriceFeed",
        "offset": 0,
        "slot": "1",
        "type": "t_contract(AggregatorV3Interface)46"
      }
    ],
    "types": {
      "t_contract(AggregatorV3Interface)46": {
        "encoding": "inplace",
        "label": "contract AggregatorV3Interface",
        "numberOfBytes": "20"
      }
    }
  }
}