{
  "address": "0x4D034B4284c47bCeE4F23dc8a0f53F90AA63710c",
  "abi": [
    {
      "inputs": [],
      "name": "InvalidInitialization",
      "type": "error"
    },
    {
      "inputs": [],
      "name": "NotInitializing",
      "type": "error"
    },
    {
      "anonymous": false,
      "inputs": [
        {
          "indexed": false,
          "internalType": "uint64",
          "name": "version",
          "type": "uint64"
        }
      ],
      "name": "Initialized",
      "type": "event"
    },
    {
      "inputs": [
        {
          "internalType": "uint256",
          "name": "_numSodas",
          "type": "uint256"
        }
      ],
      "name": "initialize",
      "outputs": [],
      "stateMutability": "nonpayable",
      "type": "function"
    },
    {
      "inputs": [],
      "name": "numSodas",
      "outputs": [
        {
          "internalType": "uint256",
          "name": "",
          "type": "uint256"
        }
      ],
      "stateMutability": "view",
      "type": "function"
    },
    {
      "inputs": [],
      "name": "owner",
      "outputs": [
        {
          "internalType": "address",
          "name": "",
          "type": "address"
        }
      ],
      "stateMutability": "view",
      "type": "function"
    },
    {
      "inputs": [],
      "name": "purchaseSoda",
      "outputs": [],
      "stateMutability": "payable",
      "type": "function"
    }
  ],
  "args": [
    100
  ],
  "numDeployments": 1,
  "bytecode": "0x608060405234801561001057600080fd5b506102d7806100206000396000f3fe60806040526004361061003f5760003560e01c806363b18329146100445780637454ab6d1461006d5780638da5cb5b14610077578063fe4b84df146100af575b600080fd5b34801561005057600080fd5b5061005a60005481565b6040519081526020015b60405180910390f35b6100756100cf565b005b34801561008357600080fd5b50600154610097906001600160a01b031681565b6040516001600160a01b039091168152602001610064565b3480156100bb57600080fd5b506100756100ca366004610263565b610145565b6103e834101561012f5760405162461bcd60e51b815260206004820152602160248201527f596f75206d7573742070617920313030302077656920666f72206120736f64616044820152602160f81b606482015260840160405180910390fd5b60008054908061013e8361027c565b9190505550565b7ff0c57e16840df040f15088dc2f81fe391c3923bec73e23a9662efc9c229c6a008054600160401b810460ff16159067ffffffffffffffff1660008115801561018b5750825b905060008267ffffffffffffffff1660011480156101a85750303b155b9050811580156101b6575080155b156101d45760405163f92ee8a960e01b815260040160405180910390fd5b845467ffffffffffffffff1916600117855583156101fe57845460ff60401b1916600160401b1785555b6000869055600180546001600160a01b03191633179055831561025b57845460ff60401b19168555604051600181527fc7f505b2f371ae2175ee4913f4499e1f2633a7b5936321eed1cdaeb6115181d29060200160405180910390a15b505050505050565b60006020828403121561027557600080fd5b5035919050565b60008161029957634e487b7160e01b600052601160045260246000fd5b50600019019056fea2646970667358221220f7070bc6fd5d696cd4bebffd6d956f25940ad0f4755ad052de17660fb48ff17664736f6c63430008140033"
}