{
  "_format": "hh-sol-artifact-1",
  "contractName": "LepusToken",
  "sourceName": "contracts/LepusToken.sol",
  "abi": [
    {
      "inputs": [],
      "stateMutability": "nonpayable",
      "type": "constructor"
    },
    {
      "inputs": [
        {
          "internalType": "address",
          "name": "spender",
          "type": "address"
        },
        {
          "internalType": "uint256",
          "name": "allowance",
          "type": "uint256"
        },
        {
          "internalType": "uint256",
          "name": "needed",
          "type": "uint256"
        }
      ],
      "name": "ERC20InsufficientAllowance",
      "type": "error"
    },
    {
      "inputs": [
        {
          "internalType": "address",
          "name": "sender",
          "type": "address"
        },
        {
          "internalType": "uint256",
          "name": "balance",
          "type": "uint256"
        },
        {
          "internalType": "uint256",
          "name": "needed",
          "type": "uint256"
        }
      ],
      "name": "ERC20InsufficientBalance",
      "type": "error"
    },
    {
      "inputs": [
        {
          "internalType": "address",
          "name": "approver",
          "type": "address"
        }
      ],
      "name": "ERC20InvalidApprover",
      "type": "error"
    },
    {
      "inputs": [
        {
          "internalType": "address",
          "name": "receiver",
          "type": "address"
        }
      ],
      "name": "ERC20InvalidReceiver",
      "type": "error"
    },
    {
      "inputs": [
        {
          "internalType": "address",
          "name": "sender",
          "type": "address"
        }
      ],
      "name": "ERC20InvalidSender",
      "type": "error"
    },
    {
      "inputs": [
        {
          "internalType": "address",
          "name": "spender",
          "type": "address"
        }
      ],
      "name": "ERC20InvalidSpender",
      "type": "error"
    },
    {
      "anonymous": false,
      "inputs": [
        {
          "indexed": true,
          "internalType": "address",
          "name": "owner",
          "type": "address"
        },
        {
          "indexed": true,
          "internalType": "address",
          "name": "spender",
          "type": "address"
        },
        {
          "indexed": false,
          "internalType": "uint256",
          "name": "value",
          "type": "uint256"
        }
      ],
      "name": "Approval",
      "type": "event"
    },
    {
      "anonymous": false,
      "inputs": [
        {
          "indexed": true,
          "internalType": "address",
          "name": "from",
          "type": "address"
        },
        {
          "indexed": true,
          "internalType": "address",
          "name": "to",
          "type": "address"
        },
        {
          "indexed": false,
          "internalType": "uint256",
          "name": "value",
          "type": "uint256"
        }
      ],
      "name": "Transfer",
      "type": "event"
    },
    {
      "inputs": [],
      "name": "DEPLOYMENT_TIMESTAMP",
      "outputs": [
        {
          "internalType": "uint256",
          "name": "",
          "type": "uint256"
        }
      ],
      "stateMutability": "view",
      "type": "function"
    },
    {
      "inputs": [],
      "name": "TWD_TOTAL_SUPPLY",
      "outputs": [
        {
          "internalType": "uint256",
          "name": "",
          "type": "uint256"
        }
      ],
      "stateMutability": "view",
      "type": "function"
    },
    {
      "inputs": [
        {
          "internalType": "address",
          "name": "owner",
          "type": "address"
        },
        {
          "internalType": "address",
          "name": "spender",
          "type": "address"
        }
      ],
      "name": "allowance",
      "outputs": [
        {
          "internalType": "uint256",
          "name": "",
          "type": "uint256"
        }
      ],
      "stateMutability": "view",
      "type": "function"
    },
    {
      "inputs": [
        {
          "internalType": "address",
          "name": "spender",
          "type": "address"
        },
        {
          "internalType": "uint256",
          "name": "value",
          "type": "uint256"
        }
      ],
      "name": "approve",
      "outputs": [
        {
          "internalType": "bool",
          "name": "",
          "type": "bool"
        }
      ],
      "stateMutability": "nonpayable",
      "type": "function"
    },
    {
      "inputs": [
        {
          "internalType": "address",
          "name": "account",
          "type": "address"
        }
      ],
      "name": "balanceOf",
      "outputs": [
        {
          "internalType": "uint256",
          "name": "",
          "type": "uint256"
        }
      ],
      "stateMutability": "view",
      "type": "function"
    },
    {
      "inputs": [],
      "name": "decimals",
      "outputs": [
        {
          "internalType": "uint8",
          "name": "",
          "type": "uint8"
        }
      ],
      "stateMutability": "view",
      "type": "function"
    },
    {
      "inputs": [],
      "name": "name",
      "outputs": [
        {
          "internalType": "string",
          "name": "",
          "type": "string"
        }
      ],
      "stateMutability": "view",
      "type": "function"
    },
    {
      "inputs": [],
      "name": "symbol",
      "outputs": [
        {
          "internalType": "string",
          "name": "",
          "type": "string"
        }
      ],
      "stateMutability": "view",
      "type": "function"
    },
    {
      "inputs": [],
      "name": "totalSupply",
      "outputs": [
        {
          "internalType": "uint256",
          "name": "",
          "type": "uint256"
        }
      ],
      "stateMutability": "view",
      "type": "function"
    },
    {
      "inputs": [
        {
          "internalType": "address",
          "name": "to",
          "type": "address"
        },
        {
          "internalType": "uint256",
          "name": "value",
          "type": "uint256"
        }
      ],
      "name": "transfer",
      "outputs": [
        {
          "internalType": "bool",
          "name": "",
          "type": "bool"
        }
      ],
      "stateMutability": "nonpayable",
      "type": "function"
    },
    {
      "inputs": [
        {
          "internalType": "address",
          "name": "from",
          "type": "address"
        },
        {
          "internalType": "address",
          "name": "to",
          "type": "address"
        },
        {
          "internalType": "uint256",
          "name": "value",
          "type": "uint256"
        }
      ],
      "name": "transferFrom",
      "outputs": [
        {
          "internalType": "bool",
          "name": "",
          "type": "bool"
        }
      ],
      "stateMutability": "nonpayable",
      "type": "function"
    }
  ],
  "bytecode": "0x60a060405234801561001057600080fd5b506040518060400160405280600a81526020017f4c65707573546f6b656e000000000000000000000000000000000000000000008152506040518060400160405280600381526020017f4c50540000000000000000000000000000000000000000000000000000000000815250816003908161008c91906105ec565b50806004908161009c91906105ec565b50505042608081815250506100e1336100b96100e660201b60201c565b600a6100c5919061082d565b653a9ff78687c06100d69190610878565b6100ef60201b60201c565b6109ab565b60006012905090565b600073ffffffffffffffffffffffffffffffffffffffff168273ffffffffffffffffffffffffffffffffffffffff16036101615760006040517fec442f0500000000000000000000000000000000000000000000000000000000815260040161015891906108fb565b60405180910390fd5b6101736000838361017760201b60201c565b5050565b600073ffffffffffffffffffffffffffffffffffffffff168373ffffffffffffffffffffffffffffffffffffffff16036101c95780600260008282546101bd9190610916565b9250508190555061029c565b60008060008573ffffffffffffffffffffffffffffffffffffffff1673ffffffffffffffffffffffffffffffffffffffff16815260200190815260200160002054905081811015610255578381836040517fe450d38c00000000000000000000000000000000000000000000000000000000815260040161024c93929190610959565b60405180910390fd5b8181036000808673ffffffffffffffffffffffffffffffffffffffff1673ffffffffffffffffffffffffffffffffffffffff16815260200190815260200160002081905550505b600073ffffffffffffffffffffffffffffffffffffffff168273ffffffffffffffffffffffffffffffffffffffff16036102e55780600260008282540392505081905550610332565b806000808473ffffffffffffffffffffffffffffffffffffffff1673ffffffffffffffffffffffffffffffffffffffff168152602001908152602001600020600082825401925050819055505b8173ffffffffffffffffffffffffffffffffffffffff168373ffffffffffffffffffffffffffffffffffffffff167fddf252ad1be2c89b69c2b068fc378daa952ba7f163c4a11628f55a4df523b3ef8360405161038f9190610990565b60405180910390a3505050565b600081519050919050565b7f4e487b7100000000000000000000000000000000000000000000000000000000600052604160045260246000fd5b7f4e487b7100000000000000000000000000000000000000000000000000000000600052602260045260246000fd5b6000600282049050600182168061041d57607f821691505b6020821081036104305761042f6103d6565b5b50919050565b60008190508160005260206000209050919050565b60006020601f8301049050919050565b600082821b905092915050565b6000600883026104987fffffffffffffffffffffffffffffffffffffffffffffffffffffffffffffffff8261045b565b6104a2868361045b565b95508019841693508086168417925050509392505050565b6000819050919050565b6000819050919050565b60006104e96104e46104df846104ba565b6104c4565b6104ba565b9050919050565b6000819050919050565b610503836104ce565b61051761050f826104f0565b848454610468565b825550505050565b600090565b61052c61051f565b6105378184846104fa565b505050565b5b8181101561055b57610550600082610524565b60018101905061053d565b5050565b601f8211156105a05761057181610436565b61057a8461044b565b81016020851015610589578190505b61059d6105958561044b565b83018261053c565b50505b505050565b600082821c905092915050565b60006105c3600019846008026105a5565b1980831691505092915050565b60006105dc83836105b2565b9150826002028217905092915050565b6105f58261039c565b67ffffffffffffffff81111561060e5761060d6103a7565b5b6106188254610405565b61062382828561055f565b600060209050601f8311600181146106565760008415610644578287015190505b61064e85826105d0565b8655506106b6565b601f19841661066486610436565b60005b8281101561068c57848901518255600182019150602085019450602081019050610667565b868310156106a957848901516106a5601f8916826105b2565b8355505b6001600288020188555050505b505050505050565b7f4e487b7100000000000000000000000000000000000000000000000000000000600052601160045260246000fd5b60008160011c9050919050565b6000808291508390505b6001851115610744578086048111156107205761071f6106be565b5b600185161561072f5780820291505b808102905061073d856106ed565b9450610704565b94509492505050565b60008261075d5760019050610819565b8161076b5760009050610819565b8160018114610781576002811461078b576107ba565b6001915050610819565b60ff84111561079d5761079c6106be565b5b8360020a9150848211156107b4576107b36106be565b5b50610819565b5060208310610133831016604e8410600b84101617156107ef5782820a9050838111156107ea576107e96106be565b5b610819565b6107fc84848460016106fa565b92509050818404811115610813576108126106be565b5b81810290505b9392505050565b600060ff82169050919050565b6000610838826104ba565b915061084383610820565b92506108707fffffffffffffffffffffffffffffffffffffffffffffffffffffffffffffffff848461074d565b905092915050565b6000610883826104ba565b915061088e836104ba565b925082820261089c816104ba565b915082820484148315176108b3576108b26106be565b5b5092915050565b600073ffffffffffffffffffffffffffffffffffffffff82169050919050565b60006108e5826108ba565b9050919050565b6108f5816108da565b82525050565b600060208201905061091060008301846108ec565b92915050565b6000610921826104ba565b915061092c836104ba565b9250828201905080821115610944576109436106be565b5b92915050565b610953816104ba565b82525050565b600060608201905061096e60008301866108ec565b61097b602083018561094a565b610988604083018461094a565b949350505050565b60006020820190506109a5600083018461094a565b92915050565b608051610ed66109c660003960006104d90152610ed66000f3fe608060405234801561001057600080fd5b50600436106100a95760003560e01c806370a082311161007157806370a082311461016857806395d89b4114610198578063a9059cbb146101b6578063d22cb9b2146101e6578063dd62ed3e14610204578063fbc6def714610234576100a9565b806306fdde03146100ae578063095ea7b3146100cc57806318160ddd146100fc57806323b872dd1461011a578063313ce5671461014a575b600080fd5b6100b6610252565b6040516100c39190610b2a565b60405180910390f35b6100e660048036038101906100e19190610be5565b6102e4565b6040516100f39190610c40565b60405180910390f35b610104610307565b6040516101119190610c6a565b60405180910390f35b610134600480360381019061012f9190610c85565b610311565b6040516101419190610c40565b60405180910390f35b610152610340565b60405161015f9190610cf4565b60405180910390f35b610182600480360381019061017d9190610d0f565b610349565b60405161018f9190610c6a565b60405180910390f35b6101a0610391565b6040516101ad9190610b2a565b60405180910390f35b6101d060048036038101906101cb9190610be5565b610423565b6040516101dd9190610c40565b60405180910390f35b6101ee610446565b6040516101fb9190610c6a565b60405180910390f35b61021e60048036038101906102199190610d3c565b610450565b60405161022b9190610c6a565b60405180910390f35b61023c6104d7565b6040516102499190610c6a565b60405180910390f35b60606003805461026190610dab565b80601f016020809104026020016040519081016040528092919081815260200182805461028d90610dab565b80156102da5780601f106102af576101008083540402835291602001916102da565b820191906000526020600020905b8154815290600101906020018083116102bd57829003601f168201915b5050505050905090565b6000806102ef6104fb565b90506102fc818585610503565b600191505092915050565b6000600254905090565b60008061031c6104fb565b9050610329858285610515565b6103348585856105aa565b60019150509392505050565b60006012905090565b60008060008373ffffffffffffffffffffffffffffffffffffffff1673ffffffffffffffffffffffffffffffffffffffff168152602001908152602001600020549050919050565b6060600480546103a090610dab565b80601f01602080910402602001604051908101604052809291908181526020018280546103cc90610dab565b80156104195780601f106103ee57610100808354040283529160200191610419565b820191906000526020600020905b8154815290600101906020018083116103fc57829003601f168201915b5050505050905090565b60008061042e6104fb565b905061043b8185856105aa565b600191505092915050565b653a9ff78687c081565b6000600160008473ffffffffffffffffffffffffffffffffffffffff1673ffffffffffffffffffffffffffffffffffffffff16815260200190815260200160002060008373ffffffffffffffffffffffffffffffffffffffff1673ffffffffffffffffffffffffffffffffffffffff16815260200190815260200160002054905092915050565b7f000000000000000000000000000000000000000000000000000000000000000081565b600033905090565b610510838383600161069e565b505050565b60006105218484610450565b90507fffffffffffffffffffffffffffffffffffffffffffffffffffffffffffffffff8110156105a45781811015610594578281836040517ffb8f41b200000000000000000000000000000000000000000000000000000000815260040161058b93929190610deb565b60405180910390fd5b6105a38484848403600061069e565b5b50505050565b600073ffffffffffffffffffffffffffffffffffffffff168373ffffffffffffffffffffffffffffffffffffffff160361061c5760006040517f96c6fd1e0000000000000000000000000000000000000000000000000000000081526004016106139190610e22565b60405180910390fd5b600073ffffffffffffffffffffffffffffffffffffffff168273ffffffffffffffffffffffffffffffffffffffff160361068e5760006040517fec442f050000000000000000000000000000000000000000000000000000000081526004016106859190610e22565b60405180910390fd5b610699838383610875565b505050565b600073ffffffffffffffffffffffffffffffffffffffff168473ffffffffffffffffffffffffffffffffffffffff16036107105760006040517fe602df050000000000000000000000000000000000000000000000000000000081526004016107079190610e22565b60405180910390fd5b600073ffffffffffffffffffffffffffffffffffffffff168373ffffffffffffffffffffffffffffffffffffffff16036107825760006040517f94280d620000000000000000000000000000000000000000000000000000000081526004016107799190610e22565b60405180910390fd5b81600160008673ffffffffffffffffffffffffffffffffffffffff1673ffffffffffffffffffffffffffffffffffffffff16815260200190815260200160002060008573ffffffffffffffffffffffffffffffffffffffff1673ffffffffffffffffffffffffffffffffffffffff16815260200190815260200160002081905550801561086f578273ffffffffffffffffffffffffffffffffffffffff168473ffffffffffffffffffffffffffffffffffffffff167f8c5be1e5ebec7d5bd14f71427d1e84f3dd0314c0f7b2291e5b200ac8c7c3b925846040516108669190610c6a565b60405180910390a35b50505050565b600073ffffffffffffffffffffffffffffffffffffffff168373ffffffffffffffffffffffffffffffffffffffff16036108c75780600260008282546108bb9190610e6c565b9250508190555061099a565b60008060008573ffffffffffffffffffffffffffffffffffffffff1673ffffffffffffffffffffffffffffffffffffffff16815260200190815260200160002054905081811015610953578381836040517fe450d38c00000000000000000000000000000000000000000000000000000000815260040161094a93929190610deb565b60405180910390fd5b8181036000808673ffffffffffffffffffffffffffffffffffffffff1673ffffffffffffffffffffffffffffffffffffffff16815260200190815260200160002081905550505b600073ffffffffffffffffffffffffffffffffffffffff168273ffffffffffffffffffffffffffffffffffffffff16036109e35780600260008282540392505081905550610a30565b806000808473ffffffffffffffffffffffffffffffffffffffff1673ffffffffffffffffffffffffffffffffffffffff168152602001908152602001600020600082825401925050819055505b8173ffffffffffffffffffffffffffffffffffffffff168373ffffffffffffffffffffffffffffffffffffffff167fddf252ad1be2c89b69c2b068fc378daa952ba7f163c4a11628f55a4df523b3ef83604051610a8d9190610c6a565b60405180910390a3505050565b600081519050919050565b600082825260208201905092915050565b60005b83811015610ad4578082015181840152602081019050610ab9565b60008484015250505050565b6000601f19601f8301169050919050565b6000610afc82610a9a565b610b068185610aa5565b9350610b16818560208601610ab6565b610b1f81610ae0565b840191505092915050565b60006020820190508181036000830152610b448184610af1565b905092915050565b600080fd5b600073ffffffffffffffffffffffffffffffffffffffff82169050919050565b6000610b7c82610b51565b9050919050565b610b8c81610b71565b8114610b9757600080fd5b50565b600081359050610ba981610b83565b92915050565b6000819050919050565b610bc281610baf565b8114610bcd57600080fd5b50565b600081359050610bdf81610bb9565b92915050565b60008060408385031215610bfc57610bfb610b4c565b5b6000610c0a85828601610b9a565b9250506020610c1b85828601610bd0565b9150509250929050565b60008115159050919050565b610c3a81610c25565b82525050565b6000602082019050610c556000830184610c31565b92915050565b610c6481610baf565b82525050565b6000602082019050610c7f6000830184610c5b565b92915050565b600080600060608486031215610c9e57610c9d610b4c565b5b6000610cac86828701610b9a565b9350506020610cbd86828701610b9a565b9250506040610cce86828701610bd0565b9150509250925092565b600060ff82169050919050565b610cee81610cd8565b82525050565b6000602082019050610d096000830184610ce5565b92915050565b600060208284031215610d2557610d24610b4c565b5b6000610d3384828501610b9a565b91505092915050565b60008060408385031215610d5357610d52610b4c565b5b6000610d6185828601610b9a565b9250506020610d7285828601610b9a565b9150509250929050565b7f4e487b7100000000000000000000000000000000000000000000000000000000600052602260045260246000fd5b60006002820490506001821680610dc357607f821691505b602082108103610dd657610dd5610d7c565b5b50919050565b610de581610b71565b82525050565b6000606082019050610e006000830186610ddc565b610e0d6020830185610c5b565b610e1a6040830184610c5b565b949350505050565b6000602082019050610e376000830184610ddc565b92915050565b7f4e487b7100000000000000000000000000000000000000000000000000000000600052601160045260246000fd5b6000610e7782610baf565b9150610e8283610baf565b9250828201905080821115610e9a57610e99610e3d565b5b9291505056fea2646970667358221220b13a67132677e7ae0929f9adf05bca2a5193dcd45d831c1d9857d879de5ef05764736f6c634300081c0033",
  "linkReferences": {},
  "deployedLinkReferences": {}
}