{
  "address": "0x5556208AB9df373289C113247AFF77f9De2f06C5",
  "abi": [
    {
      "inputs": [
        {
          "internalType": "address",
          "name": "_liquidityProvider",
          "type": "address"
        },
        {
          "internalType": "address",
          "name": "_oracle",
          "type": "address"
        },
        {
          "internalType": "string",
          "name": "_question",
          "type": "string"
        },
        {
          "internalType": "uint256",
          "name": "_initialTokenValue",
          "type": "uint256"
        },
        {
          "internalType": "uint8",
          "name": "_initialYesProbability",
          "type": "uint8"
        },
        {
          "internalType": "uint8",
          "name": "_percentageToLock",
          "type": "uint8"
        }
      ],
      "stateMutability": "payable",
      "type": "constructor"
    },
    {
      "inputs": [
        {
          "internalType": "address",
          "name": "owner",
          "type": "address"
        }
      ],
      "name": "OwnableInvalidOwner",
      "type": "error"
    },
    {
      "inputs": [
        {
          "internalType": "address",
          "name": "account",
          "type": "address"
        }
      ],
      "name": "OwnableUnauthorizedAccount",
      "type": "error"
    },
    {
      "inputs": [],
      "name": "PredictionMarket__AmountMustBeGreaterThanZero",
      "type": "error"
    },
    {
      "inputs": [],
      "name": "PredictionMarket__ETHTransferFailed",
      "type": "error"
    },
    {
      "inputs": [
        {
          "internalType": "uint256",
          "name": "_tradingAmount",
          "type": "uint256"
        },
        {
          "internalType": "uint256",
          "name": "_allowance",
          "type": "uint256"
        }
      ],
      "name": "PredictionMarket__InsufficientAllowance",
      "type": "error"
    },
    {
      "inputs": [
        {
          "internalType": "uint256",
          "name": "_tradingAmount",
          "type": "uint256"
        },
        {
          "internalType": "uint256",
          "name": "_userBalance",
          "type": "uint256"
        }
      ],
      "name": "PredictionMarket__InsufficientBalance",
      "type": "error"
    },
    {
      "inputs": [],
      "name": "PredictionMarket__InsufficientLiquidity",
      "type": "error"
    },
    {
      "inputs": [
        {
          "internalType": "enum PredictionMarket.Outcome",
          "name": "_outcome",
          "type": "uint8"
        },
        {
          "internalType": "uint256",
          "name": "_amountToken",
          "type": "uint256"
        }
      ],
      "name": "PredictionMarket__InsufficientTokenReserve",
      "type": "error"
    },
    {
      "inputs": [],
      "name": "PredictionMarket__InsufficientWinningTokens",
      "type": "error"
    },
    {
      "inputs": [],
      "name": "PredictionMarket__InvalidPercentageToLock",
      "type": "error"
    },
    {
      "inputs": [],
      "name": "PredictionMarket__InvalidProbability",
      "type": "error"
    },
    {
      "inputs": [],
      "name": "PredictionMarket__MustProvideETHForInitialLiquidity",
      "type": "error"
    },
    {
      "inputs": [],
      "name": "PredictionMarket__MustSendExactETHAmount",
      "type": "error"
    },
    {
      "inputs": [],
      "name": "PredictionMarket__OnlyOracleCanReport",
      "type": "error"
    },
    {
      "inputs": [],
      "name": "PredictionMarket__OwnerCannotCall",
      "type": "error"
    },
    {
      "inputs": [],
      "name": "PredictionMarket__PredictionAlreadyReported",
      "type": "error"
    },
    {
      "inputs": [],
      "name": "PredictionMarket__PredictionNotReported",
      "type": "error"
    },
    {
      "inputs": [],
      "name": "PredictionMarket__TokenTransferFailed",
      "type": "error"
    },
    {
      "anonymous": false,
      "inputs": [
        {
          "indexed": true,
          "internalType": "address",
          "name": "provider",
          "type": "address"
        },
        {
          "indexed": false,
          "internalType": "uint256",
          "name": "ethAmount",
          "type": "uint256"
        },
        {
          "indexed": false,
          "internalType": "uint256",
          "name": "tokensAmount",
          "type": "uint256"
        }
      ],
      "name": "LiquidityAdded",
      "type": "event"
    },
    {
      "anonymous": false,
      "inputs": [
        {
          "indexed": true,
          "internalType": "address",
          "name": "provider",
          "type": "address"
        },
        {
          "indexed": false,
          "internalType": "uint256",
          "name": "ethAmount",
          "type": "uint256"
        },
        {
          "indexed": false,
          "internalType": "uint256",
          "name": "tokensAmount",
          "type": "uint256"
        }
      ],
      "name": "LiquidityRemoved",
      "type": "event"
    },
    {
      "anonymous": false,
      "inputs": [
        {
          "indexed": true,
          "internalType": "address",
          "name": "oracle",
          "type": "address"
        },
        {
          "indexed": false,
          "internalType": "enum PredictionMarket.Outcome",
          "name": "winningOutcome",
          "type": "uint8"
        },
        {
          "indexed": false,
          "internalType": "address",
          "name": "winningToken",
          "type": "address"
        }
      ],
      "name": "MarketReported",
      "type": "event"
    },
    {
      "anonymous": false,
      "inputs": [
        {
          "indexed": true,
          "internalType": "address",
          "name": "resolver",
          "type": "address"
        },
        {
          "indexed": false,
          "internalType": "uint256",
          "name": "totalEthToSend",
          "type": "uint256"
        }
      ],
      "name": "MarketResolved",
      "type": "event"
    },
    {
      "anonymous": false,
      "inputs": [
        {
          "indexed": true,
          "internalType": "address",
          "name": "previousOwner",
          "type": "address"
        },
        {
          "indexed": true,
          "internalType": "address",
          "name": "newOwner",
          "type": "address"
        }
      ],
      "name": "OwnershipTransferred",
      "type": "event"
    },
    {
      "anonymous": false,
      "inputs": [
        {
          "indexed": true,
          "internalType": "address",
          "name": "buyer",
          "type": "address"
        },
        {
          "indexed": false,
          "internalType": "enum PredictionMarket.Outcome",
          "name": "outcome",
          "type": "uint8"
        },
        {
          "indexed": false,
          "internalType": "uint256",
          "name": "amount",
          "type": "uint256"
        },
        {
          "indexed": false,
          "internalType": "uint256",
          "name": "ethAmount",
          "type": "uint256"
        }
      ],
      "name": "TokensPurchased",
      "type": "event"
    },
    {
      "anonymous": false,
      "inputs": [
        {
          "indexed": true,
          "internalType": "address",
          "name": "seller",
          "type": "address"
        },
        {
          "indexed": false,
          "internalType": "enum PredictionMarket.Outcome",
          "name": "outcome",
          "type": "uint8"
        },
        {
          "indexed": false,
          "internalType": "uint256",
          "name": "amount",
          "type": "uint256"
        },
        {
          "indexed": false,
          "internalType": "uint256",
          "name": "ethAmount",
          "type": "uint256"
        }
      ],
      "name": "TokensSold",
      "type": "event"
    },
    {
      "anonymous": false,
      "inputs": [
        {
          "indexed": true,
          "internalType": "address",
          "name": "redeemer",
          "type": "address"
        },
        {
          "indexed": false,
          "internalType": "uint256",
          "name": "amount",
          "type": "uint256"
        },
        {
          "indexed": false,
          "internalType": "uint256",
          "name": "ethAmount",
          "type": "uint256"
        }
      ],
      "name": "WinningTokensRedeemed",
      "type": "event"
    },
    {
      "inputs": [],
      "name": "addLiquidity",
      "outputs": [],
      "stateMutability": "payable",
      "type": "function"
    },
    {
      "inputs": [
        {
          "internalType": "enum PredictionMarket.Outcome",
          "name": "_outcome",
          "type": "uint8"
        },
        {
          "internalType": "uint256",
          "name": "_amountTokenToBuy",
          "type": "uint256"
        }
      ],
      "name": "buyTokensWithETH",
      "outputs": [],
      "stateMutability": "payable",
      "type": "function"
    },
    {
      "inputs": [
        {
          "internalType": "enum PredictionMarket.Outcome",
          "name": "_outcome",
          "type": "uint8"
        },
        {
          "internalType": "uint256",
          "name": "_tradingAmount",
          "type": "uint256"
        }
      ],
      "name": "getBuyPriceInEth",
      "outputs": [
        {
          "internalType": "uint256",
          "name": "",
          "type": "uint256"
        }
      ],
      "stateMutability": "view",
      "type": "function"
    },
    {
      "inputs": [],
      "name": "getPrediction",
      "outputs": [
        {
          "internalType": "string",
          "name": "question",
          "type": "string"
        },
        {
          "internalType": "string",
          "name": "outcome1",
          "type": "string"
        },
        {
          "internalType": "string",
          "name": "outcome2",
          "type": "string"
        },
        {
          "internalType": "address",
          "name": "oracle",
          "type": "address"
        },
        {
          "internalType": "uint256",
          "name": "initialTokenValue",
          "type": "uint256"
        },
        {
          "internalType": "uint256",
          "name": "yesTokenReserve",
          "type": "uint256"
        },
        {
          "internalType": "uint256",
          "name": "noTokenReserve",
          "type": "uint256"
        },
        {
          "internalType": "bool",
          "name": "isReported",
          "type": "bool"
        },
        {
          "internalType": "address",
          "name": "yesToken",
          "type": "address"
        },
        {
          "internalType": "address",
          "name": "noToken",
          "type": "address"
        },
        {
          "internalType": "address",
          "name": "winningToken",
          "type": "address"
        },
        {
          "internalType": "uint256",
          "name": "ethCollateral",
          "type": "uint256"
        },
        {
          "internalType": "uint256",
          "name": "lpTradingRevenue",
          "type": "uint256"
        },
        {
          "internalType": "address",
          "name": "predictionMarketOwner",
          "type": "address"
        },
        {
          "internalType": "uint256",
          "name": "initialProbability",
          "type": "uint256"
        },
        {
          "internalType": "uint256",
          "name": "percentageLocked",
          "type": "uint256"
        }
      ],
      "stateMutability": "view",
      "type": "function"
    },
    {
      "inputs": [
        {
          "internalType": "enum PredictionMarket.Outcome",
          "name": "_outcome",
          "type": "uint8"
        },
        {
          "internalType": "uint256",
          "name": "_tradingAmount",
          "type": "uint256"
        }
      ],
      "name": "getSellPriceInEth",
      "outputs": [
        {
          "internalType": "uint256",
          "name": "",
          "type": "uint256"
        }
      ],
      "stateMutability": "view",
      "type": "function"
    },
    {
      "inputs": [],
      "name": "i_initialTokenValue",
      "outputs": [
        {
          "internalType": "uint256",
          "name": "",
          "type": "uint256"
        }
      ],
      "stateMutability": "view",
      "type": "function"
    },
    {
      "inputs": [],
      "name": "i_initialYesProbability",
      "outputs": [
        {
          "internalType": "uint256",
          "name": "",
          "type": "uint256"
        }
      ],
      "stateMutability": "view",
      "type": "function"
    },
    {
      "inputs": [],
      "name": "i_noToken",
      "outputs": [
        {
          "internalType": "contract PredictionMarketToken",
          "name": "",
          "type": "address"
        }
      ],
      "stateMutability": "view",
      "type": "function"
    },
    {
      "inputs": [],
      "name": "i_oracle",
      "outputs": [
        {
          "internalType": "address",
          "name": "",
          "type": "address"
        }
      ],
      "stateMutability": "view",
      "type": "function"
    },
    {
      "inputs": [],
      "name": "i_percentageLocked",
      "outputs": [
        {
          "internalType": "uint256",
          "name": "",
          "type": "uint256"
        }
      ],
      "stateMutability": "view",
      "type": "function"
    },
    {
      "inputs": [],
      "name": "i_yesToken",
      "outputs": [
        {
          "internalType": "contract PredictionMarketToken",
          "name": "",
          "type": "address"
        }
      ],
      "stateMutability": "view",
      "type": "function"
    },
    {
      "inputs": [],
      "name": "owner",
      "outputs": [
        {
          "internalType": "address",
          "name": "",
          "type": "address"
        }
      ],
      "stateMutability": "view",
      "type": "function"
    },
    {
      "inputs": [
        {
          "internalType": "uint256",
          "name": "_amount",
          "type": "uint256"
        }
      ],
      "name": "redeemWinningTokens",
      "outputs": [],
      "stateMutability": "nonpayable",
      "type": "function"
    },
    {
      "inputs": [
        {
          "internalType": "uint256",
          "name": "_ethToWithdraw",
          "type": "uint256"
        }
      ],
      "name": "removeLiquidity",
      "outputs": [],
      "stateMutability": "nonpayable",
      "type": "function"
    },
    {
      "inputs": [],
      "name": "renounceOwnership",
      "outputs": [],
      "stateMutability": "nonpayable",
      "type": "function"
    },
    {
      "inputs": [
        {
          "internalType": "enum PredictionMarket.Outcome",
          "name": "_winningOutcome",
          "type": "uint8"
        }
      ],
      "name": "report",
      "outputs": [],
      "stateMutability": "nonpayable",
      "type": "function"
    },
    {
      "inputs": [],
      "name": "resolveMarketAndWithdraw",
      "outputs": [
        {
          "internalType": "uint256",
          "name": "ethRedeemed",
          "type": "uint256"
        }
      ],
      "stateMutability": "nonpayable",
      "type": "function"
    },
    {
      "inputs": [],
      "name": "s_ethCollateral",
      "outputs": [
        {
          "internalType": "uint256",
          "name": "",
          "type": "uint256"
        }
      ],
      "stateMutability": "view",
      "type": "function"
    },
    {
      "inputs": [],
      "name": "s_isReported",
      "outputs": [
        {
          "internalType": "bool",
          "name": "",
          "type": "bool"
        }
      ],
      "stateMutability": "view",
      "type": "function"
    },
    {
      "inputs": [],
      "name": "s_lpTradingRevenue",
      "outputs": [
        {
          "internalType": "uint256",
          "name": "",
          "type": "uint256"
        }
      ],
      "stateMutability": "view",
      "type": "function"
    },
    {
      "inputs": [],
      "name": "s_question",
      "outputs": [
        {
          "internalType": "string",
          "name": "",
          "type": "string"
        }
      ],
      "stateMutability": "view",
      "type": "function"
    },
    {
      "inputs": [],
      "name": "s_winningToken",
      "outputs": [
        {
          "internalType": "contract PredictionMarketToken",
          "name": "",
          "type": "address"
        }
      ],
      "stateMutability": "view",
      "type": "function"
    },
    {
      "inputs": [
        {
          "internalType": "enum PredictionMarket.Outcome",
          "name": "_outcome",
          "type": "uint8"
        },
        {
          "internalType": "uint256",
          "name": "_tradingAmount",
          "type": "uint256"
        }
      ],
      "name": "sellTokensForEth",
      "outputs": [],
      "stateMutability": "nonpayable",
      "type": "function"
    },
    {
      "inputs": [
        {
          "internalType": "address",
          "name": "newOwner",
          "type": "address"
        }
      ],
      "name": "transferOwnership",
      "outputs": [],
      "stateMutability": "nonpayable",
      "type": "function"
    }
  ],
  "transactionHash": "0xb35f0315d0da4fa8a4007b49742ab6ca71abc4720b29aaeac2a50ac891feb566",
  "args": [
    "0xdb4101e7f5E2cC0e1A749092ff5287e3d36A5df6",
    "0xdb4101e7f5E2cC0e1A749092ff5287e3d36A5df6",
    "Will the green car win the race?",
    "100000000000000",
    50,
    10
  ],
  "numDeployments": 1,
  "solcInputHash": "d54ef7df5ade088515d98c4a343c362a",
  "bytecode": "0x610140604090808252620032cb80380380916200001d8285620006f9565b833981019160c0918281850312620006f4576200003a816200071d565b9160206200004a8184016200071d565b8383015190946001600160401b03949091858111620006f457810190601f898184011215620006f457825199878b116200056257865193601f19929162000098838e018516890187620006f9565b8c8652878d83010111620006f45760005b8c8110620006e0575050600086620000d79c86010152606083015191620000df60a060809d8e870162000732565b950162000732565b6001600160a01b039690949087168015620006c857600080546001600160a01b03198116831782558b519291908a16907f8be0079c531659141344cd1fd0a4f28419497f9722a3daafe3b4186f6b6457e09080a33415620006b9575060ff169360648510801590620006b0575b6200069f5760ff169960648b1080159062000696575b62000685578c5284519189831162000562576001958654928784811c941680156200067a575b8a851014620006645783838695116200060a575b5089928411600114620005a5575060009262000599575b5050600019600383901b1c191690841b1783555b8060a0528160e05287895234600255670de0b6b3a7640000803402903482040362000541578115620005835704855196610d86808901898110838211176200056257898d91878e60036200254595878787398085528401526259657360e81b60a0840152808c840152820152605960f81b60e0820152338b8201528560608201526101009b8c910301906000f0801562000578578a5288519282840190811184821017620005625760028e8c9486948539808352820152614e6f60f01b60a08201528c89820152868d820152602760f91b60e0820152338a8201528460608201520301906000f09788156200055757610120988952620002d381620002cd858562000741565b62000741565b9283851b9380850460021490151715620005415760640360ff81116200054157620003079260ff620002cd92169062000741565b80921b918083046002149015171562000541578551855163a9059cbb60e01b808252336004830152612710938490046024830152909390918690859060449082906000908a165af1938415620005365790869392916000956200050c575b50895188519283523360048401529290046024820152929383911681600081604481015b03925af19283156200050157600093620004cb575b505015908115620004c1575b50620004b1575192611dd59485620007708639518481816105a701528181610b26015261116e015260a05184818161025401528181610414015281816105ce01528181610773015281816110ce0152818161121e01526119ed0152518381816106580152610a84015260e0518381816101de0152610631015251828181610284015281816104c7015281816107d001528181610b7b01528181610c3d01528181610d0d0152818161144e0152818161192f01528181611a8c01528181611b830152611cd50152518181816102ef015281816104a30152818161081101528181610bd001528181610f2801528181611395015281816115af01528181611bcb0152611c8d0152f35b516318161dad60e21b8152600490fd5b90501538620003aa565b620004f0929350803d10620004f9575b620004e78183620006f9565b81019062000755565b9038806200039e565b503d620004db565b84513d6000823e3d90fd5b6200038995506200052e600091863d8811620004f957620004e78183620006f9565b955062000365565b87513d6000823e3d90fd5b634e487b7160e01b600052601160045260246000fd5b86513d6000823e3d90fd5b634e487b7160e01b600052604160045260246000fd5b89513d6000823e3d90fd5b634e487b7160e01b600052601260045260246000fd5b015190503880620001b3565b8794929192169184600052896000209260005b8b828210620005f35750508411620005d9575b505050811b018355620001c7565b015160001960f88460031b161c19169055388080620005cb565b8385015186558a97909501949384019301620005b8565b909192935087600052896000208480870160051c8201928c88106200065a575b9187968b92969594930160051c01915b8281106200064a5750506200019c565b600081558796508a91016200063a565b925081926200062a565b634e487b7160e01b600052602260045260246000fd5b93607f169362000188565b885163103731c360e21b8152600490fd5b508a1562000162565b88516324f7391760e21b8152600490fd5b5084156200014c565b63fe6ef5a160e01b8152600490fd5b8951631e4fbdf760e01b815260006004820152602490fd5b8181018801518682018901528701620000a9565b600080fd5b601f909101601f19168101906001600160401b038211908210176200056257604052565b51906001600160a01b0382168203620006f457565b519060ff82168203620006f457565b818102929181159184041417156200054157565b90816020910312620006f457518015158103620006f4579056fe608060408181526004908136101561001657600080fd5b600092833560e01c90816306a9cd5e146113f95750806314926d98146113c45780631816ca6f146113805780632dc7fd76146113645780634c5b59a51461119d5780635cb2deb51461115957806365e23abc14610f8d57806370a38aee14610cc6578063715018a614610c6c57806379b3d94a14610c285780637c1bb47e14610c05578063892d0f5014610aee5780638da5cb5b14610ac65780638dfeb95214610aa7578063910ec81b14610a6c57806391c721e314610a445780639c8f9f23146107415780639f615ee114610460578063aa7a939914610437578063ac3b90bb146103fc578063df592ec3146103dd578063e8078d9414610205578063f1ce1640146101c65763f2fde38b1461012c57600080fd5b346101c25760203660031901126101c2576001600160a01b038235818116939192908490036101be5761015d6117b9565b83156101a8575050600054826bffffffffffffffffffffffff60a01b821617600055167f8be0079c531659141344cd1fd0a4f28419497f9722a3daafe3b4186f6b6457e0600080a380f35b51631e4fbdf760e01b8152908101849052602490fd5b8480fd5b8280fd5b838234610201578160031936011261020157602090517f00000000000000000000000000000000000000000000000000000000000000008152f35b5080fd5b50826003193601126101c2576102196117b9565b60ff825460a01c166103d057610231346002546117e5565b600255670de0b6b3a76400008034029034820414341517156103bd5761027984917f000000000000000000000000000000000000000000000000000000000000000090611838565b926001600160a01b037f000000000000000000000000000000000000000000000000000000000000000081169190823b1561039b5784516340c10f1960e01b80825230848301908152602081018990529094869183919082908490829060400103925af180156103b35790859161039f575b50507f00000000000000000000000000000000000000000000000000000000000000001691823b1561039b578451908152309181019182526020820186905291839183919082908490829060400103925af180156103915761037d575b5050807fac1d76749e5447b7b16f5ab61447e1bd502f3bb4807af3b28e620d1700a6ee4591519234845260208401523392a280f35b6103869061163d565b6101c2578238610348565b83513d84823e3d90fd5b8380fd5b6103a89061163d565b61039b5783386102eb565b86513d87823e3d90fd5b634e487b7160e01b845260118352602484fd5b516378e34bb960e01b8152fd5b8382346102015781600319360112610201576020906002549051908152f35b838234610201578160031936011261020157602090517f00000000000000000000000000000000000000000000000000000000000000008152f35b50823461045d578060031936011261045d575060ff6020925460a01c1690519015158152f35b80fd5b5082903461020157816003193601126102015761047b611689565b600254600354845484516306fdde0360e01b80825294966001600160a01b03928316959394937f00000000000000000000000000000000000000000000000000000000000000008416917f000000000000000000000000000000000000000000000000000000000000000085169181858d81865afa94851561071b578295610725575b50895190815281818d81875afa90811561071b5782916106f9575b508951996370a0823160e01b9c8d8c5230818d015260209d8e8d602481895afa9c8d156106ef578f90869e6106c0575b5083519182523083830152816024818a5afa9485156106b55794610681575b50549581519d8e809e610200808352820161058291611794565b9181830391015261059291611794565b908c8203908d01526105a391611794565b98857f00000000000000000000000000000000000000000000000000000000000000001660608c01527f000000000000000000000000000000000000000000000000000000000000000060808c015260a08b015260c08a01528260a01c60ff16151560e08a0152610100890152610120880152166101408601526101608501526101808401526101a08301527f00000000000000000000000000000000000000000000000000000000000000006101c08301527f00000000000000000000000000000000000000000000000000000000000000006101e08301520390f35b9093508d81813d83116106ae575b6106998183611667565b810103126106a95751928e610568565b600080fd5b503d61068f565b8351903d90823e3d90fd5b809e50813d83116106e8575b6106d68183611667565b810103126106a9578e9c519c38610549565b503d6106cc565b83513d87823e3d90fd5b61071591503d8084833e61070d8183611667565b810190611d3d565b8c610519565b8a513d84823e3d90fd5b61073a9195503d8084833e61070d8183611667565b938c6104fe565b5082903461020157602090816003193601126101c2578335916107626117b9565b60ff855460a01c16610a34576107987f000000000000000000000000000000000000000000000000000000000000000084611838565b90670de0b6b3a764000091828102928184041490151715610a215782516370a0823160e01b8082523088830152906001600160a01b037f00000000000000000000000000000000000000000000000000000000000000008116918481602481865afa908115610a175789916109ea575b5085116109cc577f00000000000000000000000000000000000000000000000000000000000000001691855190815230898201528381602481865afa90811561097757889161099f575b508411610981576108658660025461187b565b600255803b1561095f578451632770a7eb60e21b80825230828b01908152602081018790529092899183919082908490829060400103925af1801561097757908891610963575b5050813b1561095f57845190815230818901908152602081018590529091879183919082908490829060400103925af1801561095557908691610941575b5080808087335af16108fa6118a4565b501561093157825193845283015233917f96cd817c6329656790ef8fba7675405193677d39619571282f5e21f3a98cd0599190a280f35b8251632fdb18b560e01b81528690fd5b61094a9061163d565b6101be5784876108ea565b84513d88823e3d90fd5b8680fd5b61096c9061163d565b61095f5786896108ac565b86513d8a823e3d90fd5b845163a4d71b8160e01b81526001818a015260248101859052604490fd5b90508381813d83116109c5575b6109b68183611667565b810103126106a9575189610852565b503d6109ac565b855163a4d71b8160e01b81526000818b015260248101869052604490fd5b90508481813d8311610a10575b610a018183611667565b810103126106a957518a610808565b503d6109f7565b87513d8b823e3d90fd5b634e487b7160e01b855260118652602485fd5b81516378e34bb960e01b81528590fd5b5090346101c257826003193601126101c2575490516001600160a01b03909116815260209150f35b838234610201578160031936011261020157602090517f00000000000000000000000000000000000000000000000000000000000000008152f35b8382346102015781600319360112610201576020906003549051908152f35b838234610201578160031936011261020157905490516001600160a01b039091168152602090f35b508290346102015760203660031901126102015782359060028210156101c257835460ff8160a01c16610a34576001600160a01b03907f000000000000000000000000000000000000000000000000000000000000000082163303610bf557939492937f54abe5cff8746fc59eefd3a10a4e9821354cd951ffef23d64fdb7939b6e2e419939085610bce577f0000000000000000000000000000000000000000000000000000000000000000905b6001600160a81b03191690831617600160a01b1790819055825194610bc2908690611858565b1660208401523392a280f35b7f000000000000000000000000000000000000000000000000000000000000000090610b9c565b825163d101b32160e01b81528690fd5b83823461020157602090610c21610c1b3661161e565b90611a6d565b9051908152f35b838234610201578160031936011261020157517f00000000000000000000000000000000000000000000000000000000000000006001600160a01b03168152602090f35b833461045d578060031936011261045d57610c856117b9565b600080546001600160a01b0319811682556001600160a01b03167f8be0079c531659141344cd1fd0a4f28419497f9722a3daafe3b4186f6b6457e08280a380f35b5090346101c257610cd63661161e565b90928115610f7e5760ff835460a01c16610f6f5784546001600160a01b039081163314610f5f576002851015610f4c5784610f26577f00000000000000000000000000000000000000000000000000000000000000005b169281516370a0823160e01b815233828201526020908181602481895afa908115610e7a578891610ef9575b50848110610edd57508251636eb1769f60e11b815233838201523060248201528181604481895afa908115610e7a578891610eb0575b50848110610e945750610da28487611a6d565b94610daf8660035461187b565b6003558780808089335af1610dc26118a4565b5015610e845781889160648651809481936323b872dd60e01b835233898401523060248401528a60448401525af1918215610e7a578892610e4d575b505015610e3f575090610e397fdb6c1cc84b96330a9be015b7f4d49df42a035945bf4bc3423e48a6e4259dbb7b9392519283923396846118ec565b0390a280f35b90516318161dad60e21b8152fd5b610e6c9250803d10610e73575b610e648183611667565b8101906118d4565b3880610dfe565b503d610e5a565b84513d8a823e3d90fd5b8351632fdb18b560e01b81528390fd5b90508360449351926377594e6960e01b84528301526024820152fd5b90508181813d8311610ed6575b610ec78183611667565b810103126106a9575138610d8f565b503d610ebd565b905083604493519263053ab6d560e21b84528301526024820152fd5b90508181813d8311610f1f575b610f108183611667565b810103126106a9575138610d59565b503d610f06565b7f0000000000000000000000000000000000000000000000000000000000000000610d2d565b634e487b7160e01b865260218452602486fd5b815163086b2ac360e41b81528490fd5b516378e34bb960e01b81529050fd5b51632688641b60e21b81529050fd5b50829034610201578160031936011261020157610fa86117b9565b82549160ff8360a01c16156111495781516370a0823160e01b81523081860152602094919390919084906001600160a01b03168684602481845afa9384156110b457829461111a575b50836110be575b611004600354876117e5565b9382600355813b156101c2578551632770a7eb60e21b815230858201908152602081019290925291839183919082908490829060400103925af180156110b4579082916110a0575b50808085335af161105b6118a4565b5015611092575081519081527f316a0bcd9820c43f9ba8738fd680d536a8ac65080f56f96833f696f6dd5a12fd843392a251908152f35b8251632fdb18b560e01b8152fd5b6110a99061163d565b61045d57808761104c565b85513d84823e3d90fd5b9450670de0b6b3a76400006110f37f000000000000000000000000000000000000000000000000000000000000000085611825565b0494600254808711611112575b8661110a9161187b565b600255610ff8565b955085611100565b9093508681813d8311611142575b6111328183611667565b810103126106a957519287610ff1565b503d611128565b8151635fd4000d60e11b81528490fd5b838234610201578160031936011261020157517f00000000000000000000000000000000000000000000000000000000000000006001600160a01b03168152602090f35b5082903461020157602090816003193601126101c257833591821561135457845460ff8160a01c16156113445784546001600160a01b0391908216331461133457169082516370a0823160e01b815233878201528181602481865afa908115610955579085918791611303575b50106112f357670de0b6b3a76400006112437f000000000000000000000000000000000000000000000000000000000000000086611825565b04916112518360025461187b565b600255803b156112ef578351632770a7eb60e21b815233818901908152602081018790529091879183919082908490829060400103925af18015610955576112dc575b508480808085335af16112a56118a4565b501561093157825193845283015233917faeb4b315a6442ab135da41b9b7b337c712b68e5a6051ef6299965f3e58dbebbb9190a280f35b6112e89095919561163d565b9386611294565b8580fd5b82516328f48e2f60e01b81528690fd5b809250838092503d831161132d575b61131c8183611667565b810103126112ef578490518861120a565b503d611312565b835163086b2ac360e41b81528790fd5b8251635fd4000d60e11b81528690fd5b8151632688641b60e21b81528590fd5b83823461020157602090610c2161137a3661161e565b90611909565b838234610201578160031936011261020157517f00000000000000000000000000000000000000000000000000000000000000006001600160a01b03168152602090f35b8382346102015781600319360112610201576113f5906113e2611689565b9051918291602083526020830190611794565b0390f35b9190506114053661161e565b9390928415611612575060ff815460a01c166116045784546001600160a01b0390811633146115f5576114388585611909565b34036115e65760028410156115d357836115ad577f00000000000000000000000000000000000000000000000000000000000000005b168251906370a0823160e01b825230838301526020918281602481855afa9081156115a3578891611572575b50861161154f576114ad346003546117e5565b600355835163a9059cbb60e01b815233848201908152602081018890529091839183919082908b90829060400103925af1918215611545578792611528575b505015610e3f57507f78408fb808ae2018d121a91ae47221eb4b85530dc14522ce2ddcb93083e269d691610e39915191829133953491846118ec565b61153e9250803d10610e7357610e648183611667565b38806114ec565b84513d89823e3d90fd5b835163a4d71b8160e01b81526044908761156b82870189611858565b6024820152fd5b90508281813d831161159c575b6115898183611667565b8101031261159857513861149a565b8780fd5b503d61157f565b85513d8a823e3d90fd5b7f000000000000000000000000000000000000000000000000000000000000000061146e565b634e487b7160e01b865260218252602486fd5b5090516309c860a960e31b8152fd5b50905163086b2ac360e41b8152fd5b90516378e34bb960e01b8152fd5b632688641b60e21b8152fd5b60409060031901126106a95760043560028110156106a9579060243590565b67ffffffffffffffff811161165157604052565b634e487b7160e01b600052604160045260246000fd5b90601f8019910116810190811067ffffffffffffffff82111761165157604052565b60405190600060019081549182811c90808416938415611767575b6020948584108114611753578388528794939291811561173357506001146116d7575b50506116d592500383611667565b565b60008181527fb10e2d527612073b26eecdfd717e6a320cf44b4afac2b0732d9fcbe2b7fa0cf695935091905b81831061171b5750506116d5935082010138806116c7565b85548884018501529485019487945091830191611703565b9150506116d594925060ff191682840152151560051b82010138806116c7565b634e487b7160e01b85526022600452602485fd5b91607f16916116a4565b60005b8381106117845750506000910152565b8181015183820152602001611774565b906020916117ad81518092818552858086019101611771565b601f01601f1916010190565b6000546001600160a01b031633036117cd57565b60405163118cdaa760e01b8152336004820152602490fd5b919082018092116117f257565b634e487b7160e01b600052601160045260246000fd5b90670de0b6b3a7640000918281029281840414901517156117f257565b818102929181159184041417156117f257565b8115611842570490565b634e487b7160e01b600052601260045260246000fd5b9060028210156118655752565b634e487b7160e01b600052602160045260246000fd5b919082039182116117f257565b67ffffffffffffffff811161165157601f01601f191660200190565b3d156118cf573d906118b582611888565b916118c36040519384611667565b82523d6000602084013e565b606090565b908160209103126106a9575180151581036106a95790565b604091949392611900826060810197611858565b60208201520152565b61191290611b4e565b828210611a5b576040516318160ddd60e01b8152906020826004817f00000000000000000000000000000000000000000000000000000000000000006001600160a01b03165afa918215611a4f57600092611a1a575b506119e8836119e26119c56119c56119dc896119d6896119d0836119ca6ec097ce7bc90715b34b9f10000000009f9d9c611a169f6119b7611a119f6119bd926119b09161187b565b928761187b565b826117e5565b998a91611808565b611838565b9961187b565b9061187b565b936117e5565b91611808565b906117e5565b60011c7f0000000000000000000000000000000000000000000000000000000000000000611825565b611825565b0490565b90916020823d8211611a47575b81611a3460209383611667565b8101031261045d575051906119e8611968565b3d9150611a27565b6040513d6000823e3d90fd5b60405163224e54d760e01b8152600490fd5b611a7690611b4e565b6040516318160ddd60e01b8152906020826004817f00000000000000000000000000000000000000000000000000000000000000006001600160a01b03165afa918215611a4f57600092611b19575b506119e8836119e26119c56119c56119dc89611b13896119d083611b0d6ec097ce7bc90715b34b9f10000000009f9d9c611a169f6119b7611a119f6119bd926119b09161187b565b996117e5565b9361187b565b90916020823d8211611b46575b81611b3360209383611667565b8101031261045d575051906119e8611ac5565b3d9150611b26565b600281101561186557611c65576040516370a0823160e01b808252306004830152602092916001600160a01b039084816024817f000000000000000000000000000000000000000000000000000000000000000086165afa928315611a4f578591600094611c33575b5060246040518094819382523060048301527f0000000000000000000000000000000000000000000000000000000000000000165afa938415611a4f57600094611c02575b50509190565b8181959293953d8311611c2c575b611c1a8183611667565b8101031261045d575051913880611bfc565b503d611c10565b9182819592953d8311611c5e575b611c4b8183611667565b8101031261045d57508490519238611bb7565b503d611c41565b6040516370a0823160e01b808252306004830152602092916001600160a01b039084816024817f000000000000000000000000000000000000000000000000000000000000000086165afa928315611a4f578591600094611d0b575b5060246040518094819382523060048301527f0000000000000000000000000000000000000000000000000000000000000000165afa938415611a4f57600094611c025750509190565b9182819592953d8311611d36575b611d238183611667565b8101031261045d57508490519238611cc1565b503d611d19565b6020818303126106a95780519067ffffffffffffffff82116106a9570181601f820112156106a9578051611d7081611888565b92611d7e6040519485611667565b818452602082840101116106a957611d9c9160208085019101611771565b9056fea26469706673582212202d1f6bd281e71246e2232d82a129ba7b9d5d9a5f522cc1f107f4c19f7526fcbf64736f6c6343000814003360406080815234620003d65762000d86803803806200001e81620003db565b9283398101608082820312620003d65781516001600160401b039290838111620003d657826200005091830162000401565b906020928382015190858211620003d6576200006e91830162000401565b8186015190926001600160a01b038216929091839003620003d65760600151948151818111620002d6576003908154906001948583811c93168015620003cb575b89841014620003b5578190601f938481116200035f575b508990848311600114620002f857600092620002ec575b505060001982851b1c191690851b1782555b8551928311620002d65760049586548581811c91168015620002cb575b89821014620002b6578281116200026b575b50879184116001146200020057938394918492600095620001f4575b50501b92600019911b1c19161782555b60018060a01b03193381600554161760055560065416176006553315620001dd5760025490838201809211620001c857506000917fddf252ad1be2c89b69c2b068fc378daa952ba7f163c4a11628f55a4df523b3ef9160025533835282815284832084815401905584519384523393a3516109129081620004748239f35b601190634e487b7160e01b6000525260246000fd5b602490600085519163ec442f0560e01b8352820152fd5b0151935038806200013a565b9190601f198416928760005284896000209460005b8b8983831062000253575050501062000238575b50505050811b0182556200014a565b01519060f884600019921b161c191690553880808062000229565b86860151895590970196948501948893500162000215565b87600052886000208380870160051c8201928b8810620002ac575b0160051c019086905b8281106200029f5750506200011e565b600081550186906200028f565b9250819262000286565b602288634e487b7160e01b6000525260246000fd5b90607f16906200010c565b634e487b7160e01b600052604160045260246000fd5b015190503880620000dd565b90879350601f19831691866000528b6000209260005b8d8282106200034857505084116200032f575b505050811b018255620000ef565b015160001983871b60f8161c1916905538808062000321565b8385015186558b979095019493840193016200030e565b90915084600052896000208480850160051c8201928c8610620003ab575b918991869594930160051c01915b8281106200039b575050620000c6565b600081558594508991016200038b565b925081926200037d565b634e487b7160e01b600052602260045260246000fd5b92607f1692620000af565b600080fd5b6040519190601f01601f191682016001600160401b03811183821017620002d657604052565b919080601f84011215620003d65782516001600160401b038111620002d65760209062000437601f8201601f19168301620003db565b92818452828287010111620003d65760005b8181106200045f57508260009394955001015290565b85810183015184820184015282016200044956fe608060408181526004918236101561001657600080fd5b600092833560e01c91826306fdde03146106ac57508163095ea7b31461060257816318160ddd146105e357816323b872dd146104d0578163313ce567146104b457816340c10f19146103ec5781635b8bec55146103c357816370a082311461038c57816395d89b411461026d5781639dc29fac1461017d578163a9059cbb1461012757508063dd62ed3e146100df5763def114b6146100b457600080fd5b346100db57816003193601126100db5760055490516001600160a01b039091168152602090f35b5080fd5b50346100db57806003193601126100db57806020926100fc6107cd565b6101046107e8565b6001600160a01b0391821683526001865283832091168252845220549051908152f35b82843461017a578160031936011261017a57506101426107cd565b9160018060a01b0360065416331461016c575061016560209260243590336107fe565b5160018152f35b905163ec0511b360e01b8152fd5b80fd5b839150346100db57826003193601126100db576101986107cd565b6005549091602435916001600160a01b03908116330361025e578316928315610247578385528460205285852054918383106102135750508184957fddf252ad1be2c89b69c2b068fc378daa952ba7f163c4a11628f55a4df523b3ef936020938688528785520381872055816002540360025551908152a380f35b865163391434e360e21b81526001600160a01b03909216908201908152602081018390526040810184905281906060010390fd5b8551634b637e8f60e11b8152808301869052602490fd5b508451631e29ea2960e11b8152fd5b8383346100db57816003193601126100db57805190828454600181811c90808316928315610382575b602093848410811461036f5783885290811561035357506001146102fe575b505050829003601f01601f191682019267ffffffffffffffff8411838510176102eb57508291826102e7925282610784565b0390f35b634e487b7160e01b815260418552602490fd5b8787529192508591837f8a35acfbc15ff81a39ae7d344fd709f28e8600b4aa8c65c6b64bfe7fe36bd19b5b83851061033f57505050508301018580806102b5565b805488860183015293019284908201610329565b60ff1916878501525050151560051b84010190508580806102b5565b634e487b7160e01b895260228a52602489fd5b91607f1691610296565b5050346100db5760203660031901126100db5760209181906001600160a01b036103b46107cd565b16815280845220549051908152f35b5050346100db57816003193601126100db5760065490516001600160a01b039091168152602090f35b919050346104b057806003193601126104b0576104076107cd565b60055460243592916001600160a01b0391821633036104a0571692831561048b5760025490838201809211610478575084927fddf252ad1be2c89b69c2b068fc378daa952ba7f163c4a11628f55a4df523b3ef9260209260025585855284835280852082815401905551908152a380f35b634e487b7160e01b865260119052602485fd5b84602492519163ec442f0560e01b8352820152fd5b825163294c9fd360e01b81528590fd5b8280fd5b5050346100db57816003193601126100db576020905160128152f35b9050823461017a57606036600319011261017a576104ec6107cd565b6104f46107e8565b60065460443594919391906001600160a01b03848116911681146105d457808352600160205286832033845260205286832054916000198303610540575b6020886101658989896107fe565b8683106105a857811561059157331561057a5750825260016020908152868320338452815291869020908590039055829061016587610532565b8751634a1406b160e11b8152908101849052602490fd5b875163e602df0560e01b8152908101849052602490fd5b8751637dc7a0d960e11b8152339181019182526020820193909352604081018790528291506060010390fd5b50855163ec0511b360e01b8152fd5b5050346100db57816003193601126100db576020906002549051908152f35b9050346104b057816003193601126104b05761061c6107cd565b602435903315610695576001600160a01b031691821561067e57508083602095338152600187528181208582528752205582519081527f8c5be1e5ebec7d5bd14f71427d1e84f3dd0314c0f7b2291e5b200ac8c7c3b925843392a35160018152f35b8351634a1406b160e11b8152908101859052602490fd5b835163e602df0560e01b8152808401869052602490fd5b849084346104b057826003193601126104b05782600354600181811c9080831692831561077a575b602093848410811461036f57838852908115610353575060011461072457505050829003601f01601f191682019267ffffffffffffffff8411838510176102eb57508291826102e7925282610784565b600387529192508591837fc2575a0e9e593c00f959f8c92f12db2869c3395a3b0502d05e2516446f71f85b5b83851061076657505050508301018580806102b5565b805488860183015293019284908201610750565b91607f16916106d4565b6020808252825181830181905290939260005b8281106107b957505060409293506000838284010152601f8019910116010190565b818101860151848201604001528501610797565b600435906001600160a01b03821682036107e357565b600080fd5b602435906001600160a01b03821682036107e357565b916001600160a01b038084169283156108c357169283156108aa5760009083825281602052604082205490838210610878575091604082827fddf252ad1be2c89b69c2b068fc378daa952ba7f163c4a11628f55a4df523b3ef958760209652828652038282205586815220818154019055604051908152a3565b60405163391434e360e21b81526001600160a01b03919091166004820152602481019190915260448101839052606490fd5b60405163ec442f0560e01b815260006004820152602490fd5b604051634b637e8f60e11b815260006004820152602490fdfea2646970667358221220a4188dec5a24c1236a03179956af74460a716e3f3847468e38620d7a4b63d27164736f6c63430008140033",
  "devdoc": {
    "errors": {
      "OwnableInvalidOwner(address)": [
        {
          "details": "The owner is not a valid owner account. (eg. `address(0)`)"
        }
      ],
      "OwnableUnauthorizedAccount(address)": [
        {
          "details": "The caller account is not authorized to perform an operation."
        }
      ]
    },
    "kind": "dev",
    "methods": {
      "addLiquidity()": {
        "details": "Only the owner can add liquidity and only if the prediction is not reported"
      },
      "buyTokensWithETH(uint8,uint256)": {
        "params": {
          "_amountTokenToBuy": "Amount of tokens to purchase",
          "_outcome": "The possible outcome (YES or NO) to buy tokens for"
        }
      },
      "getBuyPriceInEth(uint8,uint256)": {
        "params": {
          "_outcome": "The possible outcome (YES or NO) to buy tokens for",
          "_tradingAmount": "The amount of tokens to buy"
        },
        "returns": {
          "_0": "The total ETH price"
        }
      },
      "getSellPriceInEth(uint8,uint256)": {
        "params": {
          "_outcome": "The possible outcome (YES or NO) to sell tokens for",
          "_tradingAmount": "The amount of tokens to sell"
        },
        "returns": {
          "_0": "The total ETH price"
        }
      },
      "owner()": {
        "details": "Returns the address of the current owner."
      },
      "redeemWinningTokens(uint256)": {
        "details": "Only if the prediction is resolved",
        "params": {
          "_amount": "The amount of winning tokens to redeem"
        }
      },
      "removeLiquidity(uint256)": {
        "details": "Only the owner can remove liquidity and only if the prediction is not reported",
        "params": {
          "_ethToWithdraw": "Amount of ETH to withdraw from liquidity pool"
        }
      },
      "renounceOwnership()": {
        "details": "Leaves the contract without owner. It will not be possible to call `onlyOwner` functions. Can only be called by the current owner. NOTE: Renouncing ownership will leave the contract without an owner, thereby disabling any functionality that is only available to the owner."
      },
      "report(uint8)": {
        "details": "Only the oracle can report the winning outcome and only if the prediction is not reported",
        "params": {
          "_winningOutcome": "The winning outcome (YES or NO)"
        }
      },
      "resolveMarketAndWithdraw()": {
        "details": "Only callable by the owner and only if the prediction is resolved",
        "returns": {
          "ethRedeemed": "The amount of ETH redeemed"
        }
      },
      "sellTokensForEth(uint8,uint256)": {
        "params": {
          "_outcome": "The possible outcome (YES or NO) to sell tokens for",
          "_tradingAmount": "The amount of tokens to sell"
        }
      },
      "transferOwnership(address)": {
        "details": "Transfers ownership of the contract to a new account (`newOwner`). Can only be called by the current owner."
      }
    },
    "version": 1
  },
  "userdoc": {
    "errors": {
      "PredictionMarket__MustProvideETHForInitialLiquidity()": [
        {
          "notice": "Errors //////"
        }
      ]
    },
    "events": {
      "TokensPurchased(address,uint8,uint256,uint256)": {
        "notice": "Events //////"
      }
    },
    "kind": "user",
    "methods": {
      "addLiquidity()": {
        "notice": "Add liquidity to the prediction market and mint tokens"
      },
      "buyTokensWithETH(uint8,uint256)": {
        "notice": "Buy prediction outcome tokens with ETH, need to call priceInETH function first to get right amount of tokens to buy"
      },
      "getBuyPriceInEth(uint8,uint256)": {
        "notice": "Calculate the total ETH price for buying tokens"
      },
      "getPrediction()": {
        "notice": "Get the prediction details"
      },
      "getSellPriceInEth(uint8,uint256)": {
        "notice": "Calculate the total ETH price for selling tokens"
      },
      "i_oracle()": {
        "notice": "Checkpoint 2 ///"
      },
      "i_yesToken()": {
        "notice": "Checkpoint 3 ///"
      },
      "redeemWinningTokens(uint256)": {
        "notice": "Redeem winning tokens for ETH after prediction is resolved, winning tokens are burned and user receives ETH"
      },
      "removeLiquidity(uint256)": {
        "notice": "Remove liquidity from the prediction market and burn respective tokens, if you remove liquidity before prediction ends you got no share of lpReserve"
      },
      "report(uint8)": {
        "notice": "Report the winning outcome for the prediction"
      },
      "resolveMarketAndWithdraw()": {
        "notice": "Owner of contract can redeem winning tokens held by the contract after prediction is resolved and get ETH from the contract including LP revenue and collateral back"
      },
      "s_winningToken()": {
        "notice": "Checkpoint 5 ///"
      },
      "sellTokensForEth(uint8,uint256)": {
        "notice": "Sell prediction outcome tokens for ETH, need to call priceInETH function first to get right amount of tokens to buy"
      }
    },
    "version": 1
  },
  "storageLayout": {
    "storage": [
      {
        "astId": 8,
        "contract": "contracts/PredictionMarket.sol:PredictionMarket",
        "label": "_owner",
        "offset": 0,
        "slot": "0",
        "type": "t_address"
      },
      {
        "astId": 1005,
        "contract": "contracts/PredictionMarket.sol:PredictionMarket",
        "label": "s_question",
        "offset": 0,
        "slot": "1",
        "type": "t_string_storage"
      },
      {
        "astId": 1007,
        "contract": "contracts/PredictionMarket.sol:PredictionMarket",
        "label": "s_ethCollateral",
        "offset": 0,
        "slot": "2",
        "type": "t_uint256"
      },
      {
        "astId": 1009,
        "contract": "contracts/PredictionMarket.sol:PredictionMarket",
        "label": "s_lpTradingRevenue",
        "offset": 0,
        "slot": "3",
        "type": "t_uint256"
      },
      {
        "astId": 1020,
        "contract": "contracts/PredictionMarket.sol:PredictionMarket",
        "label": "s_winningToken",
        "offset": 0,
        "slot": "4",
        "type": "t_contract(PredictionMarketToken)2387"
      },
      {
        "astId": 1022,
        "contract": "contracts/PredictionMarket.sol:PredictionMarket",
        "label": "s_isReported",
        "offset": 20,
        "slot": "4",
        "type": "t_bool"
      }
    ],
    "types": {
      "t_address": {
        "encoding": "inplace",
        "label": "address",
        "numberOfBytes": "20"
      },
      "t_bool": {
        "encoding": "inplace",
        "label": "bool",
        "numberOfBytes": "1"
      },
      "t_contract(PredictionMarketToken)2387": {
        "encoding": "inplace",
        "label": "contract PredictionMarketToken",
        "numberOfBytes": "20"
      },
      "t_string_storage": {
        "encoding": "bytes",
        "label": "string",
        "numberOfBytes": "32"
      },
      "t_uint256": {
        "encoding": "inplace",
        "label": "uint256",
        "numberOfBytes": "32"
      }
    }
  }
}